:100000000C942A000C94D70B0C94040C0C94310C17
:100010000C9447000C9447000C9415070C9447006F
:100020000C9447000C9447000C940D090C94A508FF
:100030000C9447000C9447000C9447000C94470024
:100040000C9447000C9447000C9447000C94470014
:100050000C94470011241FBECFE5D8E0DEBFCDBF12
:1000600010E0A0E6B0E0E8EDF7E302C005900D92E5
:10007000AC3AB107D9F710E0ACEAB0E001C01D928C
:10008000AE3CB107E1F70E94541B0C94EA1B0C94A0
:100090000000EF92FF920F931F937B018C0120E0F1
:1000A00030E040E05FE40E94F50388238CF0C80153
:1000B000B70120E030E040E05FE40E94C1010E940F
:1000C00055049B01AC01205030404040504806C0D0
:1000D000C801B7010E9455049B01AC01B901CA01D6
:1000E0001F910F91FF90EF900895A0E0B0E0EBE733
:1000F000F0E00C94B31BDC012B01FA019C919230CF
:1001000008F439C1EB018881823008F433C194309E
:1001100069F4843009F02FC111969C91119789815F
:10012000981709F428C1A0E6B0E025C1843009F48D
:1001300021C18230A9F4923009F01DC19A01AD01AC
:1001400088E0EA010990AE01E90109929E0181501F
:10015000C1F7E201898111969C918923818308C1AD
:10016000923009F407C112962D903C901397EB0141
:100170008A819B811496AD90BD90CD90DC901797AD
:10018000EC80FD800E811F819101281B390BB90184
:1001900037FF04C066277727621B730B6032710537
:1001A0000CF061C0121613066CF537014801062EDB
:1001B00004C096948794779467940A94D2F721E0C8
:1001C00030E040E050E004C0220F331F441F551FB1
:1001D0006A95D2F721503040404050402E213F21B7
:1001E00040235123211531054105510521F021E01E
:1001F00030E040E050E079018A01E628F72808293C
:1002000019293CC0232BD1F1260E371E350146019A
:10021000062E04C096948794779467940A94D2F734
:1002200021E030E040E050E004C0220F331F441FC3
:10023000551F6A95D2F721503040404050402A2146
:100240003B214C215D21211531054105510521F04E
:1002500021E030E040E050E059016A01A628B728CB
:10026000C828D9280BC0821593052CF01C01AA249C
:10027000BB24650103C0EE24FF24870111969C91E5
:10028000D20111968C91981709F445C0992339F041
:10029000A80197012A193B094C095D0906C0A6016E
:1002A00095012E193F09400B510B57FD08C01182D3
:1002B0003382228224833583468357831DC081E0A5
:1002C00081833382228288279927DC01821B930B4A
:1002D000A40BB50B84839583A683B7830DC0220F2F
:1002E000331F441F551F24833583468357838281E0
:1002F000938101979383828324813581468157813D
:10030000DA01C9010197A109B1098F5F9F4FAF4F72
:10031000BF4328F30BC0918333822282EA0CFB1C7B
:100320000C1D1D1DE482F5820683178383E0808304
:10033000248135814681578157FF1AC0C901AA27F8
:1003400097FDA095BA2F81709070A070B0705695EF
:10035000479537952795822B932BA42BB52B848318
:100360009583A683B7838281938101969383828349
:10037000DF0101C0D201CD01CDB7DEB7E2E10C94BF
:10038000CF1BA0E2B0E0E7ECF1E00C94BF1B698367
:100390007A838B839C832D833E834F835887E9E048
:1003A000EE2EF12CEC0EFD1ECE010196B7010E943F
:1003B0007E058E010F5E1F4FCE010596B8010E948B
:1003C0007E058A8991E089278A8BC701B801AE0131
:1003D000475E5F4F0E9475000E94A904A096E6E068
:1003E0000C94DB1BA0E2B0E0E8EFF1E00C94BF1B43
:1003F00069837A838B839C832D833E834F835887C5
:10040000F9E0EF2EF12CEC0EFD1ECE010196B701A6
:100410000E947E058E010F5E1F4FCE010596B8012A
:100420000E947E05C701B801AE01475E5F4F0E9482
:1004300075000E94A904A096E6E00C94DB1BA0E2E4
:10044000B0E0E5E2F2E00C94B31B69837A838B831E
:100450009C832D833E834F835887CE010196BE0136
:10046000675F7F4F0E947E05CE010596BE016F5EDD
:100470007F4F0E947E059985923088F0898982306D
:10048000C8F0943019F4823051F404C0843029F457
:10049000923081F480E690E0C6C0923049F420E0CA
:1004A0009A858A89981321E02A87CE010996BBC0D4
:1004B000823049F420E09A858A89981321E02A8BBA
:1004C000CE014196B0C02D843E844F8458886D88FB
:1004D0007E888F88988CEE24FF248701AA24BB2471
:1004E000650140E050E060E070E0E0E0F0E0C10174
:1004F00081709070892BE9F0E60CF71C081D191D1E
:100500009A01AB012A0D3B1D4C1D5D1D80E090E062
:10051000A0E0B0E0E614F7040805190520F481E036
:1005200090E0A0E0B0E0BA01A901480F591F6A1F8E
:100530007B1FAA0CBB1CCC1CDD1C97FE08C081E0F5
:1005400090E0A0E0B0E0A82AB92ACA2ADB2A3196B6
:10055000E032F10549F0660C771C881C991C569412
:10056000479437942794C3CFFA85EA892B893C892D
:100570008B859C85280F391F2E5F3F4F17C0CA01FE
:1005800081709070892B61F016950795F794E79428
:1005900080E090E0A0E0B0E8E82AF92A0A2B1B2BC3
:1005A00076956795579547952F5F3F4F77FDE7CF36
:1005B0000CC0440F551F661F771F17FD4160EE0CDE
:1005C000FF1C001F111F21503040403090E05907A0
:1005D00090E0690790E4790760F32B8F3C8FDB0193
:1005E000CA018F779070A070B07080349105A1051A
:1005F000B10561F447FD0AC0E114F10401051105DC
:1006000029F0405C5F4F6F4F7F4F40781A8EFE1786
:1006100011F081E08A8F4D8F5E8F6F8F78A383E01A
:10062000898FCE0149960E94A904A096E2E10C941C
:10063000CF1BA8E1B0E0EFE1F3E00C94BB1B6983B2
:100640007A838B839C832D833E834F835887B9E0C5
:10065000EB2EF12CEC0EFD1ECE010196B7010E948F
:100660007E058E010F5E1F4FCE010596B8010E94D8
:100670007E052985223008F47EC03989323010F495
:10068000B8017CC08A859A8989278A87243011F02D
:10069000223031F4231709F06EC060E670E06EC0BE
:1006A000343039F41D861E861F86188A1C861B86E8
:1006B00004C0323021F484E08987B7015FC02B8504
:1006C0003C858B899C89281B390B3C872B87ED84C3
:1006D000FE840F851889AD88BE88CF88D88CEA142F
:1006E000FB040C051D0540F4EE0CFF1C001F111F40
:1006F000215030403C872B8720E030E040E050E044
:1007000080E090E0A0E0B0E460E070E0EA14FB0478
:100710000C051D0540F0282B392B4A2B5B2BEA18C2
:10072000FB080C091D09B695A79597958795EE0CC2
:10073000FF1C001F111F6F5F7F4F6F31710531F775
:10074000DA01C9018F779070A070B0708034910584
:10075000A105B10561F427FD0AC0E114F10401050A
:10076000110529F0205C3F4F4F4F5F4F20782D87B8
:100770003E874F87588BBE01675F7F4FCB010E943A
:10078000A9046896EAE00C94D71BA8E1B0E0EBEC72
:10079000F3E00C94BF1B69837A838B839C832D8346
:1007A0003E834F83588789E0E82EF12CEC0EFD1E26
:1007B000CE010196B7010E947E058E010F5E1F4F8C
:1007C000CE010596B8010E947E058985823040F0F1
:1007D0008989823028F0C701B8010E94F60501C05E
:1007E0008FEF6896E6E00C94DB1BA8E1B0E0EBEF3E
:1007F000F3E00C94BF1B69837A838B839C832D83E6
:100800003E834F83588789E0E82EF12CEC0EFD1EC5
:10081000CE010196B7010E947E058E010F5E1F4F2B
:10082000CE010596B8010E947E058985823040F090
:100830008989823028F0C701B8010E94F60501C0FD
:100840008FEF6896E6E00C94DB1BA8E1B0E0EBE2EA
:10085000F4E00C94BF1B69837A838B839C832D8384
:100860003E834F83588789E0E82EF12CEC0EFD1E65
:10087000CE010196B7010E947E058E010F5E1F4FCB
:10088000CE010596B8010E947E058985823040F030
:100890008989823028F0C701B8010E94F60501C09D
:1008A00081E06896E6E00C94DB1BACE0B0E0EBE5A1
:1008B000F4E00C94C31B69837A838B839C83CE0101
:1008C0000196BE016B5F7F4F0E947E058D81823055
:1008D00061F1823050F1843021F48E81882351F10E
:1008E0002EC02F81388537FD20C06E812F31310514
:1008F0001CF06623F9F023C08EE190E0821B930B7D
:1009000029853A854B855C8504C056954795379572
:1009100027958A95D2F76623B1F05095409530958A
:1009200021953F4F4F4F5F4F0EC020E030E040E039
:1009300050E009C02FEF3FEF4FEF5FE704C020E02A
:1009400030E040E050E8B901CA012C96E2E00C9496
:10095000DF1BDF92EF92FF920F931F93FC01E48065
:10096000F58006811781D1808081823048F480E053
:1009700090E0A0E1B0E0E82AF92A0A2B1B2BA5C0E1
:10098000843009F49FC0823021F4EE24FF248701D3
:1009900005C0E114F1040105110519F4E0E0F0E0EF
:1009A00096C0628173819FEF623879070CF05BC05B
:1009B00022E83FEF261B370B2A3131052CF020E0CF
:1009C00030E040E050E02AC0B801A701022E04C088
:1009D00076956795579547950A94D2F781E090E010
:1009E000A0E0B0E004C0880F991FAA1FBB1F2A9582
:1009F000D2F70197A109B1098E219F21A023B1232C
:100A00000097A105B10521F081E090E0A0E0B0E001
:100A10009A01AB01282B392B4A2B5B2BDA01C90138
:100A20008F779070A070B07080349105A105B105EA
:100A300039F427FF09C0205C3F4F4F4F5F4F04C080
:100A4000215C3F4F4F4F5F4FE0E0F0E02030A0E0EF
:100A50003A07A0E04A07A0E45A0710F0E1E0F0E00E
:100A600079018A0127C06038710564F5FB01E158FE
:100A7000FF4FD801C7018F779070A070B07080349D
:100A80009105A105B10539F4E7FE0DC080E490E0C1
:100A9000A0E0B0E004C08FE390E0A0E0B0E0E80E9A
:100AA000F91E0A1F1B1F17FF05C016950795F7941F
:100AB000E794319687E016950795F794E7948A9521
:100AC000D1F705C0EE24FF248701EFEFF0E06E2F91
:100AD000679566276795902F9F77D794DD24D794E5
:100AE0008E2F8695492F462B582F5D29B701CA01B5
:100AF0001F910F91FF90EF90DF900895FC01DB01B3
:100B0000408151812281622F6F7770E0221F22275E
:100B1000221F9381892F880F822B282F30E0991F65
:100B20009927991F11969C93119721153105A9F5C5
:100B3000411551056105710511F482E037C082E865
:100B40009FEF13969C938E9312979A01AB0167E0E7
:100B5000220F331F441F551F6A95D1F783E08C93F2
:100B60000DC0220F331F441F551F12968D919C916B
:100B70001397019713969C938E931297203080E0E1
:100B8000380780E0480780E4580758F314962D93FF
:100B90003D934D935C93179708952F3F310579F45A
:100BA000411551056105710519F484E08C93089590
:100BB00064FF03C081E08C9312C01C9210C02F57B9
:100BC000304013963C932E93129783E08C9387E0EA
:100BD000440F551F661F771F8A95D1F770641496CE
:100BE0004D935D936D937C93179708951F93DC014C
:100BF000FB019C91923008F447C08081823008F458
:100C000043C0943051F411961C91843099F5818140
:100C1000682F70E0611B71093FC0843021F0923071
:100C200031F48230B9F18181882389F12DC0119688
:100C30001C9111978230F1F081811817D9F4129626
:100C40002D913C911397828193818217930794F0A1
:100C500028173907BCF014968D919D910D90BC9189
:100C6000A02D2481358146815781281739074A07ED
:100C70005B0718F4112341F00AC082179307A407F9
:100C8000B50740F4112319F061E070E005C06FEF83
:100C90007FEF02C060E070E0CB011F910895DF9309
:100CA000CF93CDB7DEB7ECE4F0E011821082AFE471
:100CB000B0E0EFE4F0E080818E7F8C93AFE4B0E0B1
:100CC000EFE4F0E080818D7F8C93AEE4B0E0EEE461
:100CD000F0E08081877F8C93AEE4B0E0EEE4F0E05A
:100CE00080818F7E8C93AEE4B0E0EEE4F0E0808112
:100CF0008E7F8C93AEE4B0E0EEE4F0E08081826021
:100D00008C93AEE4B0E0EEE4F0E080818B7F8C93D6
:100D1000CF91DF910895DF93CF93CDB7DEB7ECE4A9
:100D2000F0E011821082AFE4B0E0EFE4F0E0808107
:100D30008E7F8C93AFE4B0E0EFE4F0E080818D7FB4
:100D40008C93AEE4B0E0EEE4F0E08081877F8C939A
:100D5000AEE4B0E0EEE4F0E080818F7E8C93A9E514
:100D6000B0E0E9E5F0E0808180628C93AEE4B0E031
:100D7000EEE4F0E080818E7F8C93AEE4B0E0EEE4B0
:100D8000F0E0808182608C93AEE4B0E0EEE4F0E0CD
:100D900080818B7F8C93CF91DF910895DF93CF93E8
:100DA00000D00F92CDB7DEB789838981282F30E03C
:100DB0003B832A838A819B81009769F02A813B814A
:100DC0002130310579F4AEE4B0E0EEE4F0E080816A
:100DD0008F7B8C9307C0AEE4B0E0EEE4F0E080815E
:100DE00080648C930F900F900F90CF91DF910895B6
:100DF000DF93CF93CDB7DEB7E6E4F0E08081918159
:100E0000CF91DF910895DF93CF9300D0CDB7DEB7B8
:100E10009A83898389819A819093BB008093BA00D9
:100E20000F900F90CF91DF9108951F920F920FB600
:100E30000F9211242F933F934F935F936F937F9360
:100E40008F939F93AF93BF93EF93FF93DF93CF93D2
:100E5000CDB7DEB7E091BA00F091BB000995CF9114
:100E6000DF91FF91EF91BF91AF919F918F917F9112
:100E70006F915F914F913F912F910F900FBE0F9007
:100E80001F901895DF93CF93CDB7DEB7ECE4F0E079
:100E900080819181CF91DF910895DF93CF93CDB77A
:100EA000DEB7ECE4F0E011821082CF91DF9108957B
:100EB000DF93CF9300D0CDB7DEB79A838983ECE47C
:100EC000F0E011821082AFE4B0E0EFE4F0E0808166
:100ED0008E7F8C93AFE4B0E0EFE4F0E0808182603D
:100EE0008C93AEE4B0E0EEE4F0E0808188608C9317
:100EF000AEE4B0E0EEE4F0E0808180618C93AFE49A
:100F0000B0E0EFE4F0E080818F738C93AFE4B0E069
:100F1000EFE4F0E0808180688C93AFE4B0E0EFE430
:100F2000F0E080818F7C8C93AFE4B0E0EFE4F0E000
:100F3000808180638C93E6E4F0E089819A819183DB
:100F40008083AEE4B0E0EEE4F0E080818E7F8C93AD
:100F5000AEE4B0E0EEE4F0E0808182608C93AEE439
:100F6000B0E0EEE4F0E080818B7F8C930F900F90E7
:100F7000CF91DF910895DF93CF9300D000D00F92EF
:100F8000CDB7DEB789837B836A838981282F30E0E0
:100F90003D832C838C819D81009731F02C813D8194
:100FA0002130310541F00DC0EAE4F0E08A819B81F7
:100FB0009183808306C0E8E4F0E08A819B8191837D
:100FC00080830F900F900F900F900F90CF91DF9133
:100FD0000895DF93CF93CDB7DEB7A3E5B0E0E3E5A7
:100FE000F0E080818F7B8C93A3E5B0E0E3E5F0E057
:100FF000808188608C93A9E5B0E0E9E5F0E080812C
:1010000082608C93CF91DF910895DF93CF9300D0CE
:1010100000D00F92CDB7DEB76A837B838C839D832C
:101020008FEF898332C08981282F30E040E050E083
:101030008A819B81AC81BD81BC01CD010E94911B45
:10104000DC01CB010097A105B105E1F4ECE5F0E08E
:10105000898180838981282F30E040E050E08A81B7
:101060009B81AC81BD81BC01CD010E94911BDA0145
:10107000C9018093C2009093C300A093C400B093B1
:10108000C50006C08981815089838981882359F6EA
:10109000A3E5B0E0E3E5F0E080818E7F8C93A3E5EB
:1010A000B0E0E3E5F0E0808182608C93A3E5B0E0FE
:1010B000E3E5F0E080818B7F8C930F900F900F9091
:1010C0000F900F90CF91DF910895DF93CF93CDB71D
:1010D000DEB7A3E5B0E0E3E5F0E080818E7F8C939E
:1010E000A3E5B0E0E3E5F0E080818D7F8C93A3E59C
:1010F000B0E0E3E5F0E080818B7F8C93CF91DF91CE
:101100000895DF93CF9300D0CDB7DEB79A8389835C
:1011100089819A819093C1008093C0000F900F90B5
:10112000CF91DF910895DF93CF9300D0CDB7DEB795
:101130009A83898389819A819093C7008093C6009E
:101140000F900F90CF91DF9108951F920F920FB6DD
:101150000F9211242F933F934F935F936F937F933D
:101160008F939F93AF93BF93EF93FF93DF93CF93AF
:10117000CDB7DEB72091AC003091AD004091AE000C
:101180005091AF008091C2009091C300A091C40023
:10119000B091C500281739074A075B07C1F4E091F1
:1011A000C000F091C10009951092AC001092AD0002
:1011B0001092AE001092AF00E2E5F0E08091BC002A
:1011C0009091BD00A091BE00B091BF00808380913E
:1011D000AC009091AD00A091AE00B091AF0001962F
:1011E000A11DB11D8093AC009093AD00A093AE0003
:1011F000B093AF00CF91DF91FF91EF91BF91AF918D
:101200009F918F917F916F915F914F913F912F911E
:101210000F900FBE0F901F9018951F920F920FB650
:101220000F9211242F933F934F935F936F937F936C
:101230008F939F93AF93BF93EF93FF93DF93CF93DE
:10124000CDB7DEB72091B0003091B1004091B2002F
:101250005091B3008091C2009091C300A091C4004E
:10126000B091C500281739074A075B0769F4E09178
:10127000C600F091C70009951092B0001092B1001D
:101280001092B2001092B3008091B0009091B10022
:10129000A091B200B091B3000196A11DB11D809341
:1012A000B0009093B100A093B200B093B300CF917F
:1012B000DF91FF91EF91BF91AF919F918F917F91BE
:1012C0006F915F914F913F912F910F900FBE0F90B3
:1012D0001F9018950F931F93DF93CF9300D0CDB736
:1012E000DEB79A838983A6E5B0E0E6E5F0E0808189
:1012F00084608C93A1E2B0E0E1E2F0E080818E7F37
:101300008C93A1E2B0E0E1E2F0E080818D7F8C93EC
:1013100000E210E089819A81CC01A0E0B0E020EEEB
:101320003EE548EF5FEFBC01CD010E94721BDC017E
:10133000CB0180959095A095B095880F991FAA1F15
:10134000BB1FF80180830F900F90CF91DF911F9109
:101350000F910895DF93CF93CDB7DEB7A6E5B0E048
:10136000E6E5F0E0808184608C93E2E2F0E088E2E0
:101370008083CF91DF910895DF93CF93CDB7DEB710
:10138000A6E5B0E0E6E5F0E08081806A8C93E6E5D2
:10139000F0E080818823DCF7E1E2F0E08081887F63
:1013A000CF91DF910895DF93CF9300D0CDB7DEB713
:1013B00089836A83E3E2F0E08981882F90E0880FD7
:1013C000991F982F8A81892B8083A6E5B0E0E6E5F6
:1013D000F0E0808180688C93E6E5F0E080818823EE
:1013E000DCF7E1E2F0E08081887F0F900F90CF91F1
:1013F000DF910895DF93CF930F92CDB7DEB7898346
:10140000E3E2F0E089818083A6E5B0E0E6E5F0E084
:10141000808185608C93E6E5F0E080818823DCF7AD
:10142000E1E2F0E08081887F0F90CF91DF91089515
:10143000DF93CF93CDB7DEB7A6E5B0E0E6E5F0E009
:10144000808184698C93E6E5F0E080818823DCF775
:10145000E1E2F0E08081887FCF91DF910895DF9312
:10146000CF93CDB7DEB7A6E5B0E0E6E5F0E080814A
:10147000846C8C93E6E5F0E080818823DCF7E3E27E
:10148000F0E08081CF91DF910895DF93CF93CDB7C6
:10149000DEB7A6E5B0E0E6E5F0E0808184688C93F5
:1014A000E6E5F0E080818823DCF7E3E2F0E080818C
:1014B000CF91DF910895DF93CF93CDB7DEB7289713
:1014C0000FB6F894DEBF0FBECDBF8C837E836D83D5
:1014D0004F830E94BC098B81883019F08B818887EB
:1014E0002EC08C8160E00E94D3098B838B81883170
:1014F00019F08B81888723C01A82198213C0298131
:101500003A818D819E81FC01E20FF31F80810E9450
:10151000FA098B838B81883269F489819A810196DB
:101520009A8389838F81282F30E089819A8182175D
:1015300093072CF30E94180A8B838B8188878885F8
:1015400028960FB6F894DEBF0FBECDBFCF91DF91C6
:101550000895DF93CF93CDB7DEB7AFE5B0E0EFE509
:10156000F0E0808180688C93CF91DF910895DF93C4
:10157000CF93CDB7DEB7AFE5B0E0EFE5F0E0808127
:101580008F778C93CF91DF910895DF93CF9300D025
:1015900000D0CDB7DEB789836A838981282F30E0F8
:1015A0003C832B838B819C8182309105D9F02B81E8
:1015B0003C812330310569F18B819C81813091051B
:1015C00009F044C0A5E5B0E0E5E5F0E080818C7F5E
:1015D0008C93A5E5B0E0E5E5F0E090818A81892B68
:1015E0008C9334C0A5E5B0E0E5E5F0E08081837F31
:1015F0008C93A5E5B0E0E5E5F0E08081282F8A81B5
:10160000882F90E0880F991F880F991F822B8C9349
:101610001DC0A4E5B0E0E4E5F0E080818F7B8C9311
:10162000A4E5B0E0E4E5F0E08081282F8A81882FEE
:1016300090E0817090700024969587950794969518
:1016400087950794982F802D822B8C930F900F9065
:101650000F900F90CF91DF910895DF93CF9300D03B
:101660000F92CDB7DEB789838981282F30E03B8385
:101670002A838A819B818230910591F02A813B8166
:1016800023303105A9F08A819B8181309105B9F41D
:10169000ABE5B0E0EBE5F0E0808180648C930FC0B7
:1016A000ABE5B0E0EBE5F0E0808180688C9307C0AB
:1016B000ABE5B0E0EBE5F0E0808180628C930F90C9
:1016C0000F900F90CF91DF910895DF93CF9300D0CB
:1016D0000F92CDB7DEB789838981282F30E03B8315
:1016E0002A838A819B818230910591F02A813B81F6
:1016F00023303105A9F08A819B8181309105B9F4AD
:10170000ABE5B0E0EBE5F0E080818F7B8C930FC020
:10171000ABE5B0E0EBE5F0E080818F778C9307C01C
:10172000ABE5B0E0EBE5F0E080818F7D8C930F902E
:101730000F900F90CF91DF910895DF93CF9300D05A
:1017400000D00F92CDB7DEB789837B836A8389810E
:10175000282F30E03D832C838C819D818230910540
:1017600089F02C813D812330310599F08C819D8158
:1017700081309105A1F48A819B819093C900809367
:10178000C8000DC08A819B819093CB008093CA00D2
:1017900006C08A819B819093CD008093CC000F90EE
:1017A0000F900F900F900F90CF91DF9108951F929F
:1017B0000F920FB60F9211242F933F934F935F9385
:1017C0006F937F938F939F93AF93BF93EF93FF9309
:1017D000DF93CF93CDB7DEB7E091C800F091C90099
:1017E0000995CF91DF91FF91EF91BF91AF919F91BB
:1017F0008F917F916F915F914F913F912F910F90BA
:101800000FBE0F901F9018951F920F920FB60F9258
:1018100011242F933F934F935F936F937F938F93F5
:101820009F93AF93BF93EF93FF93DF93CF93CDB786
:10183000DEB7E091CA00F091CB000995CF91DF911E
:10184000FF91EF91BF91AF919F918F917F916F9198
:101850005F914F913F912F910F900FBE0F901F906E
:1018600018951F920F920FB60F9211242F933F934A
:101870004F935F936F937F938F939F93AF93BF9398
:10188000EF93FF93DF93CF93CDB7DEB7E091CC001A
:10189000F091CD000995CF91DF91FF91EF91BF912C
:1018A000AF919F918F917F916F915F914F913F91F8
:1018B0002F910F900FBE0F901F901895DF93CF932D
:1018C000CDB7DEB728970FB6F894DEBF0FBECDBFF9
:1018D00089836A834B838B81813009F073C089814E
:1018E000282F30E038872F838F81988582309105AB
:1018F00051F12F8138852330310534F48F8198855B
:101900008130910561F05BC02F813885233031052E
:1019100071F18F81988584309105E9F150C0ABE376
:10192000B0E0EBE3F0E08081482F8A81282F30E09F
:1019300081E090E0022E02C0880F991F0A94E2F71E
:10194000842B8C93BEC0A8E3B0E0E8E3F0E0808194
:10195000482F8A81282F30E081E090E0022E02C0DB
:10196000880F991F0A94E2F7842B8C93AAC0A5E3F1
:10197000B0E0E5E3F0E08081482F8A81282F30E055
:1019800081E090E0022E02C0880F991F0A94E2F7CE
:10199000842B8C9396C0A2E3B0E0E2E3F0E0808178
:1019A000482F8A81282F30E081E090E0022E02C08B
:1019B000880F991F0A94E2F7842B8C9382C09FEFC3
:1019C0009E8380C08B81882309F078C08981282F6D
:1019D00030E03D832C838C819D818230910561F1C3
:1019E0002C813D812330310534F48C819D818130FF
:1019F000910569F060C02C813D812330310589F16A
:101A00008C819D818430910509F440C054C0ABE3C2
:101A1000B0E0EBE3F0E08081482F8A81282F30E0AE
:101A200081E090E0022E02C0880F991F0A94E2F72D
:101A3000809584238C9345C0A8E3B0E0E8E3F0E010
:101A40008081482F8A81282F30E081E090E0022EAB
:101A500002C0880F991F0A94E2F7809584238C9323
:101A600030C0A5E3B0E0E5E3F0E08081482F8A8153
:101A7000282F30E081E090E0022E02C0880F991FED
:101A80000A94E2F7809584238C931BC0A2E3B0E014
:101A9000E2E3F0E08081482F8A81282F30E081E066
:101AA00090E0022E02C0880F991F0A94E2F78095F9
:101AB00084238C9306C09FEF9E8304C02FEF2E8358
:101AC00001C01E828E8128960FB6F894DEBF0FBE2D
:101AD000CDBFCF91DF910895DF93CF9300D000D099
:101AE0000F92CDB7DEB78A836B838A81282F30E0CF
:101AF0003D832C834C815D814230510541F18C81C5
:101B00009D818330910534F42C813D812130310554
:101B100061F053C04C815D814330510551F18C819E
:101B20009D8184309105B9F148C0E9E3F0E08081FE
:101B3000282F30E08B81882F90E0A90102C05595B5
:101B400047958A95E2F7CA018170898338C0E6E338
:101B5000F0E08081282F30E08B81882F90E0A90170
:101B600002C0559547958A95E2F7CA01817089832D
:101B700026C0E3E3F0E08081282F30E08B81882FBE
:101B800090E0A90102C0559547958A95E2F7CA01F0
:101B90008170898314C0E0E3F0E08081282F30E079
:101BA0008B81882F90E0A90102C0559547958A95B1
:101BB000E2F7CA018170898302C08FEF898389812E
:101BC0000F900F900F900F900F90CF91DF9108958D
:101BD000DF93CF93CDB7DEB728970FB6F894DEBF6B
:101BE0000FBECDBF89836A834B838B81813009F01F
:101BF00073C08981282F30E038872F838F819885A3
:101C00008230910551F12F8138852330310534F42C
:101C10008F8198858130910561F05BC02F81388577
:101C20002330310571F18F81988584309105E9F178
:101C300050C0AAE3B0E0EAE3F0E08081482F8A8157
:101C4000282F30E081E090E0022E02C0880F991F1B
:101C50000A94E2F7842B8C93BEC0A7E3B0E0E7E3DD
:101C6000F0E08081482F8A81282F30E081E090E0E9
:101C7000022E02C0880F991F0A94E2F7842B8C93DE
:101C8000AAC0A4E3B0E0E4E3F0E08081482F8A81B9
:101C9000282F30E081E090E0022E02C0880F991FCB
:101CA0000A94E2F7842B8C9396C0A1E3B0E0E1E3C1
:101CB000F0E08081482F8A81282F30E081E090E099
:101CC000022E02C0880F991F0A94E2F7842B8C938E
:101CD00082C09FEF9E8380C08B81882309F078C0EB
:101CE0008981282F30E03D832C838C819D81823037
:101CF000910561F12C813D812330310534F48C81D3
:101D00009D818130910569F060C02C813D81233037
:101D1000310589F18C819D818430910509F440C0A1
:101D200054C0AAE3B0E0EAE3F0E08081482F8A8162
:101D3000282F30E081E090E0022E02C0880F991F2A
:101D40000A94E2F7809584238C9345C0A7E3B0E022
:101D5000E7E3F0E08081482F8A81282F30E081E09E
:101D600090E0022E02C0880F991F0A94E2F7809536
:101D700084238C9330C0A4E3B0E0E4E3F0E08081FE
:101D8000482F8A81282F30E081E090E0022E02C0A7
:101D9000880F991F0A94E2F7809584238C931BC0C7
:101DA000A1E3B0E0E1E3F0E08081482F8A81282FB1
:101DB00030E081E090E0022E02C0880F991F0A9463
:101DC000E2F7809584238C9306C09FEF9E8304C026
:101DD0002FEF2E8301C01E828E8128960FB6F894B5
:101DE000DEBF0FBECDBFCF91DF910895DF93CF93BC
:101DF00000D000D00F92CDB7DEB789836A83898186
:101E0000282F30E03D832C838C819D818230910589
:101E1000D9F02C813D812330310534F48C819D81B2
:101E20008130910561F01FC02C813D812330310547
:101E300081F08C819D818430910581F014C0EBE3A9
:101E4000F0E08A81808312C0E8E3F0E08A81808339
:101E50000DC0E5E3F0E08A81808308C0E2E3F0E0B2
:101E60008A81808303C09FEF9B8301C01B828B818B
:101E70000F900F900F900F900F90CF91DF910895DA
:101E8000DF93CF9300D000D00F92CDB7DEB7898318
:101E90006A838981282F30E03D832C838C819D814A
:101EA00082309105D9F02C813D812330310534F405
:101EB0008C819D818130910561F01FC02C813D8115
:101EC0002330310581F08C819D818430910581F032
:101ED00014C0EAE3F0E08A81808312C0E7E3F0E017
:101EE0008A8180830DC0E4E3F0E08A81808308C0AA
:101EF000E1E3F0E08A81808303C09FEF9B8301C010
:101F00001B828B810F900F900F900F900F90CF91AD
:101F1000DF910895DF93CF9300D0CDB7DEB71A825B
:101F200019828A8180648A83E7E2F0E08A81808373
:101F3000898183608983898180688983E6E2F0E012
:101F4000898180830F900F90CF91DF910895DF9367
:101F5000CF930F92CDB7DEB78983A7E2B0E0E7E277
:101F6000F0E08081807E8C93A7E2B0E0E7E2F0E0D1
:101F700090818981892B8C93A6E2B0E0E6E2F0E0C3
:101F8000808180648C93E6E2F0E0808182958F709E
:101F9000882F90E0817090700097A9F3A6E2B0E0DE
:101FA000E6E2F0E0808180618C93E4E2F0E0808101
:101FB00091810F90CF91DF910895DF93CF9300D05F
:101FC000CDB7DEB71A8219821AC089819A81880F2B
:101FD000991FFC01E859FF4F208189819A81880F60
:101FE000991FFC01E759FF4F9081822F692F41E033
:101FF0000E94E80D89819A8101969A83898389815B
:102000009A818430910508F30F900F90CF91DF9162
:102010000895DF93CF930F92CDB7DEB78091B400D0
:102020008F5F8093B400198230C08981882F90E03F
:10203000880F991FFC01E859FF4F40818981882F43
:1020400090E0880F991FFC01E759FF4F5081809164
:10205000B400882F90E0FC01E657FF4F8081282FC5
:1020600030E08981882F90E0B90102C075956795AD
:102070008A95E2F7CB01982F9170842F652F492F15
:102080000E945E0C89818F5F89838981843068F228
:102090008091B400883010F01092B4000F90CF916E
:1020A000DF910895DF93CF930F92CDB7DEB7809184
:1020B000B40081508093B400198230C08981882F88
:1020C00090E0880F991FFC01E859FF4F40818981FA
:1020D000882F90E0880F991FFC01E759FF4F50812E
:1020E0008091B400882F90E0FC01E657FF4F80817B
:1020F000282F30E08981882F90E0B90102C07595C2
:1021000067958A95E2F7CB01982F9170842F652F00
:10211000492F0E945E0C89818F5F89838981843079
:1021200068F28091B400883018F087E08093B400A2
:102130000F90CF91DF910895DF93CF93CDB7DEB7A6
:1021400082E06FEF0E94400F82E060E00E94F60E96
:10215000CF91DF910895DF93CF9300D0CDB7DEB755
:1021600089836A838981882F90E0009759F48A8156
:10217000882F90E0FC01EE56FF4F908182E0692F9E
:102180000E94F60E0F900F90CF91DF910895DF938C
:10219000CF930F92CDB7DEB789838981882F90E0E6
:1021A000009721F482E060E00E94F60E0F90CF913C
:1021B000DF910895DF93CF93CDB7DEB784E065E07C
:1021C00041E00E94E80D84E064E041E00E94E80DF7
:1021D00080E29EE40E945807CF91DF910895DF933B
:1021E000CF93CDB7DEB728970FB6F894DEBF0FBEFA
:1021F000CDBF8D836E838E81992787FD9095865AFA
:102200009F4FAA2797FDA095BA2F89839A83AB8306
:10221000BC8389819A81AB81BC8128EE33E040E0A8
:1022200050E0BC01CD010E94721BDC01CB0124EB0C
:1022300030E040E050E0BC01CD010E94911BDA018A
:10224000C90189839A83AB83BC838D81282F30E0B9
:1022500038872F838F819885009731F02F813885BB
:102260002130310559F013C089819A819C01285190
:102270003C4F80E0B9010E94BB0709C089819A8167
:102280009C0128513C4F81E0B9010E94BB07289670
:102290000FB6F894DEBF0FBECDBFCF91DF9108958A
:1022A000DF93CF93CDB7DEB783E061E041E00E94DA
:1022B000E80D83E060E041E00E94E80D0E9480129A
:1022C000CF91DF910895DF93CF93CDB7DEB76F97AE
:1022D0000FB6F894DEBF0FBECDBF8D8F8D8D282F2A
:1022E00030E03F8F2E8F8E8D9F8D009739F02E8D91
:1022F0003F8D2130310509F47EC0F9C083E061E0F3
:1023000040E00E945E0C80E090E0A0E8BFE3898F8F
:102310009A8FAB8FBC8F698D7A8D8B8D9C8D20E0D1
:1023200030E04AE753E40E941F02DC01CB018D8BB1
:102330009E8BAF8BB88F6D897E898F89988D20E0B9
:1023400030E040E85FE30E94250488232CF481E01C
:1023500090E09C8B8B8B3FC06D897E898F89988D97
:1023600020E03FEF4FE757E40E94C50318164CF5F5
:10237000698D7A8D8B8D9C8D20E030E040E251E4B8
:102380000E941F02DC01CB01BC01CD010E9449006B
:10239000DC01CB019C8B8B8B0FC089E190E09A8B89
:1023A000898B89899A890197F1F79A8B898B8B8917
:1023B0009C8901979C8B8B8B8B899C89009769F7F3
:1023C00014C06D897E898F89988D0E944900DC0137
:1023D000CB019C8B8B8B8B899C89988B8F878F856E
:1023E00098890197F1F7988B8F8783E060E041E04F
:1023F0000E945E0C7CC083E060E040E00E945E0CC6
:1024000080E090E0A0E8BFE38B879C87AD87BE8724
:102410006B857C858D859E8520E030E04AE753E41E
:102420000E941F02DC01CB018F839887A987BA879E
:102430006F81788589859A8520E030E040E85FE308
:102440000E94250488232CF481E090E09E838D83F4
:102450003FC06F81788589859A8520E03FEF4FE7FF
:1024600057E40E94C50318164CF56B857C858D8555
:102470009E8520E030E040E251E40E941F02DC0132
:10248000CB01BC01CD010E944900DC01CB019E8340
:102490008D830FC089E190E09C838B838B819C812D
:1024A0000197F1F79C838B838D819E8101979E8399
:1024B0008D838D819E81009769F714C06F81788527
:1024C00089859A850E944900DC01CB019E838D831A
:1024D0008D819E819A83898389819A810197F1F701
:1024E0009A83898383E061E041E00E945E0C6F96ED
:1024F0000FB6F894DEBF0FBECDBFCF91DF91089528
:10250000DF93CF93CDB7DEB783E061E040E00E9478
:102510005E0C83E060E040E00E945E0CCF91DF91B2
:102520000895DF93CF930F92CDB7DEB719821AC00B
:102530008981882F90E0880F991FFC01E059FF4F97
:1025400020818981882F90E0880F991FFC01EF5826
:10255000FF4F9081822F692F41E00E94E80D898111
:102560008F5F89838981853018F30F90CF91DF9138
:102570000895DF93CF930F92CDB7DEB7898389811A
:102580008530B8F48981882F90E0880F991FFC016D
:10259000E059FF4F20818981882F90E0880F991F93
:1025A000FC01EF58FF4F9081822F692F41E00E947C
:1025B0005E0C0F90CF91DF910895DF93CF930F9230
:1025C000CDB7DEB7898389818530B8F48981882FBA
:1025D00090E0880F991FFC01E059FF4F208189810D
:1025E000882F90E0880F991FFC01EF58FF4F9081D2
:1025F000822F692F40E00E945E0C0F90CF91DF91F7
:1026000008950F931F93DF93CF93CDB7DEB7C654D2
:10261000D0400FB6F894DEBF0FBECDBF81E062E0C0
:1026200041E00E94E80D81E063E041E00E94E80D96
:1026300081E064E041E00E94E80D82E060E041E07A
:102640000E94E80D82E061E041E00E94E80D82E036
:1026500062E041E00E94E80D82E063E041E00E9418
:10266000E80D82E064E041E00E94E80D82E065E070
:1026700041E00E94E80D82E066E041E00E94E80D42
:1026800082E067E041E00E94E80DFE01ED5BFF4F54
:1026900080E090E0A0EFB1E480839183A283B383D4
:1026A0008E01015C1F4FFE01ED5BFF4F6081718168
:1026B0008281938120E030E04AE753E40E941F02C8
:1026C000DC01CB01F80180839183A283B383FE01F7
:1026D000FF96608171818281938120E030E040E843
:1026E0005FE30E94250488232CF481E090E09EAFF4
:1026F0008DAF46C0FE01FF9660817181828193811A
:1027000020E03FEF4FE757E40E94C503181664F539
:10271000FE01ED5BFF4F608171818281938120E03A
:1027200030E040E251E40E941F02DC01CB01BC0119
:10273000CD010E944900DC01CB019EAF8DAF0FC0DF
:1027400089E190E09CAF8BAF8BAD9CAD0197F1F729
:102750009CAF8BAF8DAD9EAD01979EAF8DAF8DAD14
:102760009EAD009769F716C0FE01FF9660817181EA
:10277000828193810E944900DC01CB019EAF8DAF25
:102780008DAD9EAD9AAF89AF89AD9AAD0197F1F746
:102790009AAF89AF83E30E94B01582E30E94B0151F
:1027A00088E30E94B01580E090E0A0E8BFE38DAB25
:1027B0009EABAFABB8AF6DA97EA98FA998AD20E055
:1027C00030E04AE753E40E941F02DC01CB0189ABF1
:1027D0009AABABABBCAB69A97AA98BA99CA920E049
:1027E00030E040E85FE30E94250488232CF481E078
:1027F00090E098AB8FA73FC069A97AA98BA99CA943
:1028000020E03FEF4FE757E40E94C50318164CF550
:102810006DA97EA98FA998AD20E030E040E251E497
:102820000E941F02DC01CB01BC01CD010E944900C6
:10283000DC01CB0198AB8FA70FC089E190E09EA788
:102840008DA78DA59EA50197F1F79EA78DA78FA5B2
:1028500098A9019798AB8FA78FA598A9009769F7BA
:1028600014C069A97AA98BA99CA90E944900DC011E
:10287000CB0198AB8FA78FA598A99CA78BA78BA5F9
:102880009CA50197F1F79CA78BA78CE00E94B0153F
:1028900080E090E0A0E8BFE38FA398A7A9A7BAA71C
:1028A0006FA178A589A59AA520E030E04AE753E416
:1028B0000E941F02DC01CB018BA39CA3ADA3BEA38E
:1028C0006BA17CA18DA19EA120E030E040E85FE3F8
:1028D0000E94250488232CF481E090E09AA389A328
:1028E0003FC06BA17CA18DA19EA120E03FEF4FE7EF
:1028F00057E40E94C50318164CF56FA178A589A569
:102900009AA520E030E040E251E40E941F02DC0181
:10291000CB01BC01CD010E944900DC01CB019AA38F
:1029200089A30FC089E190E098A38F8F8F8D98A124
:102930000197F1F798A38F8F89A19AA101979AA384
:1029400089A389A19AA1009769F714C06BA17CA102
:102950008DA19EA10E944900DC01CB019AA389A30D
:1029600089A19AA19E8F8D8F8D8D9E8D0197F1F7F4
:102970009E8F8D8F81E00E94B01580E090E0A0EAEC
:10298000B0E4898F9A8FAB8FBC8F698D7A8D8B8DD8
:102990009C8D20E030E04AE753E40E941F02DC01F6
:1029A000CB018D8B9E8BAF8BB88F6D897E898F8984
:1029B000988D20E030E040E85FE30E942504882302
:1029C0002CF481E090E09C8B8B8B3FC06D897E89DD
:1029D0008F89988D20E03FEF4FE757E40E94C503B1
:1029E00018164CF5698D7A8D8B8D9C8D20E030E02A
:1029F00040E251E40E941F02DC01CB01BC01CD0189
:102A00000E944900DC01CB019C8B8B8B0FC089E1BC
:102A100090E09A8B898B89899A890197F1F79A8B33
:102A2000898B8B899C8901979C8B8B8B8B899C894B
:102A3000009769F714C06D897E898F89988D0E94EF
:102A40004900DC01CB019C8B8B8B8B899C89988BFB
:102A50008F878F8598890197F1F7988B8F8786E00C
:102A60000E94B01580E090E0A0E0B0E48B879C87E6
:102A7000AD87BE876B857C858D859E8520E030E0A7
:102A80004AE753E40E941F02DC01CB018F83988741
:102A9000A987BA876F81788589859A8520E030E09B
:102AA00040E85FE30E94250488232CF481E090E055
:102AB0009E838D833FC06F81788589859A8520E0CC
:102AC0003FEF4FE757E40E94C50318164CF56B859E
:102AD0007C858D859E8520E030E040E251E40E94B7
:102AE0001F02DC01CB01BC01CD010E944900DC01C9
:102AF000CB019E838D830FC089E190E09C838B8303
:102B00008B819C810197F1F79C838B838D819E81C2
:102B100001979E838D838D819E81009769F714C0F4
:102B20006F81788589859A850E944900DC01CB01F7
:102B30009E838D838D819E819A83898389819A81E9
:102B40000197F1F79A838983CA5BDF4F0FB6F89438
:102B5000DEBF0FBECDBFCF91DF911F910F910895C2
:102B6000DF93CF93CDB7DEB7E1970FB6F894DEBF12
:102B70000FBECDBF89AB82E069A90E94F60E81E04D
:102B800062E040E00E945E0C81E063E040E00E9471
:102B90005E0C81E064E041E00E945E0C80E090E029
:102BA000A0E8BFE38DA79EA7AFA7B8AB6DA57EA594
:102BB0008FA598A92BEA3AEA4AEA5EE30E941F022F
:102BC000DC01CB0189A79AA7ABA7BCA769A57AA509
:102BD0008BA59CA520E030E040E85FE30E9425043F
:102BE00088231CF481E088A791C069A57AA58BA5EC
:102BF0009CA520E030E04FE753E40E94C50318167F
:102C00000CF07BC06DA57EA58FA598A920E030E0D3
:102C10004AE754E40E941903DC01CB018CA39DA375
:102C2000AEA3BFA36CA17DA18EA19FA120E030E047
:102C30004AE753E40E941F02DC01CB0188A399A359
:102C4000AAA3BBA368A179A18AA19BA120E030E03F
:102C500040E85FE30E94250488232CF481E090E0A3
:102C60009F8F8E8F3FC068A179A18AA19BA120E090
:102C70003FEF4FE757E40E94C50318164CF56CA1CF
:102C80007DA18EA19FA120E030E040E251E40E94AE
:102C90001F02DC01CB01BC01CD010E944900DC0117
:102CA000CB019F8F8E8F0FC089E190E09D8F8C8F1D
:102CB0008C8D9D8D0197F1F79D8F8C8F8E8D9F8DC3
:102CC00001979F8F8E8F8E8D9F8D009769F724C0FF
:102CD00068A179A18AA19BA10E944900DC01CB01D6
:102CE0009F8F8E8F8E8D9F8D9B8F8A8F8A8D9B8DD0
:102CF0000197F1F79B8F8A8F0FC069A57AA58BA5E5
:102D00009CA50E944900DC01CB0188A788A5898F7A
:102D1000898D8A95F1F7898F81E064E040E00E9417
:102D20005E0C80E090E0A8ECB2E48D8B9E8BAF8BC4
:102D3000B88F6D897E898F89988D2BEA3AEA4AEAA5
:102D40005EE30E941F02DC01CB01898B9A8BAB8B67
:102D5000BC8B69897A898B899C8920E030E040E8C6
:102D60005FE30E94250488231CF481E0888B91C0D6
:102D700069897A898B899C8920E030E04FE753E4A8
:102D80000E94C50318160CF07BC06D897E898F895F
:102D9000988D20E030E04AE754E40E941903DC01FA
:102DA000CB018C879D87AE87BF876C857D858E859F
:102DB0009F8520E030E04AE753E40E941F02DC01D7
:102DC000CB0188879987AA87BB87688579858A859B
:102DD0009B8520E030E040E85FE30E9425048823E3
:102DE0002CF481E090E09F838E833FC068857985D5
:102DF0008A859B8520E03FEF4FE757E40E94C5039B
:102E000018164CF56C857D858E859F8520E030E019
:102E100040E251E40E941F02DC01CB01BC01CD0164
:102E20000E944900DC01CB019F838E830FC089E1A2
:102E300090E09D838C838C819D810197F1F79D8328
:102E40008C838E819F8101979F838E838E819F814A
:102E5000009769F724C0688579858A859B850E94DB
:102E60004900DC01CB019F838E838E819F819B83F0
:102E70008A838A819B810197F1F79B838A830FC0A4
:102E800069897A898B899C890E944900DC01CB0180
:102E9000888B8889898389818A95F1F78983E1966E
:102EA0000FB6F894DEBF0FBECDBFCF91DF9108956E
:102EB000DF93CF93CDB7DEB7E1970FB6F894DEBFBF
:102EC0000FBECDBF89AB82E069A90E94F60E81E0FA
:102ED00062E041E00E945E0C81E063E040E00E941D
:102EE0005E0C81E064E041E00E945E0C80E090E0D6
:102EF000A0E8BFE38DA79EA7AFA7B8AB6DA57EA541
:102F00008FA598A92BEA3AEA4AEA5EE30E941F02DB
:102F1000DC01CB0189A79AA7ABA7BCA769A57AA5B5
:102F20008BA59CA520E030E040E85FE30E942504EB
:102F300088231CF481E088A791C069A57AA58BA598
:102F40009CA520E030E04FE753E40E94C50318162B
:102F50000CF07BC06DA57EA58FA598A920E030E080
:102F60004AE754E40E941903DC01CB018CA39DA322
:102F7000AEA3BFA36CA17DA18EA19FA120E030E0F4
:102F80004AE753E40E941F02DC01CB0188A399A306
:102F9000AAA3BBA368A179A18AA19BA120E030E0EC
:102FA00040E85FE30E94250488232CF481E090E050
:102FB0009F8F8E8F3FC068A179A18AA19BA120E03D
:102FC0003FEF4FE757E40E94C50318164CF56CA17C
:102FD0007DA18EA19FA120E030E040E251E40E945B
:102FE0001F02DC01CB01BC01CD010E944900DC01C4
:102FF000CB019F8F8E8F0FC089E190E09D8F8C8FCA
:103000008C8D9D8D0197F1F79D8F8C8F8E8D9F8D6F
:1030100001979F8F8E8F8E8D9F8D009769F724C0AB
:1030200068A179A18AA19BA10E944900DC01CB0182
:103030009F8F8E8F8E8D9F8D9B8F8A8F8A8D9B8D7C
:103040000197F1F79B8F8A8F0FC069A57AA58BA591
:103050009CA50E944900DC01CB0188A788A5898F27
:10306000898D8A95F1F7898F81E064E040E00E94C4
:103070005E0C80E090E0A8ECB2E48D8B9E8BAF8B71
:10308000B88F6D897E898F89988D2BEA3AEA4AEA52
:103090005EE30E941F02DC01CB01898B9A8BAB8B14
:1030A000BC8B69897A898B899C8920E030E040E873
:1030B0005FE30E94250488231CF481E0888B91C083
:1030C00069897A898B899C8920E030E04FE753E455
:1030D0000E94C50318160CF07BC06D897E898F890C
:1030E000988D20E030E04AE754E40E941903DC01A7
:1030F000CB018C879D87AE87BF876C857D858E854C
:103100009F8520E030E04AE753E40E941F02DC0183
:10311000CB0188879987AA87BB87688579858A8547
:103120009B8520E030E040E85FE30E94250488238F
:103130002CF481E090E09F838E833FC06885798581
:103140008A859B8520E03FEF4FE757E40E94C50347
:1031500018164CF56C857D858E859F8520E030E0C6
:1031600040E251E40E941F02DC01CB01BC01CD0111
:103170000E944900DC01CB019F838E830FC089E14F
:1031800090E09D838C838C819D810197F1F79D83D5
:103190008C838E819F8101979F838E838E819F81F7
:1031A000009769F724C0688579858A859B850E9488
:1031B0004900DC01CB019F838E838E819F819B839D
:1031C0008A838A819B810197F1F79B838A830FC051
:1031D00069897A898B899C890E944900DC01CB012D
:1031E000888B8889898389818A95F1F78983E1961B
:1031F0000FB6F894DEBF0FBECDBFCF91DF9108951B
:10320000DF93CF9300D0CDB7DEB79A8389830AC00E
:10321000E981FA8180810E94581789819A810196FB
:103220009A838983E981FA818081882389F70F90C5
:103230000F90CF91DF910895DF93CF9300D000D00E
:103240000F92CDB7DEB78A836B838A81282F30E057
:103250003D832C838C819D8181309105C1F02C812F
:103260003D81223031052CF48C819D81009761F0E5
:1032700019C02C813D812230310569F08C819D81FE
:103280008330910561F00EC08B8189830BC08B81E7
:10329000805C898307C08B81805F898303C08B81B9
:1032A000805B8983898180680E94B0150F900F90A0
:1032B0000F900F900F90CF91DF910895DF93CF93F0
:1032C00000D0CDB7DEB71A8231C08A81882F90E056
:1032D000880F991FFC01E456FF4F20818A81882FB7
:1032E00090E0880F991FFC01E356FF4F9081822FD9
:1032F000692F41E00E94E80D8A81882F90E0880FB5
:10330000991FFC01E456FF4F20818A81882F90E0AD
:10331000880F991FFC01E356FF4F9081822F692F80
:1033200041E00E945E0C8A818F5F8A838A818430AB
:1033300060F2198231C08981882F90E0880F991F2F
:10334000FC01EC55FF4F20818981882F90E0880F88
:10335000991FFC01EB55FF4F9081822F692F40E0B0
:103360000E94E80D8981882F90E0880F991FFC0149
:10337000EC55FF4F20818981882F90E0880F991F9D
:10338000FC01EB55FF4F9081822F692F41E00E9495
:103390005E0C89818F5F89838981843060F20F9010
:1033A0000F90CF91DF910895DF93CF9300D000D09D
:1033B0000F92CDB7DEB71C821B8279C08B819C81B6
:1033C000880F991FFC01E456FF4F20818B819C815F
:1033D000880F991FFC01E356FF4F9081822F692FC0
:1033E00040E00E945E0C1A82198241C089819A8154
:1033F000880F991FFC01EC55FF4F208189819A812C
:10340000880F991FFC01EB55FF4F9081822F692F88
:103410000E946C0D882331F589819A81880F991F4C
:10342000FC01EC55FF4F208189819A81880F991FFB
:10343000FC01EB55FF4F9081822F692F0E946C0D8C
:10344000882351F38B819C8129813A81880F991FB0
:10345000880F991F820F931FFC01E658FF4F808150
:103460008D832DC089819A8101969A838983898170
:103470009A818430910508F4B9CF8B819C81880FA3
:10348000991FFC01E456FF4F20818B819C81880F9E
:10349000991FFC01E356FF4F9081822F692F41E075
:1034A0000E945E0C8B819C8101969C838B838B8117
:1034B0009C818430910508F481CF8FEF8D838D81BD
:1034C0000F900F900F900F900F90CF91DF91089574
:1034D000DF93CF93CDB7DEB784E062E040E00E9497
:1034E000E80D81E063E00E94C50A28EC3AE181E042
:1034F000B9010E949D0B81E00E942D0B0E944F0696
:103500000E944D07CF91DF910895DF93CF93CDB700
:10351000DEB78091B5009091B600CF91DF9108950C
:10352000DF93CF93CDB7DEB78091B7009091B8000D
:10353000CF91DF910895EF92FF920F931F93DF9346
:10354000CF93CDB7DEB78091B5009091B600CC0196
:10355000A0E0B0E024E630E040E050E0BC01CD0166
:103560000E94721B7B018C018091B7009091B80082
:103570009C0140E050E0C801B7010E94911BDA01B4
:10358000C901CF91DF911F910F91FF90EF900895A6
:10359000DF93CF9300D0CDB7DEB78091B900282F4D
:1035A00030E03A83298389819A818130910599F0AD
:1035B00029813A8122303105E1F089819A81009791
:1035C00021F50E944D0781E062E00E94C50A81E07A
:1035D0008093B9001AC081E063E00E94C50A0E948E
:1035E00042079093B6008093B50082E08093B900C3
:1035F0000CC081E063E00E94C50A0E9442079093DC
:10360000B8008093B7001092B9000F900F90CF913F
:10361000DF910895DF93CF93CDB7DEB781E063E00C
:1036200040E00E94E80D81E063E041E00E945E0C12
:10363000CF91DF910895DF93CF9300D00F92CDB754
:10364000DEB789838981882F90E08130910569F404
:1036500081E063E00E946C0D8B838B81882311F0E5
:1036600081E08B838B818A8302C08FEF8A838A817A
:103670000F900F900F90CF91DF910895DF93CF932C
:103680000F92CDB7DEB789838981882F90E0813092
:10369000910531F481E063E00E946C0D8130D1F33B
:1036A0000F90CF91DF910895DF93CF93CDB7DEB721
:1036B00083E060E040E00E94E80D83E061E040E0EC
:1036C0000E94E80D80E197E20E946A090E94BC090D
:1036D00081E160E00E94D30980E10E94FA090E9422
:1036E000180AFFCF629FD001739FF001829FE00D07
:1036F000F11D649FE00DF11D929FF00D839FF00D71
:10370000749FF00D659FF00D9927729FB00DE11D1C
:10371000F91F639FB00DE11DF91FBD01CF011124F9
:103720000895A1E21A2EAA1BBB1BFD010DC0AA1F02
:10373000BB1FEE1FFF1FA217B307E407F50720F01A
:10374000A21BB30BE40BF50B661F771F881F991F95
:103750001A9469F760957095809590959B01AC01DE
:10376000BD01CF0108952F923F924F925F926F92C9
:103770007F928F929F92AF92BF92CF92DF92EF9201
:10378000FF920F931F93CF93DF93CDB7DEB7CA1B82
:10379000DB0B0FB6F894DEBF0FBECDBF09942A88AD
:1037A000398848885F846E847D848C849B84AA8455
:1037B000B984C884DF80EE80FD800C811B81AA81E2
:1037C000B981CE0FD11D0FB6F894DEBF0FBECDBFAD
:0837D000ED010895F894FFCF0C
:1037D80000000000000000000300030103020303CF
:1037E800030003010302030303043734314338356C
:1037F80032303936333D2F2A2D2B01030206040CB3
:1038080008093F065B4F666D7D077F6F030403055C
:0C3818000306030703000301030203037F
:00000001FF
