:100000000C942A000C9406100C9433100C9460107D
:100010000C9447000C9447000C94680A0C94470019
:100020000C9447000C9447000C94600C0C94F80B53
:100030000C94600D0C948C090C9447000C944700B0
:100040000C9447000C9447000C9447000C94470014
:100050000C94470011241FBECFE5D8E0DEBFCDBF12
:1000600011E0A0E6B0E0EEE9FEE402C005900D92DA
:10007000A237B107D9F711E0A2E7B1E001C01D92A4
:10008000A53BB107E1F70E946C1F0C944D270C941F
:100090000000EF92FF920F931F937B018C0120E0F1
:1000A00030E040E05FE40E94490388238CF0C801FF
:1000B000B70120E030E040E05FE40E94C1010E940F
:1000C000A9039B01AC01205030404040504806C07D
:1000D000C801B7010E94A9039B01AC01B901CA0183
:1000E0001F910F91FF90EF900895A0E0B0E0EBE733
:1000F000F0E00C94C826DC012B01FA019C919230AF
:1001000008F439C1EB018881823008F433C194309E
:1001100069F4843009F02FC111969C91119789815F
:10012000981709F428C1AEE2B1E025C1843009F482
:1001300021C18230A9F4923009F01DC19A01AD01AC
:1001400088E0EA010990AE01E90109929E0181501F
:10015000C1F7E201898111969C918923818308C1AD
:10016000923009F407C112962D903C901397EB0141
:100170008A819B811496AD90BD90CD90DC901797AD
:10018000EC80FD800E811F819101281B390BB90184
:1001900037FF04C066277727621B730B6032710537
:1001A0000CF061C0121613066CF537014801062EDB
:1001B00004C096948794779467940A94D2F721E0C8
:1001C00030E040E050E004C0220F331F441F551FB1
:1001D0006A95D2F721503040404050402E213F21B7
:1001E00040235123211531054105510521F021E01E
:1001F00030E040E050E079018A01E628F72808293C
:1002000019293CC0232BD1F1260E371E350146019A
:10021000062E04C096948794779467940A94D2F734
:1002200021E030E040E050E004C0220F331F441FC3
:10023000551F6A95D2F721503040404050402A2146
:100240003B214C215D21211531054105510521F04E
:1002500021E030E040E050E059016A01A628B728CB
:10026000C828D9280BC0821593052CF01C01AA249C
:10027000BB24650103C0EE24FF24870111969C91E5
:10028000D20111968C91981709F445C0992339F041
:10029000A80197012A193B094C095D0906C0A6016E
:1002A00095012E193F09400B510B57FD08C01182D3
:1002B0003382228224833583468357831DC081E0A5
:1002C00081833382228288279927DC01821B930B4A
:1002D000A40BB50B84839583A683B7830DC0220F2F
:1002E000331F441F551F24833583468357838281E0
:1002F000938101979383828324813581468157813D
:10030000DA01C9010197A109B1098F5F9F4FAF4F72
:10031000BF4328F30BC0918333822282EA0CFB1C7B
:100320000C1D1D1DE482F5820683178383E0808304
:10033000248135814681578157FF1AC0C901AA27F8
:1003400097FDA095BA2F81709070A070B0705695EF
:10035000479537952795822B932BA42BB52B848318
:100360009583A683B7838281938101969383828349
:10037000DF0101C0D201CD01CDB7DEB7E2E10C94BF
:10038000E426A0E2B0E0E7ECF1E00C94D426698327
:100390007A838B839C832D833E834F835887E9E048
:1003A000EE2EF12CEC0EFD1ECE010196B7010E943F
:1003B000D2048E010F5E1F4FCE010596B8010E9438
:1003C000D2048A8991E089278A8BC701B801AE01DE
:1003D000475E5F4F0E9475000E94FD03A096E6E015
:1003E0000C94F026A0E2B0E0E8EFF1E00C94D42603
:1003F00069837A838B839C832D833E834F835887C5
:10040000F9E0EF2EF12CEC0EFD1ECE010196B701A6
:100410000E94D2048E010F5E1F4FCE010596B801D7
:100420000E94D204C701B801AE01475E5F4F0E942F
:1004300075000E94FD03A096E6E00C94F026A0E271
:10044000B0E0E5E2F2E00C94C82669837A838B83FE
:100450009C832D833E834F835887CE010196BE0136
:10046000675F7F4F0E94D204CE010596BE016F5E8A
:100470007F4F0E94D2049985923088F0898982301A
:10048000C8F0943019F4823051F404C0843029F457
:10049000923081F48EE291E0C6C0923049F420E0BF
:1004A0009A858A89981321E02A87CE010996BBC0D4
:1004B000823049F420E09A858A89981321E02A8BBA
:1004C000CE014196B0C02D843E844F8458886D88FB
:1004D0007E888F88988CEE24FF248701AA24BB2471
:1004E000650140E050E060E070E0E0E0F0E0C10174
:1004F00081709070892BE9F0E60CF71C081D191D1E
:100500009A01AB012A0D3B1D4C1D5D1D80E090E062
:10051000A0E0B0E0E614F7040805190520F481E036
:1005200090E0A0E0B0E0BA01A901480F591F6A1F8E
:100530007B1FAA0CBB1CCC1CDD1C97FE08C081E0F5
:1005400090E0A0E0B0E0A82AB92ACA2ADB2A3196B6
:10055000E032F10549F0660C771C881C991C569412
:10056000479437942794C3CFFA85EA892B893C892D
:100570008B859C85280F391F2E5F3F4F17C0CA01FE
:1005800081709070892B61F016950795F794E79428
:1005900080E090E0A0E0B0E8E82AF92A0A2B1B2BC3
:1005A00076956795579547952F5F3F4F77FDE7CF36
:1005B0000CC0440F551F661F771F17FD4160EE0CDE
:1005C000FF1C001F111F21503040403090E05907A0
:1005D00090E0690790E4790760F32B8F3C8FDB0193
:1005E000CA018F779070A070B07080349105A1051A
:1005F000B10561F447FD0AC0E114F10401051105DC
:1006000029F0405C5F4F6F4F7F4F40781A8EFE1786
:1006100011F081E08A8F4D8F5E8F6F8F78A383E01A
:10062000898FCE0149960E94FD03A096E2E10C94C9
:10063000E426A8E1B0E0EFE1F3E00C94D42669836E
:100640007A838B839C832D833E834F83588789E0F5
:10065000E82EF12CEC0EFD1ECE010196B7010E9492
:10066000D2048E010F5E1F4FCE010596B8010E9485
:10067000D2048985823040F08989823028F0C70110
:10068000B8010E944A0501C08FEF6896E6E00C941D
:10069000F026A8E1B0E0EFE4F3E00C94D4266983FF
:1006A0007A838B839C832D833E834F83588789E095
:1006B000E82EF12CEC0EFD1ECE010196B7010E9432
:1006C000D2048E010F5E1F4FCE010596B8010E9425
:1006D000D2048985823040F08989823028F0C701B0
:1006E000B8010E944A0501C08FEF6896E6E00C94BD
:1006F000F026A8E1B0E0EFE7F3E00C94D42669839C
:100700007A838B839C832D833E834F83588789E034
:10071000E82EF12CEC0EFD1ECE010196B7010E94D1
:10072000D2048E010F5E1F4FCE010596B8010E94C4
:10073000D2048985823040F08989823028F0C7014F
:10074000B8010E944A0501C081E06896E6E00C9479
:10075000F026ACE0B0E0EFEAF3E00C94D826698331
:100760007A838B839C83CE010196BE016B5F7F4FA2
:100770000E94D2048D81823061F1823050F1843048
:1007800021F48E81882351F12EC02F81388537FDC9
:1007900020C06E812F3131051CF06623F9F023C093
:1007A0008EE190E0821B930B29853A854B855C8511
:1007B00004C056954795379527958A95D2F76623B5
:1007C000B1F050954095309521953F4F4F4F5F4F79
:1007D0000EC020E030E040E050E009C02FEF3FEFD6
:1007E0004FEF5FE704C020E030E040E050E8B9019F
:1007F000CA012C96E2E00C94F426DF92EF92FF926D
:100800000F931F93FC01E480F58006811781D1804E
:100810008081823048F480E090E0A0E1B0E0E82AF6
:10082000F92A0A2B1B2BA5C0843009F49FC0823003
:1008300021F4EE24FF24870105C0E114F104010531
:10084000110519F4E0E0F0E096C0628173819FEF3A
:10085000623879070CF05BC022E83FEF261B370BAC
:100860002A3131052CF020E030E040E050E02AC091
:10087000B801A701022E04C0769567955795479554
:100880000A94D2F781E090E0A0E0B0E004C0880FC5
:10089000991FAA1FBB1F2A95D2F70197A109B10979
:1008A0008E219F21A023B1230097A105B10521F03E
:1008B00081E090E0A0E0B0E09A01AB01282B392B59
:1008C0004A2B5B2BDA01C9018F779070A070B07052
:1008D00080349105A105B10539F427FF09C0205CDA
:1008E0003F4F4F4F5F4F04C0215C3F4F4F4F5F4F13
:1008F000E0E0F0E02030A0E03A07A0E04A07A0E402
:100900005A0710F0E1E0F0E079018A0127C0603871
:10091000710564F5FB01E158FF4FD801C7018F77DE
:100920009070A070B07080349105A105B10539F4C4
:10093000E7FE0DC080E490E0A0E0B0E004C08FE3EB
:1009400090E0A0E0B0E0E80EF91E0A1F1B1F17FFA1
:1009500005C016950795F794E794319687E01695AC
:100960000795F794E7948A95D1F705C0EE24FF2404
:100970008701EFEFF0E06E2F679566276795902F60
:100980009F77D794DD24D7948E2F8695492F462BB9
:10099000582F5D29B701CA011F910F91FF90EF9069
:1009A000DF900895FC01DB01408151812281622F9B
:1009B0006F7770E0221F2227221F9381892F880FD3
:1009C000822B282F30E0991F9927991F11969C930D
:1009D000119721153105A9F54115510561057105DD
:1009E00011F482E037C082E89FEF13969C938E93B8
:1009F00012979A01AB0167E0220F331F441F551F66
:100A00006A95D1F783E08C930DC0220F331F441FEA
:100A1000551F12968D919C911397019713969C9355
:100A20008E931297203080E0380780E0480780E4FA
:100A3000580758F314962D933D934D935C93179755
:100A400008952F3F310579F4411551056105710570
:100A500019F484E08C93089564FF03C081E08C93C3
:100A600012C01C9210C02F57304013963C932E9307
:100A7000129783E08C9387E0440F551F661F771F02
:100A80008A95D1F7706414964D935D936D937C9322
:100A9000179708951F93DC01FB019C91923008F495
:100AA00047C08081823008F443C0943051F41196DD
:100AB0001C91843099F58181682F70E0611B710968
:100AC0003FC0843021F0923031F48230B9F181811D
:100AD000882389F12DC011961C9111978230F1F075
:100AE00081811817D9F412962D913C911397828128
:100AF00093818217930794F028173907BCF0149656
:100B00008D919D910D90BC91A02D248135814681C0
:100B10005781281739074A075B0718F4112341F05A
:100B20000AC082179307A407B50740F4112319F0F0
:100B300061E070E005C06FEF7FEF02C060E070E041
:100B4000CB011F910895DF93CF9300D000D0CDB794
:100B5000DEB781E08C831B821A821982ABE2B0E09F
:100B6000EBE2F0E080818D7F8C93AAE2B0E0EAE2D4
:100B7000F0E0808188608C93AAE2B0E0EAE2F0E0E5
:100B8000808180618C938B8182608B838B81846078
:100B90008B83AAE2B0E0EAE2F0E080818B7F8C9365
:100BA0008B818F7B8B838B818F7E8B838B818F7DE2
:100BB0008B838B81877F8B838B8180688B83E0E441
:100BC000F0E08B81808383E390E09A83898389813D
:100BD0009A819F779A838983E9E2F0E08981808313
:100BE000E0E4F0E089819A81892F992780831C8233
:100BF0008C810F900F900F900F90CF91DF910895FF
:100C0000DF93CF9300D0CDB7DEB78A8381E08983AD
:100C1000EBE2F0E08081829586958770882F90E0E6
:100C2000817090700097A1F3ECE2F0E08A818083FC
:100C3000198289810F900F90CF91DF910895DF93F2
:100C4000CF9300D00F92CDB7DEB79B838A8381E02C
:100C500089838A819B81009769F0EBE2F0E08081D3
:100C60008823DCF7ECE2F0E08081EA81FB8180837D
:100C7000198202C082E0898389810F900F900F90C2
:100C8000CF91DF910895DF93CF9300D00F92CDB72E
:100C9000DEB79B838A8381E089838A819B81009769
:100CA000F9F017C0EBE2F0E08081829586958770BD
:100CB000882F90E0817090700097A1F3ACE2B0E0D3
:100CC000EA81FB8180818C938A819B8101969B8341
:100CD0008A83EA81FB818081882321F7198202C0FF
:100CE00082E0898389810F900F900F90CF91DF91DF
:100CF0000895DF93CF9300D000D00F92CDB7DEB729
:100D00009D838C8381E08B831A8219828C819D81E3
:100D1000009741F1EBE2F0E080818823DCF7ECE220
:100D2000F0E080818A838A818D3019F08A818A304F
:100D300051F48981282F30E08C819D81FC01E20FE4
:100D4000F31F108211C08981282F30E08C819D8192
:100D5000FC01E20FF31F8A81808389818F5F898381
:100D60001B82D8CF82E08B838B810F900F900F90E6
:100D70000F900F90CF91DF910895DF93CF9300D024
:100D800000D000D0CDB7DEB79E838D8381E08C8309
:100D90001B821A8219828D819E81009779F1EBE284
:100DA000F0E080818823DCF7ECE2F0E08081898349
:100DB000EBE2F0E080818823DCF7ECE2F0E0808178
:100DC0008B839B818981981751F48A81282F30E089
:100DD0008D819E81FC01E20FF31F108211C08A8178
:100DE000282F30E08D819E81FC01E20FF31F8B8163
:100DF00080838A818F5F8A831C82DACF82E08C8332
:100E00008C8126960FB6F894DEBF0FBECDBFCF9172
:100E1000DF910895DF93CF9300D000D0CDB7DEB738
:100E20009A8389837C836B838B819C8190937301EC
:100E300080937201EB81FC818185E981FA81828353
:100E4000EB81FC8181858823A9F4EB81FC812181E0
:100E500032814381548180E291EAA7E0B0E0BC0195
:100E6000CD010E94A626DA01C9018150E981FA81EB
:100E7000808314C0EB81FC812181328143815481C4
:100E800080E492E4AFE0B0E0BC01CD010E94A62670
:100E9000DA01C9018150E981FA818083E981FA810F
:100EA0009789EB81FC818681892BE981FA81878B87
:100EB000EB81FC8185818130B1F4E981FA818789F8
:100EC0008D7FE981FA81878BE981FA8187898B7F20
:100ED000E981FA81878BE981FA8181818B7FE981C0
:100EE000FA8181836BC0EB81FC8185818230B1F412
:100EF000E981FA8187898260E981FA81878BE981BA
:100F0000FA8187898B7FE981FA81878BE981FA8170
:100F100081818B7FE981FA81818350C0EB81FC81E3
:100F200085818330B1F4E981FA8187898D7FE981F8
:100F3000FA81878BE981FA8187898460E981FA8166
:100F4000878BE981FA8181818B7FE981FA818183B5
:100F500035C0EB81FC8185818430B1F4E981FA816F
:100F600087898260E981FA81878BE981FA818789A3
:100F70008460E981FA81878BE981FA8181818B7FA5
:100F8000E981FA8181831AC0EB81FC8185818530FA
:100F9000A9F4E981FA8187898260E981FA81878BE6
:100FA000E981FA8187898460E981FA81878BE98107
:100FB000FA8181818460E981FA818183E981FA8102
:100FC0009789EB81FC818781892BE981FA81878B65
:100FD000E981FA819181EB81FC818085892BE9810E
:100FE000FA818183E981FA819181EB81FC818081A1
:100FF000892BE981FA8181830F900F900F900F90D8
:10100000CF91DF910895DF93CF930F92CDB7DEB7E5
:101010008983EBE2F0E08081829586958770882F46
:1010200090E0817090700097A1F3ECE2F0E089818C
:1010300080830F90CF91DF910895DF93CF93CDB749
:10104000DEB7EBE2F0E080818823DCF7ECE2F0E051
:101050008081CF91DF910895DF93CF9300D000D0AE
:1010600000D0CDB7DEB76B837C838D839E83CE01AA
:1010700003969A838983E981FA8180810E9403081B
:1010800089819A81FC01319680810E9403088981BF
:101090009A81FC01329680810E94030889819A819D
:1010A000FC01339680810E94030826960FB6F894BF
:1010B000DEBF0FBECDBFCF91DF9108950F931F9379
:1010C000DF93CF9300D000D000D0CDB7DEB7CE01F4
:1010D00003969A8389830E941D08E981FA8180839F
:1010E00089819A818C010F5F1F4F0E941D08F801B2
:1010F000808389819A818C010E5F1F4F0E941D0899
:10110000F801808389819A818C010D5F1F4F0E94B5
:101110001D08F80180838B819C81AD81BE81BC015B
:10112000CD0126960FB6F894DEBF0FBECDBFCF918E
:10113000DF911F910F910895DF93CF9300D00F920D
:10114000CDB7DEB79B838A8319820EC08981282F91
:1011500030E08A819B81FC01E20FF31F80810E94B5
:10116000030889818F5F89838981282F30E08A81F4
:101170009B81FC01E20FF31F8081882339F78DE00A
:101180000E9403080F900F900F90CF91DF91089568
:101190000F931F93DF93CF9300D00F92CDB7DEB79D
:1011A0009B838A8319828981282F30E08A819B81E1
:1011B0008C01020F131F0E941D08F80180830FC0CD
:1011C00089818F5F89838981282F30E08A819B8183
:1011D0008C01020F131F0E941D08F8018083898172
:1011E000282F30E08A819B81FC01E20FF31F808170
:1011F0008D3031F78981282F30E08A819B81FC0175
:10120000E20FF31F10820F900F900F90CF91DF919C
:101210001F910F910895DF93CF9300D00F92CDB718
:10122000DEB79A838983EBE2F0E0808188234CF477
:10123000ECE2F0E08081E981FA81808381E08B83B8
:1012400001C01B828B810F900F900F90CF91DF9187
:101250000895DF93CF930F92CDB7DEB78983ECE289
:10126000F0E0898180830F90CF91DF910895DF9323
:10127000CF93CDB7DEB7ECE2F0E08081CF91DF9184
:101280000895DF93CF9300D0CDB7DEB79A838983DB
:1012900080913601813039F4E981FA8180810E94A0
:1012A0002909109236010F900F90CF91DF91089588
:1012B000DF93CF9300D0CDB7DEB79A838983209197
:1012C00074013091750180913701882F90E0F90108
:1012D000E80FF91F80818130A1F0209174013091D5
:1012E000750180913701882F90E0F901E80FF91F0F
:1012F00080810E942909809137018F5F8093370197
:1013000006C081E08093370181E0809336010F9021
:101310000F90CF91DF910895DF93CF930F92CDB7C8
:10132000DEB7ECE2F0E080818983E0917201F09118
:1013300073010284F385E02D898109950F90CF9187
:10134000DF910895DF93CF93CDB7DEB7ECE4F0E003
:1013500011821082AFE4B0E0EFE4F0E080818E7F94
:101360008C93AFE4B0E0EFE4F0E080818D7F8C936C
:10137000AEE4B0E0EEE4F0E08081877F8C93AEE4F1
:10138000B0E0EEE4F0E080818F7E8C93AEE4B0E0DC
:10139000EEE4F0E080818E7F8C93AEE4B0E0EEE48A
:1013A000F0E0808182608C93AEE4B0E0EEE4F0E0A7
:1013B00080818B7F8C93CF91DF910895DF93CF93C2
:1013C000CDB7DEB7ECE4F0E011821082AFE4B0E01C
:1013D000EFE4F0E080818E7F8C93AFE4B0E0EFE447
:1013E000F0E080818D7F8C93AEE4B0E0EEE4F0E03D
:1013F0008081877F8C93AEE4B0E0EEE4F0E0808102
:101400008F7E8C93A9E5B0E0E9E5F0E08081806211
:101410008C93AEE4B0E0EEE4F0E080818E7F8C93BC
:10142000AEE4B0E0EEE4F0E0808182608C93AEE464
:10143000B0E0EEE4F0E080818B7F8C93CF91DF9180
:101440000895DF93CF9300D00F92CDB7DEB7898395
:101450008981282F30E03B832A838A819B810097F2
:1014600069F02A813B812130310579F4AEE4B0E0A6
:10147000EEE4F0E080818F7B8C9307C0AEE4B0E0B7
:10148000EEE4F0E0808180648C930F900F900F90D9
:10149000CF91DF910895DF93CF93CDB7DEB7E6E428
:1014A000F0E080819181CF91DF910895DF93CF9318
:1014B00000D0CDB7DEB79A83898389819A819093D2
:1014C0008D0180938C010F900F90CF91DF91089543
:1014D0001F920F920FB60F9211242F933F934F93A9
:1014E0005F936F937F938F939F93AF93BF93EF938C
:1014F000FF93DF93CF93CDB7DEB7E0918C01F091EE
:101500008D010995CF91DF91FF91EF91BF91AF913F
:101510009F918F917F916F915F914F913F912F910B
:101520000F900FBE0F901F901895DF93CF93CDB7FC
:10153000DEB7ECE4F0E080819181CF91DF910895F6
:10154000DF93CF93CDB7DEB7ECE4F0E011821082E9
:10155000CF91DF910895DF93CF9300D0CDB7DEB761
:101560009A838983ECE4F0E011821082AFE4B0E06A
:10157000EFE4F0E080818E7F8C93AFE4B0E0EFE4A5
:10158000F0E0808182608C93AEE4B0E0EEE4F0E0C5
:10159000808188608C93AEE4B0E0EEE4F0E080817E
:1015A00080618C93AFE4B0E0EFE4F0E080818F7372
:1015B0008C93AFE4B0E0EFE4F0E0808180688C933E
:1015C000AFE4B0E0EFE4F0E080818F7C8C93AFE497
:1015D000B0E0EFE4F0E0808180638C93E6E4F0E03B
:1015E00089819A8191838083AEE4B0E0EEE4F0E0FB
:1015F00080818E7F8C93AEE4B0E0EEE4F0E08081F9
:1016000082608C93AEE4B0E0EEE4F0E080818B7F0A
:101610008C930F900F90CF91DF910895DF93CF932C
:1016200000D000D00F92CDB7DEB789837B836A8369
:101630008981282F30E03D832C838C819D81009708
:1016400031F02C813D812130310541F00DC0EAE4BB
:10165000F0E08A819B819183808306C0E8E4F0E01A
:101660008A819B81918380830F900F900F900F90C0
:101670000F90CF91DF910895DF93CF93CDB7DEB771
:10168000A3E5B0E0E3E5F0E080818F7B8C93A3E5F8
:10169000B0E0E3E5F0E0808188608C93A9E5B0E0FC
:1016A000E9E5F0E0808182608C93CF91DF9108952D
:1016B000DF93CF9300D000D00F92CDB7DEB76A830F
:1016C0007B838C839D838FEF898332C08981282F10
:1016D00030E040E050E08A819B81AC81BD81BC015B
:1016E000CD010E94A626DC01CB010097A105B10522
:1016F000E1F4ECE5F0E0898180838981282F30E0F6
:1017000040E050E08A819B81AC81BD81BC01CD016C
:101710000E94A626DA01C901809394019093950155
:10172000A0939601B093970106C089818150898367
:101730008981882359F6A3E5B0E0E3E5F0E08081F4
:101740008E7F8C93A3E5B0E0E3E5F0E080818260DA
:101750008C93A3E5B0E0E3E5F0E080818B7F8C9390
:101760000F900F900F900F900F90CF91DF910895F1
:10177000DF93CF93CDB7DEB7A3E5B0E0E3E5F0E0CC
:1017800080818E7F8C93A3E5B0E0E3E5F0E080817B
:101790008D7F8C93A3E5B0E0E3E5F0E080818B7F63
:1017A0008C93CF91DF910895DF93CF9300D0CDB785
:1017B000DEB79A83898389819A819093930180937C
:1017C00092010F900F90CF91DF910895DF93CF9307
:1017D00000D0CDB7DEB79A83898389819A819093AF
:1017E0009901809398010F900F90CF91DF91089508
:1017F0001F920F920FB60F9211242F933F934F9386
:101800005F936F937F938F939F93AF93BF93EF9368
:10181000FF93DF93CF93CDB7DEB720917601309160
:1018200077014091780150917901809194019091D4
:101830009501A0919601B0919701281739074A07A1
:101840005B07C1F4E0919201F09193010995109228
:101850007601109277011092780110927901E2E5F9
:10186000F0E080918E0190918F01A0919001B09154
:10187000910180838091760190917701A091780108
:10188000B09179010196A11DB11D809376019093CD
:101890007701A0937801B0937901CF91DF91FF9107
:1018A000EF91BF91AF919F918F917F916F915F91D8
:1018B0004F913F912F910F900FBE0F901F90189551
:1018C0001F920F920FB60F9211242F933F934F93B5
:1018D0005F936F937F938F939F93AF93BF93EF9398
:1018E000FF93DF93CF93CDB7DEB720917A0130918C
:1018F0007B0140917C0150917D01809194019091F8
:101900009501A0919601B0919701281739074A07D0
:101910005B0769F4E0919801F091990109951092A3
:101920007A0110927B0110927C0110927D018091CE
:101930007A0190917B01A0917C01B0917D0101968B
:10194000A11DB11D80937A0190937B01A0937C012E
:10195000B0937D01CF91DF91FF91EF91BF91AF9156
:101960009F918F917F916F915F914F913F912F91B7
:101970000F900FBE0F901F901895DF93CF93CDB7A8
:10198000DEB7ADE2B0E0EDE2F0E0808180618C9303
:10199000ADE2B0E0EDE2F0E080818C7F8C93ADE2CF
:1019A000B0E0EDE2F0E080818C93AEE2B0E0EEE2F8
:1019B000F0E080818E7F8C93AEE2B0E0EEE2F0E06A
:1019C00080818C93ADE2B0E0EDE2F0E08081877F32
:1019D0008C93ADE2B0E0EDE2F0E080818B7F8C9300
:1019E000ADE2B0E0EDE2F0E080818F7D8C93ADE27E
:1019F000B0E0EDE2F0E0808180648C93CF91DF91E4
:101A00000895DF93CF9300D00F92CDB7DEB78983CF
:101A10007B836A838A819B81009779F0EFE2F0E013
:101A200089818083EEE2F0E080818823DCF7EFE2B9
:101A3000F0E08081EA81FB8180830F900F900F900E
:101A4000CF91DF910895DF93CF93CDB7DEB7EEE26C
:101A5000F0E080818823DCF7EFE2F0E08081CF9135
:101A6000DF910895DF93CF93CDB7DEB7ADE2B0E05D
:101A7000EDE2F0E0808180688C93CF91DF91089552
:101A8000DF93CF93CDB7DEB7ADE2B0E0EDE2F0E0AB
:101A900080818F778C93CF91DF910895DF93CF93DF
:101AA00000D0CDB7DEB79A83898389819A819093DC
:101AB0007F0180937E010F900F90CF91DF91089569
:101AC000DF93CF93CDB7DEB780917E0190917F01F8
:101AD000009729F0E0917E01F0917F010995CF9167
:101AE000DF9108950F931F93DF93CF9300D0CDB76D
:101AF000DEB79A838983A6E5B0E0E6E5F0E0808171
:101B000084608C93A1E2B0E0E1E2F0E080818E7F1E
:101B10008C93A1E2B0E0E1E2F0E080818D7F8C93D4
:101B200000E210E089819A81CC01A0E0B0E020EED3
:101B30003EE548EF5FEFBC01CD010E948726DC0146
:101B4000CB0180959095A095B095880F991FAA1FFD
:101B5000BB1FF80180830F900F90CF91DF911F91F1
:101B60000F910895DF93CF93CDB7DEB7A6E5B0E030
:101B7000E6E5F0E0808184608C93E2E2F0E084E2CC
:101B80008083CF91DF910895DF93CF93CDB7DEB7F8
:101B9000A6E5B0E0E6E5F0E08081846A8C93E6E5B6
:101BA000F0E080818823DCF7E1E2F0E08081887F4B
:101BB000CF91DF910895DF93CF93CDB7DEB7A6E540
:101BC000B0E0E6E5F0E080818B7F8C93A6E5B0E0A5
:101BD000E6E5F0E08081846A8C93E6E5F0E08081C0
:101BE0008823DCF7E1E2F0E08081887FCF91DF910C
:101BF0000895DF93CF9300D0CDB7DEB789836A8392
:101C0000E3E2F0E08981882F90E0880F991F982FF8
:101C10008A81892B8083A6E5B0E0E6E5F0E080814B
:101C200084688C93E6E5F0E080818823DCF7E1E2CC
:101C3000F0E08081887F0F900F90CF91DF91089521
:101C4000DF93CF930F92CDB7DEB78983E3E2F0E065
:101C500089818083A6E5B0E0E6E5F0E080818468D4
:101C60008C93E6E5F0E080818823DCF7E1E2F0E0A8
:101C70008081887F0F90CF91DF910895DF93CF937C
:101C8000CDB7DEB7A6E5B0E0E6E5F0E08081846997
:101C90008C93A6E5B0E0E6E5F0E080818F7D8C9343
:101CA000E1E2F0E08081887FCF91DF910895DF93BA
:101CB000CF93CDB7DEB7A6E5B0E0E6E5F0E08081F2
:101CC000846C8C93E6E5F0E080818823DCF7E3E226
:101CD000F0E08081CF91DF910895DF93CF93CDB76E
:101CE000DEB7A6E5B0E0E6E5F0E0808184688C939D
:101CF000E6E5F0E080818823DCF7E3E2F0E0808134
:101D0000CF91DF910895DF93CF93CDB7DEB72897BA
:101D10000FB6F894DEBF0FBECDBF8C837E836D837C
:101D20004F830E94C40D8B838B81883019F08B8187
:101D3000888734C08C8160E00E94F90D8B838B8191
:101D4000883119F08B81888729C01A82198213C0C3
:101D500029813A818D819E81FC01E20FF31F8081F0
:101D60000E94200E8B838B81883269F489819A814D
:101D700001969A8389838F81282F30E089819A8107
:101D8000821793072CF30E943E0EA6E5B0E0E6E52D
:101D9000F0E080818F7D8C938B8188878885289661
:101DA0000FB6F894DEBF0FBECDBFCF91DF9108957F
:101DB000DF93CF93CDB7DEB7AFE5B0E0EFE5F0E06E
:101DC000808180688C93CF91DF910895DF93CF93CA
:101DD000CDB7DEB7AFE5B0E0EFE5F0E080818F771B
:101DE0008C93CF91DF910895DF93CF9300D000D0F3
:101DF000CDB7DEB789836A838981282F30E03C83A1
:101E00002B838B819C8182309105D9F02B813C8181
:101E10002330310569F18B819C818130910509F076
:101E200044C0A5E5B0E0E5E5F0E080818C7F8C93CF
:101E3000A5E5B0E0E5E5F0E090818A81892B8C93FF
:101E400034C0A5E5B0E0E5E5F0E08081837F8C93C8
:101E5000A5E5B0E0E5E5F0E08081282F8A81882FB4
:101E600090E0880F991F880F991F822B8C931DC0BB
:101E7000A4E5B0E0E4E5F0E080818F7B8C93A4E5FD
:101E8000B0E0E4E5F0E08081282F8A81882F90E09F
:101E90008170907000249695879507949695879504
:101EA0000794982F802D822B8C930F900F900F907A
:101EB0000F90CF91DF910895DF93CF9300D00F92D1
:101EC000CDB7DEB789838981282F30E03B832A8311
:101ED0008A819B818230910591F02A813B81233058
:101EE0003105A9F08A819B8181309105B9F4ABE578
:101EF000B0E0EBE5F0E0808180648C930FC0ABE54F
:101F0000B0E0EBE5F0E0808180688C9307C0ABE542
:101F1000B0E0EBE5F0E0808180628C930F900F9051
:101F20000F90CF91DF910895DF93CF9300D00F9260
:101F3000CDB7DEB789838981282F30E03B832A83A0
:101F40008A819B818230910591F02A813B812330E7
:101F50003105A9F08A819B8181309105B9F4ABE507
:101F6000B0E0EBE5F0E080818F7B8C930FC0ABE5B8
:101F7000B0E0EBE5F0E080818F778C9307C0ABE5B4
:101F8000B0E0EBE5F0E080818F7D8C930F900F90B7
:101F90000F90CF91DF910895DF93CF9300D000D0C1
:101FA0000F92CDB7DEB789837B836A838981282F1F
:101FB00030E03D832C838C819D818230910589F0B6
:101FC0002C813D812330310599F08C819D818130B8
:101FD0009105A1F48A819B8190939B0180939A0142
:101FE0000DC08A819B8190939D0180939C0106C0C6
:101FF0008A819B8190939F0180939E010F900F9007
:102000000F900F900F90CF91DF9108951F920F9234
:102010000FB60F9211242F933F934F935F936F93BB
:102020007F938F939F93AF93BF93EF93FF93DF9330
:10203000CF93CDB7DEB7E0919A01F0919B0109955E
:10204000CF91DF91FF91EF91BF91AF919F918F91D0
:102050007F916F915F914F913F912F910F900FBEA4
:102060000F901F9018951F920F920FB60F92112488
:102070002F933F934F935F936F937F938F939F9390
:10208000AF93BF93EF93FF93DF93CF93CDB7DEB7BB
:10209000E0919C01F0919D010995CF91DF91FF9115
:1020A000EF91BF91AF919F918F917F916F915F91D0
:1020B0004F913F912F910F900FBE0F901F90189549
:1020C0001F920F920FB60F9211242F933F934F93AD
:1020D0005F936F937F938F939F93AF93BF93EF9390
:1020E000FF93DF93CF93CDB7DEB7E0919E01F091E0
:1020F0009F010995CF91DF91FF91EF91BF91AF9132
:102100009F918F917F916F915F914F913F912F910F
:102110000F900FBE0F901F901895DF93CF93CDB700
:10212000DEB728970FB6F894DEBF0FBECDBF898308
:102130006A834B838B81813009F071C08981282F9C
:1021400030E038872F838F8198858130910549F160
:102150002F813885223031052CF48F8198850097A6
:1021600061F05BC02F8138852230310571F18F819C
:10217000988583309105E9F150C0ABE3B0E0EBE323
:10218000F0E08081482F8A81282F30E081E090E0C4
:10219000022E02C0880F991F0A94E2F7842B8C93B9
:1021A000BAC0A8E3B0E0E8E3F0E08081482F8A817C
:1021B000282F30E081E090E0022E02C0880F991FA6
:1021C0000A94E2F7842B8C93A6C0A5E3B0E0E5E384
:1021D000F0E08081482F8A81282F30E081E090E074
:1021E000022E02C0880F991F0A94E2F7842B8C9369
:1021F00092C0A2E3B0E0E2E3F0E08081482F8A8160
:10220000282F30E081E090E0022E02C0880F991F55
:102210000A94E2F7842B8C937EC01E827EC08B8151
:10222000882309F076C08981282F30E03D832C83F4
:102230008C819D818130910559F12C813D81223025
:1022400031052CF48C819D81009769F060C02C8150
:102250003D812230310589F18C819D81833091054A
:1022600009F440C054C0ABE3B0E0EBE3F0E08081A0
:10227000482F8A81282F30E081E090E0022E02C0B2
:10228000880F991F0A94E2F7809584238C9343C0AA
:10229000A8E3B0E0E8E3F0E08081482F8A81282FAE
:1022A00030E081E090E0022E02C0880F991F0A946E
:1022B000E2F7809584238C932EC0A5E3B0E0E5E39C
:1022C000F0E08081482F8A81282F30E081E090E083
:1022D000022E02C0880F991F0A94E2F7809584238A
:1022E0008C9319C0A2E3B0E0E2E3F0E08081482FD4
:1022F0008A81282F30E081E090E0022E02C0880F12
:10230000991F0A94E2F7809584238C9304C01E825F
:1023100004C01E8202C091E09E838E8128960FB673
:10232000F894DEBF0FBECDBFCF91DF910895DF934C
:10233000CF93CDB7DEB728970FB6F894DEBF0FBEA8
:10234000CDBF89836A834B838B81813009F071C053
:102350008981282F30E038872F838F8198858130BD
:10236000910549F12F813885223031052CF48F8178
:102370009885009761F05BC02F8138852230310548
:1023800071F18F81988583309105E9F150C0AAE3FE
:10239000B0E0EAE3F0E08081482F8A81282F30E026
:1023A00081E090E0022E02C0880F991F0A94E2F7A4
:1023B000842B8C93BAC0A7E3B0E0E7E3F0E0808120
:1023C000482F8A81282F30E081E090E0022E02C061
:1023D000880F991F0A94E2F7842B8C93A6C0A4E37C
:1023E000B0E0E4E3F0E08081482F8A81282F30E0DC
:1023F00081E090E0022E02C0880F991F0A94E2F754
:10240000842B8C9392C0A1E3B0E0E1E3F0E0808103
:10241000482F8A81282F30E081E090E0022E02C010
:10242000880F991F0A94E2F7842B8C937EC01E823A
:102430007EC08B81882309F076C08981282F30E007
:102440003D832C838C819D818130910559F12C81B4
:102450003D81223031052CF48C819D81009769F0FB
:1024600060C02C813D812230310589F18C819D81B4
:102470008330910509F440C054C0AAE3B0E0EAE318
:10248000F0E08081482F8A81282F30E081E090E0C1
:10249000022E02C0880F991F0A94E2F780958423C8
:1024A0008C9343C0A7E3B0E0E7E3F0E08081482FDE
:1024B0008A81282F30E081E090E0022E02C0880F50
:1024C000991F0A94E2F7809584238C932EC0A4E38D
:1024D000B0E0E4E3F0E08081482F8A81282F30E0EB
:1024E00081E090E0022E02C0880F991F0A94E2F763
:1024F000809584238C9319C0A1E3B0E0E1E3F0E080
:102500008081482F8A81282F30E081E090E0022EE0
:1025100002C0880F991F0A94E2F7809584238C9358
:1025200004C01E8204C01E8202C091E09E838E8180
:1025300028960FB6F894DEBF0FBECDBFCF91DF91C6
:102540000895DF93CF9300D000D000D0CDB7DEB791
:102550008A836B838A81282F30E03E832D834D81CF
:102560005E814130510541F18D819E81823091051E
:1025700034F42D813E812115310561F053C04D8128
:102580005E814230510551F18D819E8183309105EC
:10259000B9F148C0E9E3F0E08081282F30E08B8179
:1025A000882F90E0A90102C0559547958A95E2F7DA
:1025B000CA018170898338C0E6E3F0E08081282F6A
:1025C00030E08B81882F90E0A90102C05595479596
:1025D0008A95E2F7CA018170898326C0E3E3F0E0BF
:1025E0008081282F30E08B81882F90E0A90102C0E4
:1025F000559547958A95E2F7CA018170898314C081
:10260000E0E3F0E08081282F30E08B81882F90E09C
:10261000A90102C0559547958A95E2F7CA018170D4
:10262000898302C01C8202C059815C838C812696FA
:102630000FB6F894DEBF0FBECDBFCF91DF910895E6
:10264000DF93CF9300D000D00F92CDB7DEB78A834F
:102650008A81282F30E03D832C838C819D818130BD
:102660009105D1F02C813D81223031052CF48C81F3
:102670009D81009761F01FC02C813D812230310582
:1026800081F08C819D818330910581F014C0E9E354
:10269000F0E08081898311C0E6E3F0E080818983E6
:1026A0000CC0E3E3F0E08081898307C0E0E3F0E061
:1026B0008081898302C01B8202C099819B838B81A8
:1026C0000F900F900F900F900F90CF91DF91089582
:1026D000DF93CF9300D000D00F92CDB7DEB78983C0
:1026E0006A838981282F30E03D832C838C819D81F2
:1026F00081309105D1F02C813D81223031052CF4BF
:102700008C819D81009761F01FC02C813D8122301A
:10271000310581F08C819D818330910581F014C059
:10272000EBE3F0E08A81808311C0E8E3F0E08A8186
:1027300080830CC0E5E3F0E08A81808307C0E2E398
:10274000F0E08A81808302C01B8202C091E09B83FB
:102750008B810F900F900F900F900F90CF91DF9182
:102760000895DF93CF9300D000D00F92CDB7DEB79E
:1027700089836A838A81813019F48FEF8A8301C04B
:102780001A828981282F30E03D832C838C819D81A2
:1027900081309105D1F02C813D81223031052CF41E
:1027A0008C819D81009761F01FC02C813D8122307A
:1027B000310581F08C819D818330910581F014C0B9
:1027C000EAE3F0E08A81808311C0E7E3F0E08A81E8
:1027D00080830CC0E4E3F0E08A81808307C0E1E3FA
:1027E000F0E08A81808302C01B8202C091E09B835B
:1027F0008B810F900F900F900F900F90CF91DF91E2
:102800000895DF93CF9300D0CDB7DEB71A82198237
:102810008A8180648A83E7E2F0E08A81808389810B
:1028200083608983898180688983E6E2F0E0898119
:1028300080830F900F90CF91DF910895DF93CF9316
:102840000F92CDB7DEB78983A7E2B0E0E7E2F0E010
:102850008081807E8C93A7E2B0E0E7E2F0E0908197
:102860008981892B8C93A6E2B0E0E6E2F0E08081DA
:1028700080648C93E6E2F0E0808182958F70882FEF
:1028800090E0817090700097A9F3A6E2B0E0E6E2D4
:10289000F0E0808180618C93E4E2F0E080819181BE
:1028A0000F90CF91DF910895DF93CF9300D0CDB7F4
:1028B000DEB71A8219821AC089819A81880F991FFE
:1028C000FC01E85CFE4F208189819A81880F991F65
:1028D000FC01E75CFE4F9081822F692F41E00E944E
:1028E000971189819A8101969A83898389819A8136
:1028F0008430910508F30F900F90CF91DF910895E8
:10290000DF93CF930F92CDB7DEB7809180018F5FB9
:1029100080938001198230C08981882F90E0880FD0
:10292000991FFC01E85CFE4F40818981882F90E06F
:10293000880F991FFC01E75CFE4F50818091800158
:10294000882F90E0FC01E05AFE4F8081282F30E074
:102950008981882F90E0B90102C0759567958A95A5
:10296000E2F7CB01982F9170842F652F492F0E9499
:102970008D1089818F5F89838981843068F280918D
:102980008001883010F0109280010F90CF91DF917C
:102990000895DF93CF930F92CDB7DEB7809180017A
:1029A000815080938001198230C08981882F90E006
:1029B000880F991FFC01E85CFE4F40818981882FB8
:1029C00090E0880F991FFC01E75CFE4F50818091D9
:1029D0008001882F90E0FC01E05AFE4F8081282F73
:1029E00030E08981882F90E0B90102C07595679524
:1029F0008A95E2F7CB01982F9170842F652F492F8C
:102A00000E948D1089818F5F89838981843068F26B
:102A100080918001883018F087E0809380010F90CA
:102A2000CF91DF910895DF93CF93CDB7DEB781E0EB
:102A30006FEF0E94B11381E090E060E070E00E94CF
:102A40006813CF91DF910895DF93CF9300D0CDB776
:102A5000DEB789836A838981882F90E0009771F4BB
:102A60008A81882F90E0FC01E859FE4F8081282F51
:102A700030E081E090E0B9010E9468130F900F9060
:102A8000CF91DF910895DF93CF930F92CDB7DEB74B
:102A900089838981882F90E0009731F481E090E06C
:102AA00060E070E00E9468130F90CF91DF9108956D
:102AB000DF93CF93CDB7DEB783E065E041E00E94BE
:102AC000971183E064E041E00E94971180E29EE468
:102AD0000E94AB0ACF91DF910895DF93CF93CDB7DA
:102AE000DEB728970FB6F894DEBF0FBECDBF8D833B
:102AF0006E838E81992787FD9095865A9F4FAA27CE
:102B000097FDA095BA2F89839A83AB83BC83898173
:102B10009A81AB81BC8128EE33E040E050E0BC01FB
:102B2000CD010E948726DC01CB0124EB30E040E0A0
:102B300050E0BC01CD010E94A626DA01C9018983BB
:102B40009A83AB83BC838D81282F30E038872F8315
:102B50008F819885009731F02F813885213031059C
:102B600059F013C089819A819C0128513C4F80E023
:102B7000B9010E940E0B09C089819A819C012851DC
:102B80003C4F81E0B9010E940E0B28960FB6F894D5
:102B9000DEBF0FBECDBFCF91DF910895DF93CF93FE
:102BA000CDB7DEB782E061E041E00E94971182E09C
:102BB00060E041E00E9497110E94FE16CF91DF91E4
:102BC0000895DF93CF93CDB7DEB76F970FB6F89424
:102BD000DEBF0FBECDBF8D8F8D8D282F30E03F8F94
:102BE0002E8F8E8D9F8D009739F02E8D3F8D213049
:102BF000310509F47EC0F9C082E061E040E00E9446
:102C00008D1080E090E0A0E8BFE3898F9A8FAB8FB2
:102C1000BC8F698D7A8D8B8D9C8D20E030E04AEFE2
:102C200054E40E941F02DC01CB018D8B9E8BAF8B85
:102C3000B88F6D897E898F89988D20E030E040E8DB
:102C40005FE30E94790388232CF481E090E09C8B61
:102C50008B8B3FC06D897E898F89988D20E03FEFF7
:102C60004FE757E40E94190318164CF5698D7A8DC9
:102C70008B8D9C8D20E030E040E251E40E941F02E9
:102C8000DC01CB01BC01CD010E944900DC01CB017C
:102C90009C8B8B8B0FC088EC90E09A8B898B8989F9
:102CA0009A890197F1F79A8B898B8B899C89019777
:102CB0009C8B8B8B8B899C89009769F714C06D89DD
:102CC0007E898F89988D0E944900DC01CB019C8B05
:102CD0008B8B8B899C89988B8F878F85988901979F
:102CE000F1F7988B8F8782E060E041E00E948D10C1
:102CF0007CC082E060E040E00E948D1080E090E0C7
:102D0000A0E8BFE38B879C87AD87BE876B857C85FA
:102D10008D859E8520E030E04AEF54E40E941F023A
:102D2000DC01CB018F839887A987BA876F8178856B
:102D300089859A8520E030E040E85FE30E947903CE
:102D400088232CF481E090E09E838D833FC06F81C7
:102D5000788589859A8520E03FEF4FE757E40E9408
:102D6000190318164CF56B857C858D859E8520E0B2
:102D700030E040E251E40E941F02DC01CB01BC01C3
:102D8000CD010E944900DC01CB019E838D830FC0E1
:102D900088EC90E09C838B838B819C810197F1F779
:102DA0009C838B838D819E8101979E838D838D81F2
:102DB0009E81009769F714C06F81788589859A850F
:102DC0000E944900DC01CB019E838D838D819E8111
:102DD0009A83898389819A810197F1F79A838983FC
:102DE00082E061E041E00E948D106F960FB6F8948A
:102DF000DEBF0FBECDBFCF91DF910895DF93CF939C
:102E0000CDB7DEB782E061E040E00E948D1082E045
:102E100060E040E00E948D10CF91DF910895DF9334
:102E2000CF9300D00F92CDB7DEB789838981282F49
:102E300030E03B832A838A819B818230910531F186
:102E40002A813B812330310554F48A819B8100978C
:102E500089F02A813B812130310591F028C08A8197
:102E60009B8183309105C1F02A813B81243031055B
:102E7000C9F01DC082E066E041E00E94971117C0D2
:102E800082E067E041E00E94971111C082E061E0BA
:102E900041E00E9497110BC082E063E041E00E9494
:102EA000971105C082E064E041E00E9497110F9005
:102EB0000F900F90CF91DF910895DF93CF9300D0C3
:102EC0000F92CDB7DEB789838981282F30E03B830D
:102ED0002A838A819B818230910531F12A813B814D
:102EE0002330310554F48A819B81009789F02A812F
:102EF0003B812130310591F028C08A819B8183304C
:102F00009105C1F02A813B8124303105C9F01DC0F3
:102F100082E066E041E00E948D1017C082E067E029
:102F200041E00E948D1011C082E061E041E00E940A
:102F30008D100BC082E063E041E00E948D1005C05F
:102F400082E064E041E00E948D100F900F900F909E
:102F5000CF91DF910895DF93CF9300D00F92CDB73B
:102F6000DEB789838981282F30E03B832A838A81D9
:102F70009B818230910531F12A813B8123303105DB
:102F800054F48A819B81009789F02A813B8121300A
:102F9000310591F028C08A819B8183309105C1F071
:102FA0002A813B8124303105C9F01DC082E066E0F2
:102FB00040E00E948D1017C082E067E040E00E9470
:102FC0008D1011C082E061E040E00E948D100BC0C6
:102FD00082E063E040E00E948D1005C082E064E082
:102FE00040E00E948D100F900F900F90CF91DF91D5
:102FF0000895DF93CF93CDB7DEB7E8970FB6F89477
:10300000DEBF0FBECDBF80E061E00E94B11382E061
:1030100063E041E00E94971182E064E041E00E9499
:10302000971182E065E041E00E94971180E090E016
:10303000A0EFB1E48DAB9EABAFABB8AF6DA97EA9ED
:103040008FA998AD20E030E04AEF54E40E941F02BF
:10305000DC01CB0189AB9AABABABBCAB69A97AA95C
:103060008BA99CA920E030E040E85FE30E9479034F
:1030700088232CF481E090E098AB8FA73FC069A92A
:103080007AA98BA99CA920E03FEF4FE757E40E9463
:10309000190318164CF56DA97EA98FA998AD20E0EB
:1030A00030E040E251E40E941F02DC01CB01BC0190
:1030B000CD010E944900DC01CB0198AB8FA70FC066
:1030C00088EC90E09EA78DA78DA59EA50197F1F7AE
:1030D0009EA78DA78FA598A9019798AB8FA78FA5BD
:1030E00098A9009769F714C069A97AA98BA99CA926
:1030F0000E944900DC01CB0198AB8FA78FA598A94E
:103100009CA78BA78BA59CA50197F1F79CA78BA7E4
:1031100088E30E94F31980E090E0A0E8BFE38FA36A
:1031200098A7A9A7BAA76FA178A589A59AA520E015
:1031300030E04AEF54E40E941F02DC01CB018BA374
:103140009CA3ADA3BEA36BA17CA18DA19EA120E0F9
:1031500030E040E85FE30E94790388232CF481E0AB
:1031600090E09AA389A33FC06BA17CA18DA19EA1F1
:1031700020E03FEF4FE757E40E94190318164CF583
:103180006FA178A589A59AA520E030E040E251E43E
:103190000E941F02DC01CB01BC01CD010E9449004D
:1031A000DC01CB019AA389A30FC088EC90E098A31F
:1031B0008F8F8F8D98A10197F1F798A38F8F89A199
:1031C0009AA101979AA389A389A19AA1009769F767
:1031D00014C06BA17CA18DA19EA10E944900DC01BD
:1031E000CB019AA389A389A19AA19E8F8D8F8D8DE2
:1031F0009E8D0197F1F79E8F8D8F8FE00E94F319BE
:1032000080E090E0A0E8BFE3898F9A8FAB8FBC8FFE
:10321000698D7A8D8B8D9C8D20E030E04AEF54E4EF
:103220000E941F02DC01CB018D8B9E8BAF8BB88F70
:103230006D897E898F89988D20E030E040E85FE3DA
:103240000E94790388232CF481E090E09C8B8B8B87
:103250003FC06D897E898F89988D20E03FEF4FE7D1
:1032600057E40E94190318164CF5698D7A8D8B8DE1
:103270009C8D20E030E040E251E40E941F02DC011E
:10328000CB01BC01CD010E944900DC01CB019C8B2C
:103290008B8B0FC088EC90E09A8B898B89899A89F7
:1032A0000197F1F79A8B898B8B899C8901979C8B6D
:1032B0008B8B8B899C89009769F714C06D897E89F7
:1032C0008F89988D0E944900DC01CB019C8B8B8BF0
:1032D0008B899C89988B8F878F8598890197F1F7C7
:1032E000988B8F8781E00E94F31980E090E0A0E046
:1032F000B0E48B879C87AD87BE876B857C858D8589
:103300009E8520E030E04AEF54E40E941F02DC0179
:10331000CB018F839887A987BA876F817885898544
:103320009A8520E030E040E85FE30E94790388233B
:103330002CF481E090E09E838D833FC06F8178857F
:1033400089859A8520E03FEF4FE757E40E941903F3
:1033500018164CF56B857C858D859E8520E030E0C8
:1033600040E251E40E941F02DC01CB01BC01CD010F
:103370000E944900DC01CB019E838D830FC088EC45
:1033800090E09C838B838B819C810197F1F79C83D8
:103390008B838D819E8101979E838D838D819E81FC
:1033A000009769F714C06F81788589859A850E9496
:1033B0004900DC01CB019E838D838D819E819A83A0
:1033C000898389819A810197F1F79A83898386E0BD
:1033D0000E94F319E8960FB6F894DEBF0FBECDBF7A
:1033E000CF91DF910895DF93CF930F92CDB7DEB7E2
:1033F000898382E063E040E00E948D1082E064E017
:1034000040E00E948D108981282F30E080E090E01C
:10341000B9010E9468130E94211A0F90CF91DF9189
:103420000895DF93CF930F92CDB7DEB7898389815B
:103430008068898389810E94F3190F90CF91DF9171
:103440000895DF93CF93CDB7DEB76C970FB6F8949E
:10345000DEBF0FBECDBF82E065E041E00E948D106F
:1034600080E090E0A0E8BFE3898F9A8FAB8FBC8F9C
:10347000698D7A8D8B8D9C8D20E030E04AEF54E48D
:103480000E941F02DC01CB018D8B9E8BAF8BB88F0E
:103490006D897E898F89988D20E030E040E85FE378
:1034A0000E94790388232CF481E090E09C8B8B8B25
:1034B0003FC06D897E898F89988D20E03FEF4FE76F
:1034C00057E40E94190318164CF5698D7A8D8B8D7F
:1034D0009C8D20E030E040E251E40E941F02DC01BC
:1034E000CB01BC01CD010E944900DC01CB019C8BCA
:1034F0008B8B0FC088EC90E09A8B898B89899A8995
:103500000197F1F79A8B898B8B899C8901979C8B0A
:103510008B8B8B899C89009769F714C06D897E8994
:103520008F89988D0E944900DC01CB019C8B8B8B8D
:103530008B899C89988B8F878F8598890197F1F764
:10354000988B8F8782E065E040E00E948D1080E0DC
:1035500090E0A0E8BFE38B879C87AD87BE876B8533
:103560007C858D859E8520E030E04AEF54E40E9402
:103570001F02DC01CB018F839887A987BA876F81EF
:10358000788589859A8520E030E040E85FE30E94F5
:10359000790388232CF481E090E09E838D833FC0E3
:1035A0006F81788589859A8520E03FEF4FE757E462
:1035B0000E94190318164CF56B857C858D859E85B8
:1035C00020E030E040E251E40E941F02DC01CB0128
:1035D000BC01CD010E944900DC01CB019E838D839B
:1035E0000FC088EC90E09C838B838B819C8101973A
:1035F000F1F79C838B838D819E8101979E838D83C0
:103600008D819E81009769F714C06F8178858985C7
:103610009A850E944900DC01CB019E838D838D81B8
:103620009E819A83898389819A810197F1F79A8390
:1036300089836C960FB6F894DEBF0FBECDBFCF91D5
:10364000DF910895DF93CF930F92CDB7DEB78983D3
:1036500082E063E041E00E948D1082E064E040E09F
:103660000E948D108981282F30E080E090E0B90120
:103670000E9468130E94211A0F90CF91DF91089544
:10368000DF93CF9300D000D0CDB7DEB79C838B8380
:103690001A82198226C089819A8101969A83898328
:1036A000EB81FC8120818B819C8101969C838B83A3
:1036B000822F0E94221B89819A818031910521F4F9
:1036C00080E40E94111A0DC089819A81803291058F
:1036D00041F481E00E94F31980E00E94111A1A82DD
:1036E0001982EB81FC8180818823A9F60F900F90CD
:1036F0000F900F90CF91DF910895DF93CF93CDB7C7
:10370000DEB727970FB6F894DEBF0FBECDBF9F83FD
:103710008E838E819F819E012F5F3F4FB9014AE0CA
:1037200050E00E940827CE0101960E94401B279678
:103730000FB6F894DEBF0FBECDBFCF91DF910895D5
:10374000DF93CF9300D0CDB7DEB789836A838981B9
:10375000813039F48A81803120F48A8181580E9435
:10376000111A8981823039F48A81803120F48A816A
:1037700081540E94111A0F900F90CF91DF910895FC
:10378000DF93CF93CDB7DEB781E060E040E00E94E9
:10379000971181E060E041E00E948D1081E061E0DE
:1037A00040E00E94971181E061E041E00E948D10AD
:1037B00081E062E040E00E94971181E062E041E038
:1037C0000E948D1081E063E040E00E94971181E04B
:1037D00063E041E00E948D1081E064E041E00E94DE
:1037E000971181E065E041E00E94971181E066E079
:1037F00041E00E94971181E067E041E00E9497114B
:10380000CF91DF910895DF93CF9300D0CDB7DEB78E
:103810001A822BC08A81882F90E0880F991FFC01A3
:10382000E85BFE4F80819181982F81E0692F40E015
:103830000E948D10198203C089818F5F89838981DD
:103840008430D0F38A81882F90E0880F991FFC0183
:10385000E85BFE4F80819181982F81E0692F41E0E4
:103860000E948D108A818F5F8A838A81843090F2D2
:103870008FEF0F900F90CF91DF910895DF93CF934B
:10388000CDB7DEB783E062E040E00E94971181E0AF
:1038900063E00E94F40E2EE93CE181E0B9010E9450
:1038A000CC0F81E00E945C0F0E94A2090E94A00A36
:1038B000CF91DF910895DF93CF93CDB7DEB780919D
:1038C000810190918201CF91DF910895DF93CF9391
:1038D000CDB7DEB78091830190918401CF91DF91C4
:1038E0000895EF92FF920F931F93DF93CF93CDB77D
:1038F000DEB78091810190918201CC01A0E0B0E01F
:1039000024E630E040E050E0BC01CD010E94872673
:103910007B018C0180918301909184019C0140E0A6
:1039200050E0C801B7010E94A626DA01C901CF9173
:10393000DF911F910F91FF90EF900895DF93CF9348
:1039400000D0CDB7DEB780918501282F30E03A83D3
:10395000298389819A818130910599F029813A8161
:1039600022303105E1F089819A81009721F50E948A
:10397000A00A81E062E00E94F40E81E0809385015C
:103980001AC081E063E00E94F40E0E94950A9093B1
:1039900082018093810182E0809385010CC081E0E7
:1039A00063E00E94F40E0E94950A90938401809334
:1039B0008301109285010F900F90CF91DF910895B0
:1039C000DF93CF93CDB7DEB782E060E040E00E94A6
:1039D000971182E061E040E00E94971182E060E090
:1039E00040E00E948D1082E061E040E00E948D1076
:1039F00080E197E20E94720DCF91DF910895DF93ED
:103A0000CF93CDB7DEB727970FB6F894DEBF0FBEC2
:103A1000CDBF8C837E836D8381E08B838D819E817E
:103A2000892F99278370880F806A8A838D81898383
:103A30000E94C40D8B838B81883019F08B818F831A
:103A40002CC08A8186958A838A8160E00E94F90D64
:103A50008B838B81883129F00E943E0E8B818F836E
:103A60001CC089810E94200E8B838B81883229F0B3
:103A70000E943E0E8B818F8310C08C810E94200E8D
:103A80008B838B81883229F00E943E0E8B818F833D
:103A900004C00E943E0E8B818F838F8127960FB6C4
:103AA000F894DEBF0FBECDBFCF91DF910895DF93B5
:103AB000CF93CDB7DEB727970FB6F894DEBF0FBE12
:103AC000CDBF8D837F836E8381E08A838E819F81CA
:103AD000892F99278370880F806A89831C821B82B3
:103AE0008E818B838D818C83898186959E012D5F4C
:103AF0003F4FB90142E00E94830E8A838A81279654
:103B00000FB6F894DEBF0FBECDBFCF91DF91089501
:103B1000DF93CF93CDB7DEB728970FB6F894DEBF0B
:103B20000FBECDBF9D838C837F836E8381E08B83AB
:103B30008E819F81892F99278370880F806A8A835D
:103B40008E8189830E94C40D8A8186958A838A81A9
:103B500060E00E94F90D8B838B81883129F00E94EF
:103B60003E0E8B81888722C089810E94200E8B8324
:103B70008B81883229F00E943E0E8B81888716C087
:103B80000E94DB0D8B838B81883019F08B818887B5
:103B90000DC08A8161E00E94F90D8B830E946D0E39
:103BA000EC81FD8180830E943E0E188688852896D0
:103BB0000FB6F894DEBF0FBECDBFCF91DF91089551
:103BC000DF93CF93CDB7DEB70E94A305CF91DF91EE
:103BD0000895DF93CF930F92CDB7DEB789838981A4
:103BE0000E9400060F90CF91DF910895DF93CF934D
:103BF00000D0CDB7DEB79A83898389819A810E94EC
:103C00001F060F900F90CF91DF910895DF93CF9310
:103C100000D00F92CDB7DEB789838981282F30E09D
:103C20003B832A838A819B818130910531F02A81EF
:103C30003B812230310539F00BC083E062E041E086
:103C40000E94971105C083E063E041E00E94971154
:103C50000F900F900F90CF91DF910895DF93CF9346
:103C600000D00F92CDB7DEB789838981282F30E04D
:103C70003B832A838A819B818130910531F02A819F
:103C80003B812230310539F00BC083E062E041E036
:103C90000E948D1005C083E063E041E00E948D101A
:103CA0000F900F900F90CF91DF910895DF93CF93F6
:103CB00000D00F92CDB7DEB789838981282F30E0FD
:103CC0003B832A838A819B818130910531F02A814F
:103CD0003B812230310539F00BC083E062E040E0E7
:103CE0000E948D1005C083E063E040E00E948D10CB
:103CF0000F900F900F90CF91DF910895DF93CF93A6
:103D00000F92CDB7DEB710928A0110928601109201
:103D10008701109288011092890180918B018F5F39
:103D200080938B0153C0CE0101960E94F61D8981BC
:103D30008D3309F44BC089818D3009F447C08AE284
:103D40000E94221B898180538983998180918B01F4
:103D5000282F30E0892FB9010E94FF1C8981282F6C
:103D600030E040E050E08091860190918701A09181
:103D70008801B0918901820F931FA41FB51F809302
:103D8000860190938701A0938801B0938901809167
:103D9000860190918701A0918801B09189012AE064
:103DA00030E040E050E0BC01CD010E948726DC01FC
:103DB000CB018093860190938701A0938801B093F3
:103DC000890180918B018F5F80938B0189818D3375
:103DD00021F089818D3009F0A6CF809186019091E4
:103DE0008701A0918801B09189012AE030E040E08C
:103DF00050E0BC01CD010E94A626DA01C9018093E2
:103E0000860190938701A0938801B09389018091E6
:103E10008B01282F30E08FEFB9010E94FF1C0F901B
:103E2000CF91DF910895DF93CF930F92CDB7DEB797
:103E300010928B0110928A011092860110928701D4
:103E4000109288011092890119822BC084EB91E0B5
:103E50000E94F61D8091B4018D3319F18091B40157
:103E60008D30F9F08091B4010E94221B9091B40131
:103E700080918B01282F30E0892FB9010E94FF1C0F
:103E80008981882F90E02091B401FC01E056FE4F1B
:103E9000208380918B018F5F80938B0189818F5F5D
:103EA00089838091B4018D3321F08091B4018D30EC
:103EB00069F68981882F90E0FC01E056FE4F108260
:103EC00080918B01282F30E08FEFB9010E94FF1CF9
:103ED0000F90CF91DF9108950F931F93DF93CF93AE
:103EE000CDB7DEB7CC58D0400FB6F894DEBF0FBECA
:103EF000CDBFFE01E958FF4F83E08083FE01EA5801
:103F0000FF4F1082FE01EE58FF4F10821182128285
:103F10001382FE01EF58FF4F10820E94F9170E9492
:103F200058150E94E01C0E94E01D81E00E94061EC0
:103F300080E00E940F1780E060E00E946D1581E034
:103F400061E00E94A01B80E690E00E94401BFE0101
:103F5000E359FF4F80E090E0AAE7B4E480839183C7
:103F6000A283B3838E0107591F4FFE01E359FF4F10
:103F7000608171818281938120E030E04AEF54E4D6
:103F80000E941F02DC01CB01F80180839183A28390
:103F9000B383FE01E759FF4F608171818281938174
:103FA00020E030E040E85FE30E947903882344F496
:103FB000FE01E959FF4F81E090E09183808364C066
:103FC000FE01E759FF4F608171818281938120E07A
:103FD0003FEF4FE757E40E94190318160CF043C057
:103FE000FE01E359FF4F608171818281938120E05E
:103FF00030E040E251E40E941F02DC01CB018E015F
:1040000009591F4FBC01CD010E944900DC01CB01C1
:10401000F801918380831FC0FE01EB59FF4F88ECAC
:1040200090E091838083FE01EB59FF4F8081918165
:104030000197F1F7FE01EB59FF4F91838083DE0179
:10404000A959BF4FFE01E959FF4F80819181019726
:1040500011969C938E93FE01E959FF4F80819181C7
:104060000097D1F627C08E0109591F4FFE01E7596D
:10407000FF4F60817181828193810E944900DC0140
:10408000CB01F80191838083DE01AD59BF4FFE0162
:10409000E959FF4F808191818D939C93FE01ED59E9
:1040A000FF4F808191810197F1F7FE01ED59FF4F9C
:1040B0009183808381E00E94F31980918B01282FE6
:1040C00030E08AE891E0B9010E94881D80918A0160
:1040D0008F3F09F0A8C18AE690E00E94401BFE01D4
:1040E000E15AFF4F80E090E8ABEBB4E4808391832A
:1040F000A283B3838E01055A1F4FFE01E15AFF4F81
:10410000608171818281938120E030E04AEF54E444
:104110000E941F02DC01CB01F80180839183A283FE
:10412000B383FE01E55AFF4F6081718182819381E3
:1041300020E030E040E85FE30E947903882344F404
:10414000FE01E75AFF4F81E090E09183808364C0D5
:10415000FE01E55AFF4F608171818281938120E0E9
:104160003FEF4FE757E40E94190318160CF043C0C5
:10417000FE01E15AFF4F608171818281938120E0CD
:1041800030E040E251E40E941F02DC01CB018E01CD
:10419000075A1F4FBC01CD010E944900DC01CB0131
:1041A000F801918380831FC0FE01E95AFF4F88EC1C
:1041B00090E091838083FE01E95AFF4F80819181D5
:1041C0000197F1F7FE01E95AFF4F91838083DE01E9
:1041D000A75ABF4FFE01E75AFF4F80819181019797
:1041E00011969C938E93FE01E75AFF4F8081918137
:1041F0000097D1F627C08E01075A1F4FFE01E55ADE
:10420000FF4F60817181828193810E944900DC01AE
:10421000CB01F80191838083DE01AB5ABF4FFE01D1
:10422000E75AFF4F808191818D939C93FE01EB5A59
:10423000FF4F808191810197F1F7FE01EB5AFF4F0B
:104240009183808381E00E94F31989E790E00E94C6
:10425000401B82E061E00E94A01B0E94131F81E0CE
:104260000E94F319FE01EF5AFF4F80E090E0A8E4AE
:10427000B2E480839183A283B3838E01035B1F4FDB
:10428000FE01EF5AFF4F608171818281938120E0AE
:1042900030E04AEF54E40E941F02DC01CB01F80138
:1042A00080839183A283B383FE01E35BFF4F608130
:1042B00071818281938120E030E040E85FE30E94D9
:1042C0007903882344F4FE01E55BFF4F81E090E031
:1042D0009183808364C0FE01E35BFF4F6081718145
:1042E0008281938120E03FEF4FE757E40E9419035A
:1042F00018160CF043C0FE01EF5AFF4F6081718128
:104300008281938120E030E040E251E40E941F026C
:10431000DC01CB018E01055B1F4FBC01CD010E946A
:104320004900DC01CB01F801918380831FC0FE01AD
:10433000E75BFF4F88EC90E091838083FE01E75BB1
:10434000FF4F808191810197F1F7FE01E75BFF4FFD
:1043500091838083DE01A55BBF4FFE01E55BFF4FCC
:1043600080819181019711969C938E93FE01E55B6C
:10437000FF4F808191810097D1F627C08E01055BA8
:104380001F4FFE01E35BFF4F60817181828193814A
:104390000E944900DC01CB01F80191838083DE019A
:1043A000A95BBF4FFE01E55BFF4F808191818D933B
:1043B0009C93FE01E95BFF4F808191810197F1F7AA
:1043C000FE01E95BFF4F9183808384E890E00E94C7
:1043D000401B82E061E00E94A01B0E947E1E97C0ED
:1043E000FE01EF58FF4F8081882F90E020918A01D5
:1043F000FC01E056FE4F208380918B018F5F8093FC
:104400008B0180918B01282F30E08AE891E0B9017F
:104410000E94881DDE01AF58BF4FFE01EF58FF4FCD
:1044200080818F5F8C9380918A018F3FC9F6809144
:104430008B018F5F80938B0180918B01282F30E05F
:104440008AE891E0B9010E94881D42C080918A01EA
:10445000282F30E040E050E0809186019091870164
:10446000A0918801B0918901820F931FA41FB51FED
:104470008093860190938701A0938801B09389016E
:104480008091860190918701A0918801B091890166
:104490002AE030E040E050E0BC01CD010E948726D8
:1044A000DC01CB018093860190938701A093880162
:1044B000B093890180918B018F5F80938B018091F4
:1044C0008B01282F30E08AE891E0B9010E94881D15
:1044D00080918A018F3F09F0B9CF80918601909138
:1044E0008701A0918801B09189012AE030E040E085
:1044F00050E0BC01CD010E94A626DA01C9018093DB
:10450000860190938701A0938801B093890110924E
:10451000B401FE01EE58FF4F108211821282138205
:10452000FE01EA58FF4F1082FE01E958FF4F83E079
:104530008083FE01EF58FF4F108281E00E94F31943
:1045400083E990E00E94401B82E061E00E94A01B92
:1045500028C084EB91E00E94F61D8091B4018D3358
:1045600001F18091B4018D30E1F08091B4010E949D
:10457000221BFE01EF58FF4F8081282F30E0409131
:10458000B401CE0188589F4FFC01E20FF31F408316
:10459000DE01AF58BF4FFE01EF58FF4F80818F5FA4
:1045A0008C938091B4018D3321F08091B4018D30D2
:1045B00081F6FE01EF58FF4F8081282F30E0CE01B9
:1045C00088589F4FFC01E20FF31F1082CE018858DC
:1045D0009F4F20EA31E0B9010E94FF26009709F0C1
:1045E00015C381E00E94F31984EA90E00E94401B09
:1045F000A6C11092B40182E061E00E94A01B45C0F8
:1046000084EB91E00E94F61D8091B4018D33E9F1B5
:104610008091B4018D30C9F18AE20E94221B809101
:10462000B401882F90E0C0979C01442737FD409546
:10463000542FBE016E587F4FFE01EE58FF4F808110
:104640009181A281B381820F931FA41FB51FFB012B
:1046500080839183A283B3838E010E581F4FFE0186
:10466000EE58FF4F80819181A281B3812AE030E032
:1046700040E050E0BC01CD010E948726DC01CB0167
:10468000F80180839183A283B3838091B4018D3339
:1046900029F08091B4018D3009F0B2CF8E010E580F
:1046A0001F4FFE01EE58FF4F80819181A281B3819F
:1046B0002AE030E040E050E0BC01CD010E94A62697
:1046C000DA01C901F80180839183A283B38381E079
:1046D0000E94F31920918601309187014091880151
:1046E00050918901FE01EE58FF4F80819181A28196
:1046F000B38182179307A407B50709F093C0FE01A1
:10470000EA58FF4F81E0808384EB90E00E94401BD9
:1047100080E06AE50E946D15FE01ED5BFF4F80E0D1
:1047200090E0AAE7B4E480839183A283B3838E01EF
:10473000015C1F4FFE01ED5BFF4F60817181828143
:10474000938120E030E04AEF54E40E941F02DC0134
:10475000CB01F80180839183A283B383FE01FF968E
:10476000608171818281938120E030E040E85FE3E5
:104770000E94790388232CF481E090E09EAF8DAFF6
:1047800046C0FE01FF96608171818281938120E0A5
:104790003FEF4FE757E40E941903181664F5FE0136
:1047A000ED5BFF4F608171818281938120E030E079
:1047B00040E251E40E941F02DC01CB01BC01CD01AB
:1047C0000E944900DC01CB019EAF8DAF0FC088EC89
:1047D00090E09CAF8BAF8BAD9CAD0197F1F79CAF98
:1047E0008BAF8DAD9EAD01979EAF8DAF8DAD9EAD64
:1047F000009769F7CBC0FE01FF96608171818281CD
:1048000093810E944900DC01CB019EAF8DAF8DAD3D
:104810009EAD9AAF89AF89AD9AAD0197F1F79AAF86
:1048200089AFB4C082EC90E00E94401BFE01E958C1
:10483000FF4F8081882309F479C080E090E8ABEBDA
:10484000B4E48DAB9EABAFABB8AF6DA97EA98FA919
:1048500098AD20E030E04AEF54E40E941F02DC01F2
:10486000CB0189AB9AABABABBCAB69A97AA98BA9DD
:104870009CA920E030E040E85FE30E9479038823B0
:104880002CF481E090E098AB8FA73FC069A97AA98A
:104890008BA99CA920E03FEF4FE757E40E94190342
:1048A00018164CF56DA97EA98FA998AD20E030E0CF
:1048B00040E251E40E941F02DC01CB01BC01CD01AA
:1048C0000E944900DC01CB0198AB8FA70FC088EC98
:1048D00090E09EA78DA78DA59EA50197F1F79EA7B5
:1048E0008DA78FA598A9019798AB8FA78FA598A999
:1048F000009769F714C069A97AA98BA99CA90E949D
:104900004900DC01CB0198AB8FA78FA598A99CA784
:104910008BA78BA59CA50197F1F79CA78BA781E09E
:104920000E94F31982ED90E00E94401B1092B401A6
:10493000FE01EE58FF4F1082118212821382FE0197
:10494000E958FF4F8081C457DF4F8883CC58D0404F
:10495000C457DF4FE881CC58D040EE2331F0F1E06E
:10496000C457DF4FF883CC58D040C457DF4F9881ED
:10497000CC58D040DE01A958BF4FFE01E958FF4F87
:10498000808181508C93992309F033CEFE01EA583F
:10499000FF4F8081882309F4BAC081E00E94F31997
:1049A00080E060E00E946D1581E00E94F3198DEDBA
:1049B00090E00E94401B82E061E00E94A01B8EEE0E
:1049C00090E00E94401B1092B40184EB91E00E94A1
:1049D000F61D8091B401813309F090C081E30E94FB
:1049E000221B80E090E0AAEFB3E48FA398A7A9A7C9
:1049F000BAA76FA178A589A59AA520E030E04AEF73
:104A000054E40E941F02DC01CB018BA39CA3ADA345
:104A1000BEA36BA17CA18DA19EA120E030E040E867
:104A20005FE30E94790388232CF481E090E09AA34D
:104A300089A33FC06BA17CA18DA19EA120E03FEF87
:104A40004FE757E40E94190318164CF56FA178A59B
:104A500089A59AA520E030E040E251E40E941F02BF
:104A6000DC01CB01BC01CD010E944900DC01CB017E
:104A70009AA389A30FC088EC90E098A38F8F8F8DA5
:104A800098A10197F1F798A38F8F89A19AA1019717
:104A90009AA389A389A19AA1009769F714C06BA171
:104AA0007CA18DA19EA10E944900DC01CB019AA3AB
:104AB00089A389A19AA19E8F8D8F8D8D9E8D01973F
:104AC000F1F79E8F8D8F81E00E94F3198DEF90E0BA
:104AD0000E94401B82E061E00E94A01B0E94131F05
:104AE00081E00E94F3198CE091E00E94401B82E07B
:104AF00061E00E94A01B0E947E1E01C18091B40152
:104B0000823309F062CF82E30E94221BF8C081E069
:104B10000E942E1E80E00E945D1780E090E8ABE3CB
:104B2000B5E4898F9A8FAB8FBC8F698D7A8D8B8D11
:104B30009C8D20E030E04AEF54E40E941F02DC012B
:104B4000CB018D8B9E8BAF8BB88F6D897E898F89C2
:104B5000988D20E030E040E85FE30E9479038823ED
:104B60002CF481E090E09C8B8B8B3FC06D897E891B
:104B70008F89988D20E03FEF4FE757E40E9419039B
:104B800018164CF5698D7A8D8B8D9C8D20E030E068
:104B900040E251E40E941F02DC01CB01BC01CD01C7
:104BA0000E944900DC01CB019C8B8B8B0FC088ECF1
:104BB00090E09A8B898B89899A890197F1F79A8B72
:104BC000898B8B899C8901979C8B8B8B8B899C898A
:104BD000009769F714C06D897E898F89988D0E942E
:104BE0004900DC01CB019C8B8B8B8B899C89988B3A
:104BF0008F878F8598890197F1F7988B8F8781E050
:104C00000E94561E80E00E94AB1779C081E00E948E
:104C1000F3198FE191E00E94401B80E090E0AAEF41
:104C2000B4E48B879C87AD87BE876B857C858D853B
:104C30009E8520E030E04AEF54E40E941F02DC0130
:104C4000CB018F839887A987BA876F8178858985FB
:104C50009A8520E030E040E85FE30E9479038823F2
:104C60002CF481E090E09E838D833FC06F81788536
:104C700089859A8520E03FEF4FE757E40E941903AA
:104C800018164CF56B857C858D859E8520E030E07F
:104C900040E251E40E941F02DC01CB01BC01CD01C6
:104CA0000E944900DC01CB019E838D830FC088ECFC
:104CB00090E09C838B838B819C810197F1F79C838F
:104CC0008B838D819E8101979E838D838D819E81B3
:104CD000009769F714C06F81788589859A850E944D
:104CE0004900DC01CB019E838D838D819E819A8357
:104CF000898389819A810197F1F79A83898381E079
:104D00000E94F31980E060E00E946D1500CC629F64
:104D1000D001739FF001829FE00DF11D649FE00DB3
:104D2000F11D929FF00D839FF00D749FF00D659F14
:104D3000F00D9927729FB00DE11DF91F639FB00D13
:104D4000E11DF91FBD01CF0111240895A1E21A2E22
:104D5000AA1BBB1BFD010DC0AA1FBB1FEE1FFF1F1F
:104D6000A217B307E407F50720F0A21BB30BE40B6F
:104D7000F50B661F771F881F991F1A9469F76095B6
:104D80007095809590959B01AC01BD01CF01089570
:104D90002F923F924F925F926F927F928F929F924B
:104DA000AF92BF92CF92DF92EF92FF920F931F9339
:104DB000CF93DF93CDB7DEB7CA1BDB0B0FB6F894EA
:104DC000DEBF0FBECDBF09942A88398848885F842A
:104DD0006E847D848C849B84AA84B984C884DF809B
:104DE000EE80FD800C811B81AA81B981CE0FD11D7F
:104DF0000FB6F894DEBF0FBECDBFED010895FB01E5
:104E0000DC018D91019080190110D9F3990B08955F
:104E1000FB019F01E8944230C4F04532B4F44A30BB
:104E200029F497FB1EF4909581959F4F642F772767
:104E30000E943927805D8A330CF0895D8193CB0114
:104E40000097A1F716F45DE251931082C9010C940A
:104E50002927DC01FC01672F71917723E1F7329755
:104E600004C07C916D9370836291AE17BF07C8F345
:104E70000895AA1BBB1B51E107C0AA1FBB1FA617A1
:104E8000B70710F0A61BB70B881F991F5A95A9F7F3
:0E4E900080959095BC01CD010895F894FFCF58
:104E9E002057656C6C636F6D6500666F7220666976
:104EAE007273742074696D6500456E746572206E40
:104EBE00616D6500456E7465722070617373776FF6
:104ECE0072640020456E7465722055736572206E93
:104EDE00616D650020456E74657220506173737745
:104EEE006F72640020436F72726563742050415379
:104EFE00530020496E636F72726563742050415384
:104F0E0053002054727920616761696E00204368F6
:104F1E00616E67652050617373776F726400203124
:104F2E002D59206F7220322D4E203A2000456E747E
:104F3E006572206E6577206E616D6500456E7465D5
:104F4E0072206E65772070617373776F726400499B
:104F5E006E636F7272656374204E616D6500000042
:104F6E000000000000000101020002010202020323
:104F7E000000010002000300040005000600070007
:104F8E003738392B3435362D3132332A23303D2FF5
:104F9E0001030206040C08093F065B4F666D7D0790
:024FAE007F6F13
:00000001FF
