:100000000C942A000C94DD0A0C940A0B0C94370B08
:100010000C9443080C9447000C9447000C94470040
:100020000C9447000C9447000C9447000C94470034
:100030000C9447000C9447000C9447000C94470024
:100040000C9447000C9447000C9447000C94470014
:100050000C94470011241FBECFE5D8E0DEBFCDBF12
:1000600011E0A0E6B0E0EEE4FEE202C005900D92E1
:10007000A23AB107D9F711E0A2EAB1E001C01D929E
:10008000A73BB107E1F70E945E160C9425170C946C
:100090000000EF92FF920F931F937B018C0120E0F1
:1000A00030E040E05FE40E94F50388238CF0C80153
:1000B000B70120E030E040E05FE40E94C1010E940F
:1000C000B3049B01AC01205030404040504806C072
:1000D000C801B7010E94B3049B01AC01B901CA0178
:1000E0001F910F91FF90EF900895A0E0B0E0EBE733
:1000F000F0E00C94A916DC012B01FA019C919230DE
:1001000008F439C1EB018881823008F433C194309E
:1001100069F4843009F02FC111969C91119789815F
:10012000981709F428C1A0E6B0E025C1843009F48D
:1001300021C18230A9F4923009F01DC19A01AD01AC
:1001400088E0EA010990AE01E90109929E0181501F
:10015000C1F7E201898111969C918923818308C1AD
:10016000923009F407C112962D903C901397EB0141
:100170008A819B811496AD90BD90CD90DC901797AD
:10018000EC80FD800E811F819101281B390BB90184
:1001900037FF04C066277727621B730B6032710537
:1001A0000CF061C0121613066CF537014801062EDB
:1001B00004C096948794779467940A94D2F721E0C8
:1001C00030E040E050E004C0220F331F441F551FB1
:1001D0006A95D2F721503040404050402E213F21B7
:1001E00040235123211531054105510521F021E01E
:1001F00030E040E050E079018A01E628F72808293C
:1002000019293CC0232BD1F1260E371E350146019A
:10021000062E04C096948794779467940A94D2F734
:1002200021E030E040E050E004C0220F331F441FC3
:10023000551F6A95D2F721503040404050402A2146
:100240003B214C215D21211531054105510521F04E
:1002500021E030E040E050E059016A01A628B728CB
:10026000C828D9280BC0821593052CF01C01AA249C
:10027000BB24650103C0EE24FF24870111969C91E5
:10028000D20111968C91981709F445C0992339F041
:10029000A80197012A193B094C095D0906C0A6016E
:1002A00095012E193F09400B510B57FD08C01182D3
:1002B0003382228224833583468357831DC081E0A5
:1002C00081833382228288279927DC01821B930B4A
:1002D000A40BB50B84839583A683B7830DC0220F2F
:1002E000331F441F551F24833583468357838281E0
:1002F000938101979383828324813581468157813D
:10030000DA01C9010197A109B1098F5F9F4FAF4F72
:10031000BF4328F30BC0918333822282EA0CFB1C7B
:100320000C1D1D1DE482F5820683178383E0808304
:10033000248135814681578157FF1AC0C901AA27F8
:1003400097FDA095BA2F81709070A070B0705695EF
:10035000479537952795822B932BA42BB52B848318
:100360009583A683B7838281938101969383828349
:10037000DF0101C0D201CD01CDB7DEB7E2E10C94BF
:10038000C516A0E2B0E0E7ECF1E00C94B516698385
:100390007A838B839C832D833E834F835887E9E048
:1003A000EE2EF12CEC0EFD1ECE010196B7010E943F
:1003B000A4068E010F5E1F4FCE010596B8010E9464
:1003C000A4068A8991E089278A8BC701B801AE010A
:1003D000475E5F4F0E9475000E94CF05A096E6E041
:1003E0000C94D116A0E2B0E0E8EFF1E00C94B51661
:1003F00069837A838B839C832D833E834F835887C5
:10040000F9E0EF2EF12CEC0EFD1ECE010196B701A6
:100410000E94A4068E010F5E1F4FCE010596B80103
:100420000E94A406C701B801AE01475E5F4F0E945B
:1004300075000E94CF05A096E6E00C94D116A0E2CC
:10044000B0E0E5E2F2E00C94A91669837A838B832D
:100450009C832D833E834F835887CE010196BE0136
:10046000675F7F4F0E94A406CE010596BE016F5EB6
:100470007F4F0E94A4069985923088F08989823046
:10048000C8F0943019F4823051F404C0843029F457
:10049000923081F480E690E0C6C0923049F420E0CA
:1004A0009A858A89981321E02A87CE010996BBC0D4
:1004B000823049F420E09A858A89981321E02A8BBA
:1004C000CE014196B0C02D843E844F8458886D88FB
:1004D0007E888F88988CEE24FF248701AA24BB2471
:1004E000650140E050E060E070E0E0E0F0E0C10174
:1004F00081709070892BE9F0E60CF71C081D191D1E
:100500009A01AB012A0D3B1D4C1D5D1D80E090E062
:10051000A0E0B0E0E614F7040805190520F481E036
:1005200090E0A0E0B0E0BA01A901480F591F6A1F8E
:100530007B1FAA0CBB1CCC1CDD1C97FE08C081E0F5
:1005400090E0A0E0B0E0A82AB92ACA2ADB2A3196B6
:10055000E032F10549F0660C771C881C991C569412
:10056000479437942794C3CFFA85EA892B893C892D
:100570008B859C85280F391F2E5F3F4F17C0CA01FE
:1005800081709070892B61F016950795F794E79428
:1005900080E090E0A0E0B0E8E82AF92A0A2B1B2BC3
:1005A00076956795579547952F5F3F4F77FDE7CF36
:1005B0000CC0440F551F661F771F17FD4160EE0CDE
:1005C000FF1C001F111F21503040403090E05907A0
:1005D00090E0690790E4790760F32B8F3C8FDB0193
:1005E000CA018F779070A070B07080349105A1051A
:1005F000B10561F447FD0AC0E114F10401051105DC
:1006000029F0405C5F4F6F4F7F4F40781A8EFE1786
:1006100011F081E08A8F4D8F5E8F6F8F78A383E01A
:10062000898FCE0149960E94CF05A096E2E10C94F5
:10063000C516A8E1B0E0EFE1F3E00C94B1166983D0
:100640007A838B839C832D833E834F835887B9E0C5
:10065000EB2EF12CEC0EFD1ECE010196B7010E948F
:10066000A4068E010F5E1F4FCE010596B8010E94B1
:10067000A4062985223008F47EC03989323010F46E
:10068000B8017CC08A859A8989278A87243011F02D
:10069000223031F4231709F06EC060E670E06EC0BE
:1006A000343039F41D861E861F86188A1C861B86E8
:1006B00004C0323021F484E08987B7015FC02B8504
:1006C0003C858B899C89281B390B3C872B87ED84C3
:1006D000FE840F851889AD88BE88CF88D88CEA142F
:1006E000FB040C051D0540F4EE0CFF1C001F111F40
:1006F000215030403C872B8720E030E040E050E044
:1007000080E090E0A0E0B0E460E070E0EA14FB0478
:100710000C051D0540F0282B392B4A2B5B2BEA18C2
:10072000FB080C091D09B695A79597958795EE0CC2
:10073000FF1C001F111F6F5F7F4F6F31710531F775
:10074000DA01C9018F779070A070B0708034910584
:10075000A105B10561F427FD0AC0E114F10401050A
:10076000110529F0205C3F4F4F4F5F4F20782D87B8
:100770003E874F87588BBE01675F7F4FCB010E943A
:10078000CF056896EAE00C94CD16A8E1B0E0EBEC5A
:10079000F3E00C94B51669837A838B839C832D8355
:1007A0003E834F83588789E0E82EF12CEC0EFD1E26
:1007B000CE010196B7010E94A4068E010F5E1F4F65
:1007C000CE010596B8010E94A4068985823040F0CA
:1007D0008989823028F0C701B8010E941C0701C036
:1007E0008FEF6896E6E00C94D116A8E1B0E0EBEF4D
:1007F000F3E00C94B51669837A838B839C832D83F5
:100800003E834F83588789E0E82EF12CEC0EFD1EC5
:10081000CE010196B7010E94A4068E010F5E1F4F04
:10082000CE010596B8010E94A4068985823040F069
:100830008989823028F0C701B8010E941C0701C0D5
:100840008FEF6896E6E00C94D116A8E1B0E0EBE2F9
:10085000F4E00C94B51669837A838B839C832D8393
:100860003E834F83588789E0E82EF12CEC0EFD1E65
:10087000CE010196B7010E94A4068E010F5E1F4FA4
:10088000CE010596B8010E94A4068985823040F009
:100890008989823028F0C701B8010E941C0701C075
:1008A00081E06896E6E00C94D116A8E0B0E0EBE5B4
:1008B000F4E00C94B2169B01AC0183E08983DA0169
:1008C000C9018827B7FD83959927AA27BB27B82E8A
:1008D000211531054105510519F482E089833AC09B
:1008E0008823A9F0203080E0380780E0480780E8BE
:1008F000580729F460E070E080E09FEC30C0EE24FF
:10090000FF248701E21AF30A040B150B02C07901D8
:100910008A018EE1C82ED12CDC82CB82ED82FE8250
:100920000F831887C801B7010E9480050197181628
:10093000190684F4082E04C0EE0CFF1C001F111FC2
:100940000A94D2F7ED82FE820F831887C81AD90A5B
:10095000DC82CB82BA82CE0101960E94CF05289616
:10096000E9E00C94CE16ACE0B0E0E9EBF4E00C94D6
:10097000B91669837A838B839C83CE010196BE016D
:100980006B5F7F4F0E94A4068D81823061F18230BF
:1009900050F1843021F48E81882351F12EC02F81B3
:1009A000388537FD20C06E812F3131051CF066235C
:1009B000F9F023C08EE190E0821B930B29853A85E4
:1009C0004B855C8504C056954795379527958A9544
:1009D000D2F76623B1F050954095309521953F4F61
:1009E0004F4F5F4F0EC020E030E040E050E009C0C4
:1009F0002FEF3FEF4FEF5FE704C020E030E040E033
:100A000050E8B901CA012C96E2E00C94D516A8E092
:100A1000B0E0EDE0F5E00C94B1167B018C016115BE
:100A200071058105910519F482E0898360C083E036
:100A300089838EE1C82ED12CDC82CB82ED82FE82AE
:100A40000F831887C801B7010E948005FC01319708
:100A5000F7FF3BC0222733272E1B3F0B57016801AE
:100A6000022E04C0D694C794B794A7940A94D2F7E0
:100A700040E050E060E070E081E090E0A0E0B0E0B5
:100A800004C0880F991FAA1FBB1F2A95D2F7019790
:100A9000A109B1098E219F21A023B1230097A105AF
:100AA000B10521F041E050E060E070E04A295B29A7
:100AB0006C297D294D835E836F8378878EE190E07A
:100AC0008E1B9F0B9C838B8312C0309781F00E2E60
:100AD00004C0EE0CFF1C001F111F0A94D2F7ED8218
:100AE000FE820F831887CE1ADF0ADC82CB821A823D
:100AF000CE0101960E94CF052896EAE00C94CD160F
:100B0000EF92FF920F931F937B018C0180E0E81618
:100B100080E0F80681E0080780E0180788F48FEF8E
:100B2000E816F1040105110531F028F088E090E0A5
:100B3000A0E0B0E017C080E090E0A0E0B0E012C01C
:100B400080E0E81680E0F80680E0080781E01807FA
:100B500028F088E190E0A0E0B0E004C080E190E0FF
:100B6000A0E0B0E020E230E040E050E0281B390B8C
:100B70004A0B5B0B04C016950795F794E7948A958A
:100B8000D2F7F701E859FF4F8081281B310941094D
:100B90005109C9011F910F91FF90EF900895DF92C5
:100BA000EF92FF920F931F93FC01E480F580068182
:100BB0001781D1808081823048F480E090E0A0E10C
:100BC000B0E0E82AF92A0A2B1B2BA5C0843009F4CF
:100BD0009FC0823021F4EE24FF24870105C0E11478
:100BE000F1040105110519F4E0E0F0E096C062811E
:100BF00073819FEF623879070CF05BC022E83FEF0A
:100C0000261B370B2A3131052CF020E030E040E084
:100C100050E02AC0B801A701022E04C0769567955E
:100C2000579547950A94D2F781E090E0A0E0B0E0B4
:100C300004C0880F991FAA1FBB1F2A95D2F70197DE
:100C4000A109B1098E219F21A023B1230097A105FD
:100C5000B10521F081E090E0A0E0B0E09A01AB01A5
:100C6000282B392B4A2B5B2BDA01C9018F77907027
:100C7000A070B07080349105A105B10539F427FF4B
:100C800009C0205C3F4F4F4F5F4F04C0215C3F4F76
:100C90004F4F5F4FE0E0F0E02030A0E03A07A0E0E7
:100CA0004A07A0E45A0710F0E1E0F0E079018A0178
:100CB00027C06038710564F5FB01E158FF4FD8018A
:100CC000C7018F779070A070B07080349105A10536
:100CD000B10539F4E7FE0DC080E490E0A0E0B0E09B
:100CE00004C08FE390E0A0E0B0E0E80EF91E0A1F18
:100CF0001B1F17FF05C016950795F794E7943196CB
:100D000087E016950795F794E7948A95D1F705C083
:100D1000EE24FF248701EFEFF0E06E2F6795662742
:100D20006795902F9F77D794DD24D7948E2F869543
:100D3000492F462B582F5D29B701CA011F910F91EA
:100D4000FF90EF90DF900895FC01DB01408151811D
:100D50002281622F6F7770E0221F2227221F93814A
:100D6000892F880F822B282F30E0991F9927991FF0
:100D700011969C93119721153105A9F5411551053F
:100D80006105710511F482E037C082E89FEF139688
:100D90009C938E9312979A01AB0167E0220F331F49
:100DA000441F551F6A95D1F783E08C930DC0220F25
:100DB000331F441F551F12968D919C9113970197D5
:100DC00013969C938E931297203080E0380780E032
:100DD000480780E4580758F314962D933D934D939C
:100DE0005C93179708952F3F310579F4411551050C
:100DF0006105710519F484E08C93089564FF03C0C4
:100E000081E08C9312C01C9210C02F573040139673
:100E10003C932E93129783E08C9387E0440F551FE9
:100E2000661F771F8A95D1F7706414964D935D9372
:100E30006D937C93179708951F93DC01FB019C91A0
:100E4000923008F447C08081823008F443C0943067
:100E500051F411961C91843099F58181682F70E0CE
:100E6000611B71093FC0843021F0923031F482302F
:100E7000B9F18181882389F12DC011961C911197B8
:100E80008230F1F081811817D9F412962D913C919E
:100E90001397828193818217930794F0281739075B
:100EA000BCF014968D919D910D90BC91A02D248144
:100EB000358146815781281739074A075B0718F49F
:100EC000112341F00AC082179307A407B50740F425
:100ED000112319F061E070E005C06FEF7FEF02C0F1
:100EE00060E070E0CB011F910895DF93CF93CDB701
:100EF000DEB7A5E4B0E0E5E4F0E080818F7B8C9381
:100F0000A5E4B0E0E5E4F0E0808188608C93A9E599
:100F1000B0E0E9E5F0E0808180688C93CF91DF91CB
:100F20000895DF93CF9300D000D0CDB7DEB76983AB
:100F30007A838B839C83E4E4F0E010828FEF90E06F
:100F4000A0E0B0E08093AB019093AC01A093AD0121
:100F5000B093AE0113C08091AB019091AC01A09110
:100F6000AD01B091AE010197A109B1098093AB0128
:100F70009093AC01A093AD01B093AE012091AB0171
:100F80003091AC014091AD015091AE0189819A81BF
:100F9000AB81BC81BC01CD010E948716DC01CB0175
:100FA0000097A105B105B9F6E3E4F0E08091AB014B
:100FB0009091AC01A091AD01B091AE0180832091E0
:100FC000AB013091AC014091AD015091AE018981EE
:100FD0009A81AB81BC81BC01CD010E948716DA01E8
:100FE000C9018093AB019093AC01A093AD01B09384
:100FF000AE01A5E4B0E0E5E4F0E080818E7F8C9363
:10100000A5E4B0E0E5E4F0E0808182608C93A5E4A3
:10101000B0E0E5E4F0E080818B7F8C930F900F903F
:101020000F900F90CF91DF910895DF93CF93CDB7BD
:10103000DEB7A5E4B0E0E5E4F0E080818E7F8C933C
:10104000A5E4B0E0E5E4F0E080818D7F8C93A5E439
:10105000B0E0E5E4F0E080818B7F8C93CF91DF916D
:101060000895DF93CF9300D0CDB7DEB79A838983FD
:1010700089819A819093B0018093AF010F900F9076
:10108000CF91DF9108951F920F920FB60F92112406
:101090002F933F934F935F936F937F938F939F9380
:1010A000AF93BF93EF93FF93DF93CF93CDB7DEB7AB
:1010B0002091A2013091A3014091A4015091A5017A
:1010C0008091AB019091AC01A091AD01B091AE01C6
:1010D000281739074A075B0781F4E091AF01F091C7
:1010E000B00109951092A2011092A3011092A401DF
:1010F0001092A501E4E4F0E010828091A2019091A9
:10110000A301A091A401B091A5010196A11DB11D5B
:101110008093A2019093A301A093A401B093A50191
:10112000CF91DF91FF91EF91BF91AF919F918F91FF
:101130007F916F915F914F913F912F910F900FBED3
:101140000F901F901895DF93CF93CDB7DEB7AFE424
:10115000B0E0EFE4F0E080818E7F8C93AFE4B0E00C
:10116000EFE4F0E0808182608C93AEE4B0E0EEE4E6
:10117000F0E0808188608C93AEE4B0E0EEE4F0E0D3
:10118000808180618C93AFE4B0E0EFE4F0E0808197
:101190008F7B8C93AFE4B0E0EFE4F0E08081806877
:1011A0008C93AFE4B0E0EFE4F0E080818F7E8C932D
:1011B000AFE4B0E0EFE4F0E0808180628C93CF9107
:1011C000DF910895DF93CF93CDB7DEB7AEE4B0E003
:1011D000EEE4F0E080818E7F8C93AEE4B0E0EEE44C
:1011E000F0E0808182608C93AEE4B0E0EEE4F0E069
:1011F00080818B7F8C93CF91DF910895EF92FF9246
:101200000F931F93DF93CF93CDB7DEB728970FB619
:10121000F894DEBF0FBECDBF8D836E838E81E82E26
:10122000FF2400E010E0E6E4F0E0808191819C0181
:1012300040E050E0C801B7010E946816DC01CB0114
:1012400024E630E040E050E0BC01CD010E9487166A
:10125000DA01C90189839A83AB83BC838D81282FEE
:1012600030E038872F838F819885009731F02F8168
:1012700038852130310541F00DC0EAE4F0E0898184
:101280009A819183808306C0E8E4F0E089819A81A5
:10129000918380838E81282F30E08D81B9010E9457
:1012A000C20928960FB6F894DEBF0FBECDBFCF910E
:1012B000DF911F910F91FF90EF900895DF93CF93EF
:1012C00000D0CDB7DEB79A838983E6E4F0E0898168
:1012D0009A81918380830F900F90CF91DF91089531
:1012E000DF93CF9300D000D0CDB7DEB789836A8378
:1012F0008A81282F30E03C832B838B819C8100974F
:1013000031F02B813C8121303105E9F034C0AFE46C
:10131000B0E0EFE4F0E080818F738C93AFE4B0E055
:10132000EFE4F0E08081282F8981882F90E000246D
:10133000969587950794969587950794982F802D75
:10134000822B8C9318C0AEE4B0E0EEE4F0E0808134
:101350008F7C8C93AEE4B0E0EEE4F0E08081282F47
:101360008981882F90E082959295907F9827807F41
:101370009827822B8C930F900F900F900F90CF9106
:10138000DF910895DF93CF9300D000D00F92CDB7B7
:10139000DEB789837B836A838981282F30E03D8390
:1013A0002C838C819D81009731F02C813D812130EF
:1013B000310541F00DC0EAE4F0E08A819B81918320
:1013C000808306C0E8E4F0E08A819B81918380837A
:1013D0000F900F900F900F900F90CF91DF91089585
:1013E000DF93CF93CDB7DEB7AFE5B0E0EFE5F0E048
:1013F000808180688C93CF91DF910895DF93CF93A4
:10140000CDB7DEB7AFE5B0E0EFE5F0E080818F77F4
:101410008C93CF91DF910895DF93CF93CDB7DEB753
:10142000A5E5B0E0E5E5F0E0808181608C93A5E57D
:10143000B0E0E5E5F0E0808182608C93A5E5B0E066
:10144000E5E5F0E080818E7F8C93A5E5B0E0E5E5F1
:10145000F0E0808188608C93A4E5B0E0E4E5F0E002
:10146000808180648C93CF91DF910895DF93CF9337
:1014700000D00F92CDB7DEB789838981282F30E065
:101480003B832A838A819B818130910589F02A815F
:101490003B8122303105A1F08A819B810097B9F40C
:1014A000ABE5B0E0EBE5F0E0808180648C930FC0A9
:1014B000ABE5B0E0EBE5F0E0808180688C9307C09D
:1014C000ABE5B0E0EBE5F0E0808180628C930F90BB
:1014D0000F900F90CF91DF910895DF93CF9300D0BD
:1014E0000F92CDB7DEB789838981282F30E03B8307
:1014F0002A838A819B818130910589F02A813B81F1
:1015000022303105A1F08A819B810097B9F4ABE5C7
:10151000B0E0EBE5F0E080818F7B8C930FC0ABE512
:10152000B0E0EBE5F0E080818F778C9307C0ABE50E
:10153000B0E0EBE5F0E080818F7D8C930F900F9011
:101540000F90CF91DF910895DF93CF9300D000D01B
:101550000F92CDB7DEB789837B836A838981282F79
:1015600030E03D832C838C819D818130910581F019
:101570002C813D812230310591F08C819D81009735
:10158000A1F48A819B819093B4018093B3010DC033
:101590008A819B819093B6018093B50106C08A81B0
:1015A0009B819093B2018093B1010F900F900F90A7
:1015B0000F900F90CF91DF9108951F920F920FB669
:1015C0000F9211242F933F934F935F936F937F93C9
:1015D0008F939F93AF93BF93EF93FF93DF93CF933B
:1015E000CDB7DEB7E091B301F091B4010995CF9189
:1015F000DF91FF91EF91BF91AF919F918F917F917B
:101600006F915F914F913F912F910F900FBE0F906F
:101610001F9018951F920F920FB60F9211242F93BF
:101620003F934F935F936F937F938F939F93AF936A
:10163000BF93EF93FF93DF93CF93CDB7DEB7E091E6
:10164000B501F091B6010995CF91DF91FF91EF912E
:10165000BF91AF919F918F917F916F915F914F91CA
:101660003F912F910F900FBE0F901F9018951F92D2
:101670000F920FB60F9211242F933F934F935F93C6
:101680006F937F938F939F93AF93BF93EF93FF934A
:10169000DF93CF93CDB7DEB7E091B101F091B20106
:1016A0000995CF91DF91FF91EF91BF91AF919F91FC
:1016B0008F917F916F915F914F913F912F910F90FB
:1016C0000FBE0F901F901895DF93CF93CDB7DEB765
:1016D00028970FB6F894DEBF0FBECDBF89836A830B
:1016E0004B838B81813009F071C08981282F30E0D4
:1016F00038872F838F8198858130910549F12F811B
:101700003885223031052CF48F819885009761F05F
:101710005BC02F8138852230310571F18F8198852A
:1017200083309105E9F150C0ABE3B0E0EBE3F0E0CA
:101730008081482F8A81282F30E081E090E0022EBE
:1017400002C0880F991F0A94E2F7842B8C93BAC0C9
:10175000A8E3B0E0E8E3F0E08081482F8A81282FF9
:1017600030E081E090E0022E02C0880F991F0A94B9
:10177000E2F7842B8C93A6C0A5E3B0E0E5E3F0E0AC
:101780008081482F8A81282F30E081E090E0022E6E
:1017900002C0880F991F0A94E2F7842B8C9392C0A1
:1017A000A2E3B0E0E2E3F0E08081482F8A81282FB5
:1017B00030E081E090E0022E02C0880F991F0A9469
:1017C000E2F7842B8C937EC01E827EC08B8188239F
:1017D00009F076C08981282F30E03D832C838C81ED
:1017E0009D818130910559F12C813D812230310557
:1017F0002CF48C819D81009769F060C02C813D8123
:101800002230310589F18C819D818330910509F465
:1018100040C054C0ABE3B0E0EBE3F0E08081482F80
:101820008A81282F30E081E090E0022E02C0880FEC
:10183000991F0A94E2F7809584238C9343C0A8E310
:10184000B0E0E8E3F0E08081482F8A81282F30E083
:1018500081E090E0022E02C0880F991F0A94E2F7FF
:10186000809584238C932EC0A5E3B0E0E5E3F0E0FF
:101870008081482F8A81282F30E081E090E0022E7D
:1018800002C0880F991F0A94E2F7809584238C93F5
:1018900019C0A2E3B0E0E2E3F0E08081482F8A8142
:1018A000282F30E081E090E0022E02C0880F991FBF
:1018B0000A94E2F7809584238C9304C01E8204C0AE
:1018C0001E8202C091E09E838E8128960FB6F89406
:1018D000DEBF0FBECDBFCF91DF910895DF93CF93D1
:1018E000CDB7DEB728970FB6F894DEBF0FBECDBFD9
:1018F00089836A834B838B81813009F071C0898130
:10190000282F30E038872F838F819885813091058B
:1019100049F12F813885223031052CF48F8198854B
:10192000009761F05BC02F8138852230310571F15D
:101930008F81988583309105E9F150C0AAE3B0E02A
:10194000EAE3F0E08081482F8A81282F30E081E0AF
:1019500090E0022E02C0880F991F0A94E2F7842BB0
:101960008C93BAC0A7E3B0E0E7E3F0E08081482FB2
:101970008A81282F30E081E090E0022E02C0880F9B
:10198000991F0A94E2F7842B8C93A6C0A4E3B0E0DD
:10199000E4E3F0E08081482F8A81282F30E081E065
:1019A00090E0022E02C0880F991F0A94E2F7842B60
:1019B0008C9392C0A1E3B0E0E1E3F0E08081482F96
:1019C0008A81282F30E081E090E0022E02C0880F4B
:1019D000991F0A94E2F7842B8C937EC01E827EC0EE
:1019E0008B81882309F076C08981282F30E03D83E0
:1019F0002C838C819D818130910559F12C813D8111
:101A0000223031052CF48C819D81009769F060C0F3
:101A10002C813D812230310589F18C819D8183307B
:101A2000910509F440C054C0AAE3B0E0EAE3F0E055
:101A30008081482F8A81282F30E081E090E0022EBB
:101A400002C0880F991F0A94E2F7809584238C9333
:101A500043C0A7E3B0E0E7E3F0E08081482F8A814C
:101A6000282F30E081E090E0022E02C0880F991FFD
:101A70000A94E2F7809584238C932EC0A4E3B0E00F
:101A8000E4E3F0E08081482F8A81282F30E081E074
:101A900090E0022E02C0880F991F0A94E2F7809509
:101AA00084238C9319C0A1E3B0E0E1E3F0E08081EE
:101AB000482F8A81282F30E081E090E0022E02C07A
:101AC000880F991F0A94E2F7809584238C9304C0B1
:101AD0001E8204C01E8202C091E09E838E812896E1
:101AE0000FB6F894DEBF0FBECDBFCF91DF91089542
:101AF000DF93CF9300D000D000D0CDB7DEB78A837C
:101B00006B838A81282F30E03E832D834D815E8157
:101B10004130510541F18D819E818230910534F42F
:101B20002D813E812115310561F053C04D815E81CB
:101B30004230510551F18D819E8183309105B9F17B
:101B400048C0E9E3F0E08081282F30E08B81882FC6
:101B500090E0A90102C0559547958A95E2F7CA0120
:101B60008170898338C0E6E3F0E08081282F30E07F
:101B70008B81882F90E0A90102C0559547958A95E1
:101B8000E2F7CA018170898326C0E3E3F0E0808137
:101B9000282F30E08B81882F90E0A90102C0559555
:101BA00047958A95E2F7CA018170898314C0E0E302
:101BB000F0E08081282F30E08B81882F90E0A90110
:101BC00002C0559547958A95E2F7CA0181708983CD
:101BD00002C01C8202C059815C838C8126960FB69C
:101BE000F894DEBF0FBECDBFCF91DF910895DF9394
:101BF000CF9300D000D00F92CDB7DEB78A838A8111
:101C0000282F30E03D832C838C819D81813091058C
:101C1000D1F02C813D81223031052CF48C819D81C5
:101C2000009761F01FC02C813D812230310581F089
:101C30008C819D818330910581F014C0E9E3F0E04F
:101C40008081898311C0E6E3F0E0808189830CC044
:101C5000E3E3F0E08081898307C0E0E3F0E0808186
:101C6000898302C01B8202C099819B838B810F9064
:101C70000F900F900F900F90CF91DF910895DF9309
:101C8000CF9300D000D00F92CDB7DEB789836A839F
:101C90008981282F30E03D832C838C819D81813088
:101CA0009105D1F02C813D81223031052CF48C81BD
:101CB0009D81009761F01FC02C813D81223031054C
:101CC00081F08C819D818330910581F014C0EBE31C
:101CD000F0E08A81808311C0E8E3F0E08A818083AC
:101CE0000CC0E5E3F0E08A81808307C0E2E3F0E026
:101CF0008A81808302C01B8202C091E09B838B811A
:101D00000F900F900F900F900F90CF91DF9108954B
:101D1000DF93CF9300D000D00F92CDB7DEB7898389
:101D20006A838A81813019F48FEF8A8301C01A8215
:101D30008981282F30E03D832C838C819D818130E7
:101D40009105D1F02C813D81223031052CF48C811C
:101D50009D81009761F01FC02C813D8122303105AB
:101D600081F08C819D818330910581F014C0EAE37C
:101D7000F0E08A81808311C0E7E3F0E08A8180830C
:101D80000CC0E4E3F0E08A81808307C0E1E3F0E087
:101D90008A81808302C01B8202C091E09B838B8179
:101DA0000F900F900F900F900F90CF91DF910895AB
:101DB000DF93CF93CDB7DEB7E7E2F0E01082E6E243
:101DC000F0E01082A6E2B0E0E6E2F0E08081806818
:101DD0008C93A6E2B0E0E6E2F0E0808185608C932F
:101DE000A7E2B0E0E7E2F0E0808180648C93A7E2B4
:101DF000B0E0E7E2F0E080818C93CF91DF9108952D
:101E0000DF93CF930F92CDB7DEB78983A7E2B0E01F
:101E1000E7E2F0E08081807E8C93A7E2B0E0E7E229
:101E2000F0E090818981892B8C930F90CF91DF9185
:101E30000895DF93CF93CDB7DEB7A6E2B0E0E6E238
:101E4000F0E0808180648C93E6E2F0E0808182950E
:101E5000869586958370882F90E081709070882396
:101E600099F7E4E2F0E080819181CF91DF910895CC
:101E7000DF93CF930F92CDB7DEB719821AC0898155
:101E8000882F90E0880F991FFC01E859FE4F2081B0
:101E90008981882F90E0880F991FFC01E759FE4F38
:101EA0009081822F692F41E00E946E0C89818F5FA3
:101EB00089838981843018F30F90CF91DF91089541
:101EC000DF93CF930F92CDB7DEB7198230C08981EF
:101ED000882F90E0880F991FFC01E859FE4F408140
:101EE0008981882F90E0880F991FFC01E759FE4FE8
:101EF00050818091A601882F90E0FC01E059FE4FAF
:101F00008081282F30E08981882F90E0B90102C0BC
:101F1000759567958A95E2F7CB01982F9170842F7C
:101F2000652F492F0E94640B89818F5F8983898186
:101F3000843068F28091A6018F5F8093A601809122
:101F4000A601883010F01092A6010F90CF91DF917A
:101F50000895DF93CF930F92CDB7DEB7198230C0CB
:101F60008981882F90E0880F991FFC01E859FE4F66
:101F700040818981882F90E0880F991FFC01E759E3
:101F8000FE4F50818091A601882F90E0FC01E0591E
:101F9000FE4F8081282F30E08981882F90E0B901A1
:101FA00002C0759567958A95E2F7CB01982F9170DD
:101FB000842F652F492F0E94640B89818F5F89834D
:101FC0008981843068F28091A6018F5F8093A60199
:101FD0008091A601883018F087E08093A6010F90C9
:101FE000CF91DF910895DF93CF93CDB7DEB783E034
:101FF00065E041E00E946E0C0E94A30880E062E070
:102000000E94700980E29EE40E945E090E94E2083C
:10201000CF91DF910895DF93CF9300D00F92CDB78A
:10202000DEB78B838B81865A8B838B81882F90E0E0
:10203000AA2797FDA095BA2FBC01CD010E94550497
:10204000DC01CB01BC01CD0120E030E044E353E4EE
:102050000E941903DC01CB01BC01CD0120E030E07E
:102060004AE754E40E941F02DC01CB01BC01CD0110
:1020700020E030E04AE754E40E94F201DC01CB01A9
:10208000BC01CD010E944900DC01CB019A83898308
:1020900029813A8180E0B9010E94C2090F900F9016
:1020A0000F90CF91DF910895DF93CF930F92CDB72B
:1020B000DEB789838981882F90E08130910521F4F2
:1020C00080E061E00E94880E0F90CF91DF9108952B
:1020D000DF93CF9300D0CDB7DEB789836A83898140
:1020E000882F90E08130910559F48A81882F90E003
:1020F000FC01E856FE4F908180E0692F0E943F0E60
:102100000F900F90CF91DF910895DF93CF930F92AF
:10211000CDB7DEB789830F90CF91DF910895DF931C
:10212000CF93CDB7DEB780E061E040E00E946E0C57
:1021300080E00E94000F0E94D80ECF91DF91089599
:10214000DF93CF9300D000D0CDB7DEB70E94190F38
:10215000CC01A0E0B0E089839A83AB83BC83698122
:102160007A818B819C810E940705DC01CB01BC0137
:10217000CD0120E030E040EA5BE30E941F02DC0179
:10218000CB01BC01CD0120E030E048EC52E40E94DC
:102190001F02DC01CB01BC01CD010E944900DC0122
:1021A000CB0189839A83AB83BC8389819A81AB817C
:1021B000BC81BC01CD010F900F900F900F90CF917B
:1021C000DF910895DF93CF9300D00F92CDB7DEB7A4
:1021D00089838981282F30E03B832A838A819B81F0
:1021E0008230910531F12A813B812330310554F44D
:1021F0008A819B81009789F02A813B8121303105BA
:1022000091F028C08A819B8183309105C1F02A8199
:102210003B8124303105C9F01DC081E060E041E020
:102220000E946E0C17C081E061E041E00E946E0CDC
:1022300011C081E062E041E00E946E0C0BC081E0C1
:1022400063E041E00E946E0C05C081E064E041E083
:102250000E946E0C0F900F900F90CF91DF91089518
:10226000DF93CF9300D00F92CDB7DEB789838981FA
:10227000282F30E03B832A838A819B81823091051D
:1022800031F12A813B812330310554F48A819B81CD
:10229000009789F02A813B812130310591F028C0D7
:1022A0008A819B8183309105C1F02A813B81243052
:1022B0003105C9F01DC081E060E041E00E94640B7F
:1022C00017C081E061E041E00E94640B11C081E031
:1022D00062E041E00E94640B0BC081E063E041E0FA
:1022E0000E94640B05C081E064E041E00E94640B41
:1022F0000F900F900F90CF91DF910895DF93CF93C0
:1023000000D00F92CDB7DEB789838981282F30E0C6
:102310003B832A838A819B818230910531F12A8116
:102320003B812330310554F48A819B81009789F0E9
:102330002A813B812130310591F028C08A819B811F
:1023400083309105C1F02A813B8124303105C9F0E9
:102350001DC081E060E040E00E94640B17C081E096
:1023600061E040E00E94640B11C081E062E040E067
:102370000E94640B0BC081E063E040E00E94640BAC
:1023800005C081E064E040E00E94640B0F900F9074
:102390000F90CF91DF910895DF93CF93CDB7DEB744
:1023A000AA970FB6F894DEBF0FBECDBF83E061E001
:1023B0000E94880E82E060E041E00E946E0C82E0A4
:1023C00061E041E00E946E0C82E062E041E00E9428
:1023D0006E0C80E090E0A0EFB1E48FA398A7A9A7CE
:1023E000BAA76FA178A589A59AA520E030E04AEFA9
:1023F00054E40E941F02DC01CB018BA39CA3ADA37C
:10240000BEA36BA17CA18DA19EA120E030E040E89D
:102410005FE30E94250488232CF481E090E09AA3D6
:1024200089A33FC06BA17CA18DA19EA120E03FEFBD
:102430004FE757E40E94C50318164CF56FA178A525
:1024400089A59AA520E030E040E251E40E941F02F5
:10245000DC01CB01BC01CD010E944900DC01CB01B4
:102460009AA389A30FC088EC90E098A38F8F8F8DDB
:1024700098A10197F1F798A38F8F89A19AA101974D
:102480009AA389A389A19AA1009769F714C06BA1A7
:102490007CA18DA19EA10E944900DC01CB019AA3E1
:1024A00089A389A19AA19E8F8D8F8D8D9E8D019775
:1024B000F1F79E8F8D8F88E30E945A138DE00E9462
:1024C0005A1380E090E0A0E8BFE3898F9A8FAB8F2A
:1024D000BC8F698D7A8D8B8D9C8D20E030E04AEF2A
:1024E00054E40E941F02DC01CB018D8B9E8BAF8BCD
:1024F000B88F6D897E898F89988D20E030E040E823
:102500005FE30E94250488232CF481E090E09C8BFB
:102510008B8B3FC06D897E898F89988D20E03FEF3E
:102520004FE757E40E94C50318164CF5698D7A8D64
:102530008B8D9C8D20E030E040E251E40E941F0230
:10254000DC01CB01BC01CD010E944900DC01CB01C3
:102550009C8B8B8B0FC088EC90E09A8B898B898940
:102560009A890197F1F79A8B898B8B899C890197BE
:102570009C8B8B8B8B899C89009769F714C06D8924
:102580007E898F89988D0E944900DC01CB019C8B4C
:102590008B8B8B899C89988B8F878F8598890197E6
:1025A000F1F7988B8F8781E00E945A1380E090E0CA
:1025B000A0E0B0E48B879C87AD87BE876B857C8568
:1025C0008D859E8520E030E04AEF54E40E941F0292
:1025D000DC01CB018F839887A987BA876F817885C3
:1025E00089859A8520E030E040E85FE30E94250479
:1025F00088232CF481E090E09E838D833FC06F811F
:10260000788589859A8520E03FEF4FE757E40E945F
:10261000C50318164CF56B857C858D859E8520E05D
:1026200030E040E251E40E941F02DC01CB01BC011A
:10263000CD010E944900DC01CB019E838D830FC038
:1026400088EC90E09C838B838B819C810197F1F7D0
:102650009C838B838D819E8101979E838D838D8149
:102660009E81009769F714C06F81788589859A8566
:102670000E944900DC01CB019E838D838D819E8168
:102680009A83898389819A810197F1F79A83898353
:1026900086E00E945A138EE00E945A138CE00E943A
:1026A0005A13AA960FB6F894DEBF0FBECDBFCF91D6
:1026B000DF910895DF93CF930F92CDB7DEB7898373
:1026C00082E060E040E00E94640B82E061E040E074
:1026D0000E94640B83E069810E943F0E0E94841374
:1026E0000F90CF91DF910895DF93CF930F92CDB7E5
:1026F000DEB7898389818068898389810E945A1322
:102700000F90CF91DF910895DF93CF93CDB7DEB7D0
:102710006C970FB6F894DEBF0FBECDBF82E062E0CB
:1027200041E00E94640B80E090E0A0E8BFE3898F65
:102730009A8FAB8FBC8F698D7A8D8B8D9C8D20E0AD
:1027400030E04AEF54E40E941F02DC01CB018D8B84
:102750009E8BAF8BB88F6D897E898F89988D20E095
:1027600030E040E85FE30E94250488232CF481E0F8
:1027700090E09C8B8B8B3FC06D897E898F89988D73
:1027800020E03FEF4FE757E40E94C50318164CF5D1
:10279000698D7A8D8B8D9C8D20E030E040E251E494
:1027A0000E941F02DC01CB01BC01CD010E94490047
:1027B000DC01CB019C8B8B8B0FC088EC90E09A8B5B
:1027C000898B89899A890197F1F79A8B898B8B89F3
:1027D0009C8901979C8B8B8B8B899C89009769F7CF
:1027E00014C06D897E898F89988D0E944900DC0113
:1027F000CB019C8B8B8B8B899C89988B8F878F854A
:1028000098890197F1F7988B8F8782E062E040E02A
:102810000E94640B80E090E0A0E8BFE38B879C8778
:10282000AD87BE876B857C858D859E8520E030E0F9
:102830004AEF54E40E941F02DC01CB018F8398878A
:10284000A987BA876F81788589859A8520E030E0ED
:1028500040E85FE30E94250488232CF481E090E0A7
:102860009E838D833FC06F81788589859A8520E01E
:102870003FEF4FE757E40E94C50318164CF56B85F0
:102880007C858D859E8520E030E040E251E40E9409
:102890001F02DC01CB01BC01CD010E944900DC011B
:1028A000CB019E838D830FC088EC90E09C838B834B
:1028B0008B819C810197F1F79C838B838D819E8115
:1028C00001979E838D838D819E81009769F714C047
:1028D0006F81788589859A850E944900DC01CB014A
:1028E0009E838D838D819E819A83898389819A813C
:1028F0000197F1F79A8389836C960FB6F894DEBF3F
:102900000FBECDBFCF91DF910895DF93CF930F928C
:10291000CDB7DEB7898382E060E041E00E94640BBE
:1029200082E061E040E00E94640B83E069810E94E4
:102930003F0E0E9484130F90CF91DF910895DF9393
:10294000CF9300D000D0CDB7DEB79C838B831A82A3
:10295000198226C089819A8101969A838983EB81A5
:10296000FC8120818B819C8101969C838B83822FAB
:102970000E94851489819A818031910521F480E437
:102980000E9474130DC089819A818032910541F4AF
:1029900081E00E945A1380E00E9474131A82198207
:1029A000EB81FC8180818823A9F60F900F900F9016
:1029B0000F90CF91DF910895DF93CF93CDB7DEB71E
:1029C00027970FB6F894DEBF0FBECDBF9F838E83CF
:1029D0008E819F819E012F5F3F4FB9014AE050E0F9
:1029E0000E94E016CE0101960E949F1427960FB612
:1029F000F894DEBF0FBECDBFCF91DF910895DF9376
:102A0000CF9300D0CDB7DEB789836A8389818130C7
:102A100039F48A81803120F48A8181580E947413AC
:102A20008981823039F48A81803120F48A8181540D
:102A30000E9474130F900F90CF91DF910895DF9350
:102A4000CF93CDB7DEB780E060E040E00E946E0C2F
:102A500080E060E041E00E94640B80E061E040E0E3
:102A60000E946E0C80E061E041E00E94640B80E017
:102A700062E040E00E946E0C80E062E041E00E9473
:102A8000640B80E063E040E00E946E0C80E063E055
:102A900041E00E94640B80E064E041E00E946E0C23
:102AA00080E065E041E00E946E0C80E066E041E07D
:102AB0000E946E0C80E067E041E00E946E0CCF91B6
:102AC000DF910895DF93CF9300D00F92CDB7DEB79B
:102AD0001A8260C08A81882F90E0880F991FFC01BC
:102AE000E058FE4F80819181982F80E0692F40E06F
:102AF0000E94640B198238C08981882F90E0880F6A
:102B0000991FFC01E858FE4F80819181982F80E049
:102B1000692F0E94780D882321F58981882F90E004
:102B2000880F991FFC01E858FE4F80819181982FF2
:102B300080E0692F0E94780D882379F38981482FDE
:102B400050E08A81282F30E0CA01880F991F880F32
:102B5000991F820F931FFC01E857FE4F80818B83E2
:102B60001FC089818F5F89838981843028F28A819F
:102B7000882F90E0880F991FFC01E058FE4F80815C
:102B80009181982F80E0692F41E00E94640B8A8137
:102B90008F5F8A838A81843008F49CCF8FEF8B8388
:102BA0008B810F900F900F90CF91DF910895DF935D
:102BB000CF9300D00F92CDB7DEB789838981282FBC
:102BC00030E03B832A838A819B8181309105A1F08B
:102BD0002A813B8122303105D1F08A819B81009787
:102BE00001F581E060E040E00E946E0C81E060E071
:102BF00041E00E94640B15C081E061E040E00E946A
:102C00006E0C81E061E041E00E94640B0AC081E04B
:102C100062E040E00E946E0C81E062E041E00E94D0
:102C2000640B0F900F900F90CF91DF910895DF9379
:102C3000CF9300D000D0CDB7DEB78A838A81282F0A
:102C400030E03C832B838B819C818130910579F02E
:102C50002B813C812230310581F08B819C81009752
:102C600089F481E060E00E94780D89830BC081E0E7
:102C700061E00E94780D898305C081E062E00E94D6
:102C8000780D898389810F900F900F900F90CF91CD
:102C9000DF910895DF93CF930F92CDB7DEB789838D
:102CA00089810E9417168823D9F789810E941716F7
:102CB0008823D9F30F90CF91DF910895DF93CF93BD
:102CC000CDB7DEB70E94F30F8DE20E940B10FFCF4D
:102CD000629FD001739FF001829FE00DF11D649F00
:102CE000E00DF11D929FF00D839FF00D749FF00D8C
:102CF000659FF00D9927729FB00DE11DF91F639F2D
:102D0000B00DE11DF91FBD01CF0111240895A1E20D
:102D10001A2EAA1BBB1BFD010DC0AA1FBB1FEE1F55
:102D2000FF1FA217B307E407F50720F0A21BB30BA0
:102D3000E40BF50B661F771F881F991F1A9469F71C
:102D400060957095809590959B01AC01BD01CF0178
:102D500008952F923F924F925F926F927F928F923F
:102D60009F92AF92BF92CF92DF92EF92FF920F931A
:102D70001F93CF93DF93CDB7DEB7CA1BDB0B0FB624
:102D8000F894DEBF0FBECDBF09942A8839884888E1
:102D90005F846E847D848C849B84AA84B984C88477
:102DA000DF80EE80FD800C811B81AA81B981CE0F6E
:102DB000D11D0FB6F894DEBF0FBECDBFED01089553
:102DC000FB019F01E8944230C4F04532B4F44A302C
:102DD00029F497FB1EF4909581959F4F642F7727D8
:102DE0000E941117805D8A330CF0895D8193CB01BD
:102DF0000097A1F716F45DE251931082C9010C947B
:102E00000117DC01FC01672F71917723E1F73297FD
:102E100004C07C916D9370836291AE17BF07C8F3B5
:102E20000895AA1BBB1B51E107C0AA1FBB1FA61711
:102E3000B70710F0A61BB70B881F991F5A95A9F763
:0E2E400080959095BC01CD010895F894FFCFC8
:102E4E000000000000000000000102020303030363
:102E5E00040404040404040405050505050505051C
:102E6E0005050505050505050606060606060606FC
:102E7E0006060606060606060606060606060606E4
:102E8E0006060606060606060707070707070707CC
:102E9E0007070707070707070707070707070707B4
:102EAE0007070707070707070707070707070707A4
:102EBE000707070707070707070707070707070794
:102ECE00070707070707070708080808080808087C
:102EDE000808080808080808080808080808080864
:102EEE000808080808080808080808080808080854
:102EFE000808080808080808080808080808080844
:102F0E000808080808080808080808080808080833
:102F1E000808080808080808080808080808080823
:102F2E000808080808080808080808080808080813
:102F3E000808080808080808080808080808080803
:102F4E000808080808080808020002010202020325
:102F5E0001030206040C0809000001000200030030
:102F6E0004000500060007003738392B3435362D9E
:102F7E003132332A23303D2F3F065B4F666D7D077E
:022F8E007F6F53
:00000001FF
