:100000000C942A000C9490060C94BD060C94EA06FD
:100010000C9447000C9447000C9447000C94470044
:100020000C9447000C9447000C9447000C94470034
:100030000C9447000C9447000C9447000C94470024
:100040000C9447000C9447000C9447000C94470014
:100050000C94470011241FBECFE5D8E0DEBFCDBF12
:1000600010E0A0E6B0E0E6E1F2E202C005900D92F9
:10007000A239B107D9F710E0A2E9B0E001C01D92A2
:10008000AA39B107E1F70E948B100C9409110C9466
:100090000000EF92FF920F931F937B018C0120E0F1
:1000A00030E040E05FE40E94490388238CF0C801FF
:1000B000B70120E030E040E05FE40E94C1010E940F
:1000C000A9039B01AC01205030404040504806C07D
:1000D000C801B7010E94A9039B01AC01B901CA0183
:1000E0001F910F91FF90EF900895A0E0B0E0EBE733
:1000F000F0E00C94D210DC012B01FA019C919230BB
:1001000008F439C1EB018881823008F433C194309E
:1001100069F4843009F02FC111969C91119789815F
:10012000981709F428C1A0E6B0E025C1843009F48D
:1001300021C18230A9F4923009F01DC19A01AD01AC
:1001400088E0EA010990AE01E90109929E0181501F
:10015000C1F7E201898111969C918923818308C1AD
:10016000923009F407C112962D903C901397EB0141
:100170008A819B811496AD90BD90CD90DC901797AD
:10018000EC80FD800E811F819101281B390BB90184
:1001900037FF04C066277727621B730B6032710537
:1001A0000CF061C0121613066CF537014801062EDB
:1001B00004C096948794779467940A94D2F721E0C8
:1001C00030E040E050E004C0220F331F441F551FB1
:1001D0006A95D2F721503040404050402E213F21B7
:1001E00040235123211531054105510521F021E01E
:1001F00030E040E050E079018A01E628F72808293C
:1002000019293CC0232BD1F1260E371E350146019A
:10021000062E04C096948794779467940A94D2F734
:1002200021E030E040E050E004C0220F331F441FC3
:10023000551F6A95D2F721503040404050402A2146
:100240003B214C215D21211531054105510521F04E
:1002500021E030E040E050E059016A01A628B728CB
:10026000C828D9280BC0821593052CF01C01AA249C
:10027000BB24650103C0EE24FF24870111969C91E5
:10028000D20111968C91981709F445C0992339F041
:10029000A80197012A193B094C095D0906C0A6016E
:1002A00095012E193F09400B510B57FD08C01182D3
:1002B0003382228224833583468357831DC081E0A5
:1002C00081833382228288279927DC01821B930B4A
:1002D000A40BB50B84839583A683B7830DC0220F2F
:1002E000331F441F551F24833583468357838281E0
:1002F000938101979383828324813581468157813D
:10030000DA01C9010197A109B1098F5F9F4FAF4F72
:10031000BF4328F30BC0918333822282EA0CFB1C7B
:100320000C1D1D1DE482F5820683178383E0808304
:10033000248135814681578157FF1AC0C901AA27F8
:1003400097FDA095BA2F81709070A070B0705695EF
:10035000479537952795822B932BA42BB52B848318
:100360009583A683B7838281938101969383828349
:10037000DF0101C0D201CD01CDB7DEB7E2E10C94BF
:10038000EE10A0E2B0E0E7ECF1E00C94DE1069833F
:100390007A838B839C832D833E834F835887E9E048
:1003A000EE2EF12CEC0EFD1ECE010196B7010E943F
:1003B000D2048E010F5E1F4FCE010596B8010E9438
:1003C000D2048A8991E089278A8BC701B801AE01DE
:1003D000475E5F4F0E9475000E94FD03A096E6E015
:1003E0000C94FA10A0E2B0E0E8EFF1E00C94DE101B
:1003F00069837A838B839C832D833E834F835887C5
:10040000F9E0EF2EF12CEC0EFD1ECE010196B701A6
:100410000E94D2048E010F5E1F4FCE010596B801D7
:100420000E94D204C701B801AE01475E5F4F0E942F
:1004300075000E94FD03A096E6E00C94FA10A0E27D
:10044000B0E0E5E2F2E00C94D21069837A838B830A
:100450009C832D833E834F835887CE010196BE0136
:10046000675F7F4F0E94D204CE010596BE016F5E8A
:100470007F4F0E94D2049985923088F0898982301A
:10048000C8F0943019F4823051F404C0843029F457
:10049000923081F480E690E0C6C0923049F420E0CA
:1004A0009A858A89981321E02A87CE010996BBC0D4
:1004B000823049F420E09A858A89981321E02A8BBA
:1004C000CE014196B0C02D843E844F8458886D88FB
:1004D0007E888F88988CEE24FF248701AA24BB2471
:1004E000650140E050E060E070E0E0E0F0E0C10174
:1004F00081709070892BE9F0E60CF71C081D191D1E
:100500009A01AB012A0D3B1D4C1D5D1D80E090E062
:10051000A0E0B0E0E614F7040805190520F481E036
:1005200090E0A0E0B0E0BA01A901480F591F6A1F8E
:100530007B1FAA0CBB1CCC1CDD1C97FE08C081E0F5
:1005400090E0A0E0B0E0A82AB92ACA2ADB2A3196B6
:10055000E032F10549F0660C771C881C991C569412
:10056000479437942794C3CFFA85EA892B893C892D
:100570008B859C85280F391F2E5F3F4F17C0CA01FE
:1005800081709070892B61F016950795F794E79428
:1005900080E090E0A0E0B0E8E82AF92A0A2B1B2BC3
:1005A00076956795579547952F5F3F4F77FDE7CF36
:1005B0000CC0440F551F661F771F17FD4160EE0CDE
:1005C000FF1C001F111F21503040403090E05907A0
:1005D00090E0690790E4790760F32B8F3C8FDB0193
:1005E000CA018F779070A070B07080349105A1051A
:1005F000B10561F447FD0AC0E114F10401051105DC
:1006000029F0405C5F4F6F4F7F4F40781A8EFE1786
:1006100011F081E08A8F4D8F5E8F6F8F78A383E01A
:10062000898FCE0149960E94FD03A096E2E10C94C9
:10063000EE10A8E1B0E0EFE1F3E00C94DE10698386
:100640007A838B839C832D833E834F83588789E0F5
:10065000E82EF12CEC0EFD1ECE010196B7010E9492
:10066000D2048E010F5E1F4FCE010596B8010E9485
:10067000D2048985823040F08989823028F0C70110
:10068000B8010E944A0501C08FEF6896E6E00C941D
:10069000FA10A8E1B0E0EFE4F3E00C94DE10698317
:1006A0007A838B839C832D833E834F83588789E095
:1006B000E82EF12CEC0EFD1ECE010196B7010E9432
:1006C000D2048E010F5E1F4FCE010596B8010E9425
:1006D000D2048985823040F08989823028F0C701B0
:1006E000B8010E944A0501C08FEF6896E6E00C94BD
:1006F000FA10A8E1B0E0EFE7F3E00C94DE106983B4
:100700007A838B839C832D833E834F83588789E034
:10071000E82EF12CEC0EFD1ECE010196B7010E94D1
:10072000D2048E010F5E1F4FCE010596B8010E94C4
:10073000D2048985823040F08989823028F0C7014F
:10074000B8010E944A0501C081E06896E6E00C9479
:10075000FA10ACE0B0E0EFEAF3E00C94E210698349
:100760007A838B839C83CE010196BE016B5F7F4FA2
:100770000E94D2048D81823061F1823050F1843048
:1007800021F48E81882351F12EC02F81388537FDC9
:1007900020C06E812F3131051CF06623F9F023C093
:1007A0008EE190E0821B930B29853A854B855C8511
:1007B00004C056954795379527958A95D2F76623B5
:1007C000B1F050954095309521953F4F4F4F5F4F79
:1007D0000EC020E030E040E050E009C02FEF3FEFD6
:1007E0004FEF5FE704C020E030E040E050E8B9019F
:1007F000CA012C96E2E00C94FE10DF92EF92FF9279
:100800000F931F93FC01E480F58006811781D1804E
:100810008081823048F480E090E0A0E1B0E0E82AF6
:10082000F92A0A2B1B2BA5C0843009F49FC0823003
:1008300021F4EE24FF24870105C0E114F104010531
:10084000110519F4E0E0F0E096C0628173819FEF3A
:10085000623879070CF05BC022E83FEF261B370BAC
:100860002A3131052CF020E030E040E050E02AC091
:10087000B801A701022E04C0769567955795479554
:100880000A94D2F781E090E0A0E0B0E004C0880FC5
:10089000991FAA1FBB1F2A95D2F70197A109B10979
:1008A0008E219F21A023B1230097A105B10521F03E
:1008B00081E090E0A0E0B0E09A01AB01282B392B59
:1008C0004A2B5B2BDA01C9018F779070A070B07052
:1008D00080349105A105B10539F427FF09C0205CDA
:1008E0003F4F4F4F5F4F04C0215C3F4F4F4F5F4F13
:1008F000E0E0F0E02030A0E03A07A0E04A07A0E402
:100900005A0710F0E1E0F0E079018A0127C0603871
:10091000710564F5FB01E158FF4FD801C7018F77DE
:100920009070A070B07080349105A105B10539F4C4
:10093000E7FE0DC080E490E0A0E0B0E004C08FE3EB
:1009400090E0A0E0B0E0E80EF91E0A1F1B1F17FFA1
:1009500005C016950795F794E794319687E01695AC
:100960000795F794E7948A95D1F705C0EE24FF2404
:100970008701EFEFF0E06E2F679566276795902F60
:100980009F77D794DD24D7948E2F8695492F462BB9
:10099000582F5D29B701CA011F910F91FF90EF9069
:1009A000DF900895FC01DB01408151812281622F9B
:1009B0006F7770E0221F2227221F9381892F880FD3
:1009C000822B282F30E0991F9927991F11969C930D
:1009D000119721153105A9F54115510561057105DD
:1009E00011F482E037C082E89FEF13969C938E93B8
:1009F00012979A01AB0167E0220F331F441F551F66
:100A00006A95D1F783E08C930DC0220F331F441FEA
:100A1000551F12968D919C911397019713969C9355
:100A20008E931297203080E0380780E0480780E4FA
:100A3000580758F314962D933D934D935C93179755
:100A400008952F3F310579F4411551056105710570
:100A500019F484E08C93089564FF03C081E08C93C3
:100A600012C01C9210C02F57304013963C932E9307
:100A7000129783E08C9387E0440F551F661F771F02
:100A80008A95D1F7706414964D935D936D937C9322
:100A9000179708951F93DC01FB019C91923008F495
:100AA00047C08081823008F443C0943051F41196DD
:100AB0001C91843099F58181682F70E0611B710968
:100AC0003FC0843021F0923031F48230B9F181811D
:100AD000882389F12DC011961C9111978230F1F075
:100AE00081811817D9F412962D913C911397828128
:100AF00093818217930794F028173907BCF0149656
:100B00008D919D910D90BC91A02D248135814681C0
:100B10005781281739074A075B0718F4112341F05A
:100B20000AC082179307A407B50740F4112319F0F0
:100B300061E070E005C06FEF7FEF02C060E070E041
:100B4000CB011F910895DF93CF93CDB7DEB7AFE50B
:100B5000B0E0EFE5F0E0808180688C93CF91DF9189
:100B60000895DF93CF93CDB7DEB7AFE5B0E0EFE503
:100B7000F0E080818F778C93CF91DF910895DF93A0
:100B8000CF93CDB7DEB7A5E5B0E0E5E5F0E0808135
:100B90008E7F8C93A5E5B0E0E5E5F0E08081826092
:100BA0008C93A5E5B0E0E5E5F0E080818E7F8C9345
:100BB000A5E5B0E0E5E5F0E0808188608C93A4E5F0
:100BC000B0E0E4E5F0E0808180648C93CF91DF9128
:100BD0000895DF93CF9300D00F92CDB7DEB789830E
:100BE0008981282F30E03B832A838A819B81813051
:100BF000910589F02A813B8122303105A1F08A815B
:100C00009B810097B9F4ABE5B0E0EBE5F0E08081C3
:100C100080648C930FC0ABE5B0E0EBE5F0E0808141
:100C200080688C9307C0ABE5B0E0EBE5F0E0808135
:100C300080628C930F900F900F90CF91DF91089569
:100C4000DF93CF9300D00F92CDB7DEB78983898130
:100C5000282F30E03B832A838A819B818130910554
:100C600089F02A813B8122303105A1F08A819B8164
:100C70000097B9F4ABE5B0E0EBE5F0E080818F7B65
:100C80008C930FC0ABE5B0E0EBE5F0E080818F77AF
:100C90008C9307C0ABE5B0E0EBE5F0E080818F7DA1
:100CA0008C930F900F900F90CF91DF910895DF9369
:100CB000CF9300D000D00F92CDB7DEB789837B836E
:100CC0006A838981282F30E03D832C838C819D812C
:100CD0008130910581F02C813D812230310591F0E8
:100CE0008C819D810097A1F48A819B8190939700CC
:100CF000809396000DC08A819B8190939900809388
:100D0000980006C08A819B819093950080939400FF
:100D10000F900F900F900F900F90CF91DF9108954B
:100D20001F920F920FB60F9211242F933F934F9360
:100D30005F936F937F938F939F93AF93BF93EF9343
:100D4000FF93DF93CF93CDB7DEB7E0919600F0919C
:100D500097000995CF91DF91FF91EF91BF91AF91EE
:100D60009F918F917F916F915F914F913F912F91C3
:100D70000F900FBE0F901F9018951F920F920FB6F5
:100D80000F9211242F933F934F935F936F937F9311
:100D90008F939F93AF93BF93EF93FF93DF93CF9383
:100DA000CDB7DEB7E0919800F09199000995CF9109
:100DB000DF91FF91EF91BF91AF919F918F917F91C3
:100DC0006F915F914F913F912F910F900FBE0F90B8
:100DD0001F9018951F920F920FB60F9211242F9308
:100DE0003F934F935F936F937F938F939F93AF93B3
:100DF000BF93EF93FF93DF93CF93CDB7DEB7E0912F
:100E00009400F09195000995CF91DF91FF91EF91BA
:100E1000BF91AF919F918F917F916F915F914F9112
:100E20003F912F910F900FBE0F901F901895DF9359
:100E3000CF93CDB7DEB728970FB6F894DEBF0FBEBD
:100E4000CDBF89836A834B838B81813009F071C068
:100E50008981282F30E038872F838F8198858130D2
:100E6000910549F12F813885223031052CF48F818D
:100E70009885009761F05BC02F813885223031055D
:100E800071F18F81988583309105E9F150C0ABE312
:100E9000B0E0EBE3F0E08081482F8A81282F30E03A
:100EA00081E090E0022E02C0880F991F0A94E2F7B9
:100EB000842B8C93BAC0A8E3B0E0E8E3F0E0808133
:100EC000482F8A81282F30E081E090E0022E02C076
:100ED000880F991F0A94E2F7842B8C93A6C0A5E390
:100EE000B0E0E5E3F0E08081482F8A81282F30E0F0
:100EF00081E090E0022E02C0880F991F0A94E2F769
:100F0000842B8C9392C0A2E3B0E0E2E3F0E0808116
:100F1000482F8A81282F30E081E090E0022E02C025
:100F2000880F991F0A94E2F7842B8C937EC01E824F
:100F30007EC08B81882309F076C08981282F30E01C
:100F40003D832C838C819D818130910559F12C81C9
:100F50003D81223031052CF48C819D81009769F010
:100F600060C02C813D812230310589F18C819D81C9
:100F70008330910509F440C054C0ABE3B0E0EBE32B
:100F8000F0E08081482F8A81282F30E081E090E0D6
:100F9000022E02C0880F991F0A94E2F780958423DD
:100FA0008C9343C0A8E3B0E0E8E3F0E08081482FF1
:100FB0008A81282F30E081E090E0022E02C0880F65
:100FC000991F0A94E2F7809584238C932EC0A5E3A1
:100FD000B0E0E5E3F0E08081482F8A81282F30E0FF
:100FE00081E090E0022E02C0880F991F0A94E2F778
:100FF000809584238C9319C0A2E3B0E0E2E3F0E093
:101000008081482F8A81282F30E081E090E0022EF5
:1010100002C0880F991F0A94E2F7809584238C936D
:1010200004C01E8204C01E8202C091E09E838E8195
:1010300028960FB6F894DEBF0FBECDBFCF91DF91DB
:101040000895DF93CF93CDB7DEB728970FB6F89406
:10105000DEBF0FBECDBF89836A834B838B81813016
:1010600009F071C08981282F30E038872F838F8164
:1010700098858130910549F12F81388522303105DD
:101080002CF48F819885009761F05BC02F813885A3
:101090002230310571F18F81988583309105E9F116
:1010A00050C0AAE3B0E0EAE3F0E08081482F8A81F3
:1010B000282F30E081E090E0022E02C0880F991FB7
:1010C0000A94E2F7842B8C93BAC0A7E3B0E0E7E37D
:1010D000F0E08081482F8A81282F30E081E090E085
:1010E000022E02C0880F991F0A94E2F7842B8C937A
:1010F000A6C0A4E3B0E0E4E3F0E08081482F8A8159
:10110000282F30E081E090E0022E02C0880F991F66
:101110000A94E2F7842B8C9392C0A1E3B0E0E1E360
:10112000F0E08081482F8A81282F30E081E090E034
:10113000022E02C0880F991F0A94E2F7842B8C9329
:101140007EC01E827EC08B81882309F076C0898193
:10115000282F30E03D832C838C819D818130910547
:1011600059F12C813D81223031052CF48C819D81F7
:10117000009769F060C02C813D812230310589F1F2
:101180008C819D818330910509F440C054C0AAE34D
:10119000B0E0EAE3F0E08081482F8A81282F30E038
:1011A00081E090E0022E02C0880F991F0A94E2F7B6
:1011B000809584238C9343C0A7E3B0E0E7E3F0E09D
:1011C0008081482F8A81282F30E081E090E0022E34
:1011D00002C0880F991F0A94E2F7809584238C93AC
:1011E0002EC0A4E3B0E0E4E3F0E08081482F8A81E0
:1011F000282F30E081E090E0022E02C0880F991F76
:101200000A94E2F7809584238C9319C0A1E3B0E09F
:10121000E1E3F0E08081482F8A81282F30E081E0EF
:1012200090E0022E02C0880F991F0A94E2F7809581
:1012300084238C9304C01E8204C01E8202C091E0ED
:101240009E838E8128960FB6F894DEBF0FBECDBF69
:10125000CF91DF910895DF93CF9300D000D000D0DD
:10126000CDB7DEB78A836B838A81282F30E03E8337
:101270002D834D815E814130510541F18D819E81EB
:101280008230910534F42D813E812115310561F0C4
:1012900053C04D815E814230510551F18D819E8157
:1012A00083309105B9F148C0E9E3F0E08081282F4F
:1012B00030E08B81882F90E0A90102C055954795B9
:1012C0008A95E2F7CA018170898338C0E6E3F0E0CD
:1012D0008081282F30E08B81882F90E0A90102C007
:1012E000559547958A95E2F7CA018170898326C092
:1012F000E3E3F0E08081282F30E08B81882F90E0BD
:10130000A90102C0559547958A95E2F7CA018170F7
:10131000898314C0E0E3F0E08081282F30E08B81E6
:10132000882F90E0A90102C0559547958A95E2F76C
:10133000CA018170898302C01C8202C059815C830A
:101340008C8126960FB6F894DEBF0FBECDBFCF912D
:10135000DF910895DF93CF9300D000D00F92CDB7E7
:10136000DEB78A838A81282F30E03D832C838C81ED
:101370009D8181309105D1F02C813D812230310554
:101380002CF48C819D81009761F01FC02C813D81E0
:101390002230310581F08C819D818330910581F06F
:1013A00014C0E9E3F0E08081898311C0E6E3F0E056
:1013B000808189830CC0E3E3F0E08081898307C0EA
:1013C000E0E3F0E08081898302C01B8202C0998142
:1013D0009B838B810F900F900F900F900F90CF9168
:1013E000DF910895DF93CF9300D000D00F92CDB757
:1013F000DEB789836A838981282F30E03D832C837F
:101400008C819D8181309105D1F02C813D812230EC
:1014100031052CF48C819D81009761F01FC02C81D7
:101420003D812230310581F08C819D818330910591
:1014300081F014C0EBE3F0E08A81808311C0E8E31F
:10144000F0E08A8180830CC0E5E3F0E08A8180834C
:1014500007C0E2E3F0E08A81808302C01B8202C001
:1014600091E09B838B810F900F900F900F900F90C6
:10147000CF91DF910895DF93CF9300D000D00F92EA
:10148000CDB7DEB789836A838A81813019F48FEF03
:101490008A8301C01A828981282F30E03D832C8302
:1014A0008C819D8181309105D1F02C813D8122304C
:1014B00031052CF48C819D81009761F01FC02C8137
:1014C0003D812230310581F08C819D8183309105F1
:1014D00081F014C0EAE3F0E08A81808311C0E7E381
:1014E000F0E08A8180830CC0E4E3F0E08A818083AD
:1014F00007C0E1E3F0E08A81808302C01B8202C062
:1015000091E09B838B810F900F900F900F900F9025
:10151000CF91DF910895DF93CF9300D00F92CDB795
:10152000DEB789838981282F30E03B832A838A8133
:101530009B8181309105A1F02A813B8122303105C8
:10154000D1F08A819B81009701F583E060E040E063
:101550000E94210883E060E041E00E94170715C067
:1015600083E061E040E00E94210883E061E041E027
:101570000E9417070AC083E062E040E00E94210851
:1015800083E062E041E00E9417070F900F900F90F8
:10159000CF91DF910895DF93CF9300D000D0CDB7E6
:1015A000DEB78A838A81282F30E03C832B838B81AE
:1015B0009C818130910579F02B813C81223031056D
:1015C00081F08B819C81009789F483E060E00E9428
:1015D0002B0989830BC083E061E00E942B0989837A
:1015E00005C083E062E00E942B09898389810F9006
:1015F0000F900F900F90CF91DF910895DF93CF93CD
:101600000F92CDB7DEB7898389810E94CB0A8823E8
:10161000D9F789810E94CB0A8823D9F30F90CF9103
:10162000DF910895DF93CF930F92CDB7DEB7898313
:101630008981882F90E08130910521F480E061E07C
:101640000E943B0A0F90CF91DF910895DF93CF93D3
:1016500000D0CDB7DEB789836A838981882F90E077
:101660008130910559F48A81882F90E0FC01E85778
:10167000FF4F908180E0692F0E94F2090F900F9038
:10168000CF91DF910895DF93CF930F92CDB7DEB75F
:1016900089830F90CF91DF910895DF93CF93CDB7DA
:1016A000DEB7E8970FB6F894DEBF0FBECDBF83E07C
:1016B00061E00E943B0A82E060E041E00E94210874
:1016C00082E061E041E00E94210882E062E041E0C6
:1016D0000E94210880E090E0A0EFB1E48DAB9EABCA
:1016E000AFABB8AF6DA97EA98FA998AD20E030E06F
:1016F00048E453E40E941F02DC01CB0189AB9AABA2
:10170000ABABBCAB69A97AA98BA99CA920E030E05E
:1017100040E85FE30E94790388232CF481E090E0A5
:1017200098AB8FA73FC069A97AA98BA99CA920E093
:101730003FEF4FE757E40E94190318164CF56DA9C7
:101740007EA98FA998AD20E030E040E251E40E94EC
:101750001F02DC01CB01BC01CD010E944900DC016C
:10176000CB0198AB8FA70FC084E190E09EA78DA717
:101770008DA59EA50197F1F79EA78DA78FA598A986
:10178000019798AB8FA78FA598A9009769F714C008
:1017900069A97AA98BA99CA90E944900DC01CB0107
:1017A00098AB8FA78FA598A99CA78BA78BA59CA565
:1017B0000197F1F79CA78BA788E30E94470D80E073
:1017C00090E0A0E8BFE38FA398A7A9A7BAA76FA14D
:1017D00078A589A59AA520E030E048E453E40E946A
:1017E0001F02DC01CB018BA39CA3ADA3BEA36BA105
:1017F0007CA18DA19EA120E030E040E85FE30E9443
:10180000790388232CF481E090E09AA389A33FC058
:101810006BA17CA18DA19EA120E03FEF4FE757E493
:101820000E94190318164CF56FA178A589A59AA5F1
:1018300020E030E040E251E40E941F02DC01CB01D5
:10184000BC01CD010E944900DC01CB019AA389A310
:101850000FC084E190E098A38F8F8F8D98A101979E
:10186000F1F798A38F8F89A19AA101979AA389A3D1
:1018700089A19AA1009769F714C06BA17CA18DA1E1
:101880009EA10E944900DC01CB019AA389A389A1F2
:101890009AA19E8F8D8F8D8D9E8D0197F1F79E8FD2
:1018A0008D8F8FE00E94470D80E090E0A0E8BFE3BD
:1018B000898F9A8FAB8FBC8F698D7A8D8B8D9C8D24
:1018C00020E030E048E453E40E941F02DC01CB0139
:1018D0008D8B9E8BAF8BB88F6D897E898F89988D0C
:1018E00020E030E040E85FE30E94790388232CF495
:1018F00081E090E09C8B8B8B3FC06D897E898F89C6
:10190000988D20E03FEF4FE757E40E941903181627
:101910004CF5698D7A8D8B8D9C8D20E030E040E216
:1019200051E40E941F02DC01CB01BC01CD010E94E9
:101930004900DC01CB019C8B8B8B0FC084E190E0D4
:101940009A8B898B89899A890197F1F79A8B898B70
:101950008B899C8901979C8B8B8B8B899C890097A9
:1019600069F714C06D897E898F89988D0E9449001E
:10197000DC01CB019C8B8B8B8B899C89988B8F870F
:101980008F8598890197F1F7988B8F8781E00E9466
:10199000470D80E090E0A0E0B0E48B879C87AD87A6
:1019A000BE876B857C858D859E8520E030E048E490
:1019B00053E40E941F02DC01CB018F839887A98723
:1019C000BA876F81788589859A8520E030E040E884
:1019D0005FE30E94790388232CF481E090E09E83EA
:1019E0008D833FC06F81788589859A8520E03FEFA0
:1019F0004FE757E40E94190318164CF56B857C8558
:101A00008D859E8520E030E040E251E40E941F0277
:101A1000DC01CB01BC01CD010E944900DC01CB01FE
:101A20009E838D830FC084E190E09C838B838B81A8
:101A30009C810197F1F79C838B838D819E81019717
:101A40009E838D838D819E81009769F714C06F817D
:101A5000788589859A850E944900DC01CB019E83A7
:101A60008D838D819E819A83898389819A81019753
:101A7000F1F79A83898386E00E94470DE8960FB6B6
:101A8000F894DEBF0FBECDBFCF91DF910895DF93F5
:101A9000CF930F92CDB7DEB7898382E060E040E05C
:101AA0000E94170782E061E040E00E94170783E090
:101AB00069810E94F2090E94710D0F90CF91DF9110
:101AC0000895DF93CF930F92CDB7DEB789838981D5
:101AD0008068898389810E94470D0F90CF91DF91A3
:101AE0000895DF93CF93CDB7DEB76C970FB6F89418
:101AF000DEBF0FBECDBF82E062E041E00E9417076B
:101B000080E090E0A0E8BFE3898F9A8FAB8FBC8F15
:101B1000698D7A8D8B8D9C8D20E030E048E453E414
:101B20000E941F02DC01CB018D8B9E8BAF8BB88F87
:101B30006D897E898F89988D20E030E040E85FE3F1
:101B40000E94790388232CF481E090E09C8B8B8B9E
:101B50003FC06D897E898F89988D20E03FEF4FE7E8
:101B600057E40E94190318164CF5698D7A8D8B8DF8
:101B70009C8D20E030E040E251E40E941F02DC0135
:101B8000CB01BC01CD010E944900DC01CB019C8B43
:101B90008B8B0FC084E190E09A8B898B89899A891D
:101BA0000197F1F79A8B898B8B899C8901979C8B84
:101BB0008B8B8B899C89009769F714C06D897E890E
:101BC0008F89988D0E944900DC01CB019C8B8B8B07
:101BD0008B899C89988B8F878F8598890197F1F7DE
:101BE000988B8F8782E062E040E00E94170780E0D8
:101BF00090E0A0E8BFE38B879C87AD87BE876B85AD
:101C00007C858D859E8520E030E048E453E40E9489
:101C10001F02DC01CB018F839887A987BA876F8168
:101C2000788589859A8520E030E040E85FE30E946E
:101C3000790388232CF481E090E09E838D833FC05C
:101C40006F81788589859A8520E03FEF4FE757E4DB
:101C50000E94190318164CF56B857C858D859E8531
:101C600020E030E040E251E40E941F02DC01CB01A1
:101C7000BC01CD010E944900DC01CB019E838D8314
:101C80000FC084E190E09C838B838B819C810197C2
:101C9000F1F79C838B838D819E8101979E838D8339
:101CA0008D819E81009769F714C06F817885898541
:101CB0009A850E944900DC01CB019E838D838D8132
:101CC0009E819A83898389819A810197F1F79A830A
:101CD00089836C960FB6F894DEBF0FBECDBFCF914F
:101CE000DF910895DF93CF930F92CDB7DEB789834D
:101CF00082E060E041E00E94170782E061E040E09E
:101D00000E94170783E069810E94F2090E94710D09
:101D10000F90CF91DF910895DF93CF9300D000D043
:101D2000CDB7DEB79C838B831A82198226C0898146
:101D30009A8101969A838983EB81FC8120818B8132
:101D40009C8101969C838B83822F0E94720E8981D5
:101D50009A818031910521F480E40E94610D0DC0CB
:101D600089819A818032910541F481E00E94470D7A
:101D700080E00E94610D1A821982EB81FC818081D2
:101D80008823A9F60F900F900F900F90CF91DF91BD
:101D90000895DF93CF9300D0CDB7DEB789836A83F0
:101DA0008981813039F48A81803120F48A81815897
:101DB0000E94610D8981823039F48A81803120F45A
:101DC0008A8181540E94610D0F900F90CF91DF9115
:101DD0000895DF93CF93CDB7DEB780E060E040E0B9
:101DE0000E94210880E060E041E00E94170780E047
:101DF00061E040E00E94210880E061E041E00E9453
:101E0000170780E062E040E00E94210880E062E085
:101E100041E00E94170780E063E040E00E94210853
:101E200080E063E041E00E94170780E064E041E069
:101E30000E94210880E065E041E00E94210880E0E6
:101E400066E041E00E94210880E067E041E00E94F6
:101E50002108CF91DF910895DF93CF9300D00F92A7
:101E6000CDB7DEB71A8260C08A81882F90E0880FD4
:101E7000991FFC01E059FF4F80819181982F80E0EC
:101E8000692F40E00E941707198238C08981882F86
:101E900090E0880F991FFC01E859FF4F80819181E4
:101EA000982F80E0692F0E942B09882321F58981D2
:101EB000882F90E0880F991FFC01E859FF4F80811F
:101EC0009181982F80E0692F0E942B09882379F354
:101ED0008981482F50E08A81282F30E0CA01880F7D
:101EE000991F880F991F820F931FFC01E858FF4F1D
:101EF00080818B831FC089818F5F89838981843032
:101F000028F28A81882F90E0880F991FFC01E05900
:101F1000FF4F80819181982F80E0692F41E00E94DE
:101F200017078A818F5F8A838A81843008F49CCF67
:101F30008FEF8B838B810F900F900F90CF91DF915C
:101F40000895DF93CF9300D00F92CDB7DEB789838A
:101F50008981282F30E03B832A838A819B818230CC
:101F6000910531F12A813B812330310554F48A8176
:101F70009B81009789F02A813B812130310591F0C6
:101F800028C08A819B8183309105C1F02A813B81E1
:101F900024303105C9F01DC081E060E041E00E94BD
:101FA000210817C081E061E041E00E94210811C0D2
:101FB00081E062E041E00E9421080BC081E063E023
:101FC00041E00E94210805C081E064E041E00E94F8
:101FD00021080F900F900F90CF91DF910895DF931C
:101FE000CF9300D00F92CDB7DEB789838981282F98
:101FF00030E03B832A838A819B818230910531F1D5
:102000002A813B812330310554F48A819B810097DA
:1020100089F02A813B812130310591F028C08A81E5
:102020009B8183309105C1F02A813B8124303105A9
:10203000C9F01DC081E060E041E00E94170717C0B1
:1020400081E061E041E00E94170711C081E062E099
:1020500041E00E9417070BC081E063E041E00E946D
:10206000170705C081E064E041E00E9417070F9068
:102070000F900F90CF91DF910895DF93CF9300D011
:102080000F92CDB7DEB789838981282F30E03B835B
:102090002A838A819B818230910531F12A813B819B
:1020A0002330310554F48A819B81009789F02A817D
:1020B0003B812130310591F028C08A819B8183309A
:1020C0009105C1F02A813B8124303105C9F01DC042
:1020D00081E060E040E00E94170717C081E061E006
:1020E00040E00E94170711C081E062E040E00E94DA
:1020F00017070BC081E063E040E00E94170705C0AE
:1021000081E064E040E00E9417070F900F900F906D
:10211000CF91DF910895DF93CF93CDB7DEB780E005
:102120000E94A10F82E00E948B0A0E94BF0526EA4E
:1021300030E180E0B9010E94570680E00E94E90585
:102140000E94A30580E00E943D10FFCFDF93CF9354
:1021500000D00F92CDB7DEB780919200909193009E
:102160009B838A838A819B818170907019820097FA
:1021700011F491E099838A819B8101969093930059
:10218000809392008981882321F080E00E94EF0FE4
:1021900003C080E00E943D100F900F900F90CF91F0
:1021A000DF9108952F923F924F925F926F927F92AC
:1021B0008F929F92AF92BF92CF92DF92EF92FF9257
:1021C0000F931F93CF93DF93CDB7DEB7CA1BDB0B03
:1021D0000FB6F894DEBF0FBECDBF09942A883988A8
:1021E00048885F846E847D848C849B84AA84B984AF
:1021F000C884DF80EE80FD800C811B81AA81B981BB
:10220000CE0FD11D0FB6F894DEBF0FBECDBFED01CE
:062210000895F894FFCFD1
:1022160000000000000000000000010002000300B2
:1022260004000500060007003738392B3435362DF3
:102236003132332A23303D2F3F065B4F666D7D07D3
:022246007F6FA8
:00000001FF
